{"abi":[{"type":"constructor","inputs":[{"name":"name_","type":"string","internalType":"string"},{"name":"symbol_","type":"string","internalType":"string"},{"name":"initialOwner","type":"address","internalType":"address"},{"name":"baseURI_","type":"string","internalType":"string"}],"stateMutability":"nonpayable"},{"type":"function","name":"approve","inputs":[{"name":"","type":"address","internalType":"address"},{"name":"","type":"uint256","internalType":"uint256"}],"outputs":[],"stateMutability":"pure"},{"type":"function","name":"balanceOf","inputs":[{"name":"owner","type":"address","internalType":"address"}],"outputs":[{"name":"","type":"uint256","internalType":"uint256"}],"stateMutability":"view"},{"type":"function","name":"burn","inputs":[{"name":"tokenId","type":"uint256","internalType":"uint256"}],"outputs":[],"stateMutability":"nonpayable"},{"type":"function","name":"canJoinGroup","inputs":[{"name":"user","type":"address","internalType":"address"},{"name":"mediaId","type":"bytes32","internalType":"bytes32"}],"outputs":[{"name":"","type":"bool","internalType":"bool"}],"stateMutability":"view"},{"type":"function","name":"canText","inputs":[{"name":"from","type":"address","internalType":"address"},{"name":"to","type":"address","internalType":"address"},{"name":"mediaId","type":"bytes32","internalType":"bytes32"}],"outputs":[{"name":"","type":"bool","internalType":"bool"}],"stateMutability":"view"},{"type":"function","name":"complete","inputs":[{"name":"mediaId","type":"bytes32","internalType":"bytes32"}],"outputs":[{"name":"tokenId","type":"uint256","internalType":"uint256"}],"stateMutability":"nonpayable"},{"type":"function","name":"completeByExternalId","inputs":[{"name":"kind","type":"uint8","internalType":"enum VeryMediaCompletion.MediaKind"},{"name":"externalId","type":"string","internalType":"string"}],"outputs":[{"name":"tokenId","type":"uint256","internalType":"uint256"}],"stateMutability":"nonpayable"},{"type":"function","name":"completionTokenId","inputs":[{"name":"user","type":"address","internalType":"address"},{"name":"mediaId","type":"bytes32","internalType":"bytes32"}],"outputs":[{"name":"tokenId","type":"uint256","internalType":"uint256"}],"stateMutability":"view"},{"type":"function","name":"computeMediaId","inputs":[{"name":"kind","type":"uint8","internalType":"enum VeryMediaCompletion.MediaKind"},{"name":"externalId","type":"string","internalType":"string"}],"outputs":[{"name":"","type":"bytes32","internalType":"bytes32"}],"stateMutability":"pure"},{"type":"function","name":"getApproved","inputs":[{"name":"tokenId","type":"uint256","internalType":"uint256"}],"outputs":[{"name":"","type":"address","internalType":"address"}],"stateMutability":"view"},{"type":"function","name":"groupMemberAt","inputs":[{"name":"mediaId","type":"bytes32","internalType":"bytes32"},{"name":"index","type":"uint256","internalType":"uint256"}],"outputs":[{"name":"","type":"address","internalType":"address"}],"stateMutability":"view"},{"type":"function","name":"groupMemberCount","inputs":[{"name":"mediaId","type":"bytes32","internalType":"bytes32"}],"outputs":[{"name":"","type":"uint256","internalType":"uint256"}],"stateMutability":"view"},{"type":"function","name":"hasCompleted","inputs":[{"name":"user","type":"address","internalType":"address"},{"name":"mediaId","type":"bytes32","internalType":"bytes32"}],"outputs":[{"name":"","type":"bool","internalType":"bool"}],"stateMutability":"view"},{"type":"function","name":"isApprovedForAll","inputs":[{"name":"owner","type":"address","internalType":"address"},{"name":"operator","type":"address","internalType":"address"}],"outputs":[{"name":"","type":"bool","internalType":"bool"}],"stateMutability":"view"},{"type":"function","name":"isGroupMember","inputs":[{"name":"mediaId","type":"bytes32","internalType":"bytes32"},{"name":"user","type":"address","internalType":"address"}],"outputs":[{"name":"","type":"bool","internalType":"bool"}],"stateMutability":"view"},{"type":"function","name":"isRegistrar","inputs":[{"name":"registrar","type":"address","internalType":"address"}],"outputs":[{"name":"allowed","type":"bool","internalType":"bool"}],"stateMutability":"view"},{"type":"function","name":"joinGroup","inputs":[{"name":"mediaId","type":"bytes32","internalType":"bytes32"}],"outputs":[],"stateMutability":"nonpayable"},{"type":"function","name":"leaveGroup","inputs":[{"name":"mediaId","type":"bytes32","internalType":"bytes32"}],"outputs":[],"stateMutability":"nonpayable"},{"type":"function","name":"mediaInfo","inputs":[{"name":"mediaId","type":"bytes32","internalType":"bytes32"}],"outputs":[{"name":"exists","type":"bool","internalType":"bool"},{"name":"kind","type":"uint8","internalType":"enum VeryMediaCompletion.MediaKind"},{"name":"uri","type":"string","internalType":"string"}],"stateMutability":"view"},{"type":"function","name":"name","inputs":[],"outputs":[{"name":"","type":"string","internalType":"string"}],"stateMutability":"view"},{"type":"function","name":"nextTokenId","inputs":[],"outputs":[{"name":"","type":"uint256","internalType":"uint256"}],"stateMutability":"view"},{"type":"function","name":"owner","inputs":[],"outputs":[{"name":"","type":"address","internalType":"address"}],"stateMutability":"view"},{"type":"function","name":"ownerOf","inputs":[{"name":"tokenId","type":"uint256","internalType":"uint256"}],"outputs":[{"name":"","type":"address","internalType":"address"}],"stateMutability":"view"},{"type":"function","name":"registerMedia","inputs":[{"name":"mediaId","type":"bytes32","internalType":"bytes32"},{"name":"kind","type":"uint8","internalType":"enum VeryMediaCompletion.MediaKind"},{"name":"uri","type":"string","internalType":"string"}],"outputs":[],"stateMutability":"nonpayable"},{"type":"function","name":"registerMediaByExternalId","inputs":[{"name":"kind","type":"uint8","internalType":"enum VeryMediaCompletion.MediaKind"},{"name":"externalId","type":"string","internalType":"string"},{"name":"uri","type":"string","internalType":"string"}],"outputs":[{"name":"mediaId","type":"bytes32","internalType":"bytes32"}],"stateMutability":"nonpayable"},{"type":"function","name":"renounceOwnership","inputs":[],"outputs":[],"stateMutability":"nonpayable"},{"type":"function","name":"safeTransferFrom","inputs":[{"name":"from","type":"address","internalType":"address"},{"name":"to","type":"address","internalType":"address"},{"name":"tokenId","type":"uint256","internalType":"uint256"}],"outputs":[],"stateMutability":"nonpayable"},{"type":"function","name":"safeTransferFrom","inputs":[{"name":"from","type":"address","internalType":"address"},{"name":"to","type":"address","internalType":"address"},{"name":"tokenId","type":"uint256","internalType":"uint256"},{"name":"data","type":"bytes","internalType":"bytes"}],"outputs":[],"stateMutability":"nonpayable"},{"type":"function","name":"setApprovalForAll","inputs":[{"name":"","type":"address","internalType":"address"},{"name":"","type":"bool","internalType":"bool"}],"outputs":[],"stateMutability":"pure"},{"type":"function","name":"setBaseURI","inputs":[{"name":"baseURI_","type":"string","internalType":"string"}],"outputs":[],"stateMutability":"nonpayable"},{"type":"function","name":"setMediaKind","inputs":[{"name":"mediaId","type":"bytes32","internalType":"bytes32"},{"name":"kind","type":"uint8","internalType":"enum VeryMediaCompletion.MediaKind"}],"outputs":[],"stateMutability":"nonpayable"},{"type":"function","name":"setMediaURI","inputs":[{"name":"mediaId","type":"bytes32","internalType":"bytes32"},{"name":"uri","type":"string","internalType":"string"}],"outputs":[],"stateMutability":"nonpayable"},{"type":"function","name":"setRegistrar","inputs":[{"name":"registrar","type":"address","internalType":"address"},{"name":"allowed","type":"bool","internalType":"bool"}],"outputs":[],"stateMutability":"nonpayable"},{"type":"function","name":"supportsInterface","inputs":[{"name":"interfaceId","type":"bytes4","internalType":"bytes4"}],"outputs":[{"name":"","type":"bool","internalType":"bool"}],"stateMutability":"view"},{"type":"function","name":"symbol","inputs":[],"outputs":[{"name":"","type":"string","internalType":"string"}],"stateMutability":"view"},{"type":"function","name":"tokenMediaId","inputs":[{"name":"tokenId","type":"uint256","internalType":"uint256"}],"outputs":[{"name":"mediaId","type":"bytes32","internalType":"bytes32"}],"stateMutability":"view"},{"type":"function","name":"tokenURI","inputs":[{"name":"tokenId","type":"uint256","internalType":"uint256"}],"outputs":[{"name":"","type":"string","internalType":"string"}],"stateMutability":"view"},{"type":"function","name":"transferFrom","inputs":[{"name":"from","type":"address","internalType":"address"},{"name":"to","type":"address","internalType":"address"},{"name":"tokenId","type":"uint256","internalType":"uint256"}],"outputs":[],"stateMutability":"nonpayable"},{"type":"function","name":"transferOwnership","inputs":[{"name":"newOwner","type":"address","internalType":"address"}],"outputs":[],"stateMutability":"nonpayable"},{"type":"function","name":"userTokenIds","inputs":[{"name":"user","type":"address","internalType":"address"}],"outputs":[{"name":"","type":"uint256[]","internalType":"uint256[]"}],"stateMutability":"view"},{"type":"event","name":"Approval","inputs":[{"name":"owner","type":"address","indexed":true,"internalType":"address"},{"name":"approved","type":"address","indexed":true,"internalType":"address"},{"name":"tokenId","type":"uint256","indexed":true,"internalType":"uint256"}],"anonymous":false},{"type":"event","name":"ApprovalForAll","inputs":[{"name":"owner","type":"address","indexed":true,"internalType":"address"},{"name":"operator","type":"address","indexed":true,"internalType":"address"},{"name":"approved","type":"bool","indexed":false,"internalType":"bool"}],"anonymous":false},{"type":"event","name":"BaseURISet","inputs":[{"name":"baseURI","type":"string","indexed":false,"internalType":"string"}],"anonymous":false},{"type":"event","name":"GroupJoined","inputs":[{"name":"user","type":"address","indexed":true,"internalType":"address"},{"name":"mediaId","type":"bytes32","indexed":true,"internalType":"bytes32"}],"anonymous":false},{"type":"event","name":"GroupLeft","inputs":[{"name":"user","type":"address","indexed":true,"internalType":"address"},{"name":"mediaId","type":"bytes32","indexed":true,"internalType":"bytes32"}],"anonymous":false},{"type":"event","name":"MediaCompleted","inputs":[{"name":"user","type":"address","indexed":true,"internalType":"address"},{"name":"mediaId","type":"bytes32","indexed":true,"internalType":"bytes32"},{"name":"tokenId","type":"uint256","indexed":true,"internalType":"uint256"}],"anonymous":false},{"type":"event","name":"MediaKindSet","inputs":[{"name":"mediaId","type":"bytes32","indexed":true,"internalType":"bytes32"},{"name":"kind","type":"uint8","indexed":true,"internalType":"enum VeryMediaCompletion.MediaKind"}],"anonymous":false},{"type":"event","name":"MediaRegistered","inputs":[{"name":"mediaId","type":"bytes32","indexed":true,"internalType":"bytes32"},{"name":"kind","type":"uint8","indexed":true,"internalType":"enum VeryMediaCompletion.MediaKind"},{"name":"uri","type":"string","indexed":false,"internalType":"string"}],"anonymous":false},{"type":"event","name":"MediaURISet","inputs":[{"name":"mediaId","type":"bytes32","indexed":true,"internalType":"bytes32"},{"name":"uri","type":"string","indexed":false,"internalType":"string"}],"anonymous":false},{"type":"event","name":"OwnershipTransferred","inputs":[{"name":"previousOwner","type":"address","indexed":true,"internalType":"address"},{"name":"newOwner","type":"address","indexed":true,"internalType":"address"}],"anonymous":false},{"type":"event","name":"RegistrarSet","inputs":[{"name":"registrar","type":"address","indexed":true,"internalType":"address"},{"name":"allowed","type":"bool","indexed":false,"internalType":"bool"}],"anonymous":false},{"type":"event","name":"Transfer","inputs":[{"name":"from","type":"address","indexed":true,"internalType":"address"},{"name":"to","type":"address","indexed":true,"internalType":"address"},{"name":"tokenId","type":"uint256","indexed":true,"internalType":"uint256"}],"anonymous":false},{"type":"error","name":"AlreadyCompleted","inputs":[{"name":"user","type":"address","internalType":"address"},{"name":"mediaId","type":"bytes32","internalType":"bytes32"}]},{"type":"error","name":"ERC721IncorrectOwner","inputs":[{"name":"sender","type":"address","internalType":"address"},{"name":"tokenId","type":"uint256","internalType":"uint256"},{"name":"owner","type":"address","internalType":"address"}]},{"type":"error","name":"ERC721InsufficientApproval","inputs":[{"name":"operator","type":"address","internalType":"address"},{"name":"tokenId","type":"uint256","internalType":"uint256"}]},{"type":"error","name":"ERC721InvalidApprover","inputs":[{"name":"approver","type":"address","internalType":"address"}]},{"type":"error","name":"ERC721InvalidOperator","inputs":[{"name":"operator","type":"address","internalType":"address"}]},{"type":"error","name":"ERC721InvalidOwner","inputs":[{"name":"owner","type":"address","internalType":"address"}]},{"type":"error","name":"ERC721InvalidReceiver","inputs":[{"name":"receiver","type":"address","internalType":"address"}]},{"type":"error","name":"ERC721InvalidSender","inputs":[{"name":"sender","type":"address","internalType":"address"}]},{"type":"error","name":"ERC721NonexistentToken","inputs":[{"name":"tokenId","type":"uint256","internalType":"uint256"}]},{"type":"error","name":"MediaAlreadyRegistered","inputs":[{"name":"mediaId","type":"bytes32","internalType":"bytes32"}]},{"type":"error","name":"MediaNotRegistered","inputs":[{"name":"mediaId","type":"bytes32","internalType":"bytes32"}]},{"type":"error","name":"NonTransferable","inputs":[]},{"type":"error","name":"NotCompleted","inputs":[{"name":"user","type":"address","internalType":"address"},{"name":"mediaId","type":"bytes32","internalType":"bytes32"}]},{"type":"error","name":"NotGroupMember","inputs":[{"name":"user","type":"address","internalType":"address"},{"name":"mediaId","type":"bytes32","internalType":"bytes32"}]},{"type":"error","name":"NotRegistrar","inputs":[{"name":"caller","type":"address","internalType":"address"}]},{"type":"error","name":"NotTokenOwner","inputs":[{"name":"user","type":"address","internalType":"address"},{"name":"tokenId","type":"uint256","internalType":"uint256"}]},{"type":"error","name":"OwnableInvalidOwner","inputs":[{"name":"owner","type":"address","internalType":"address"}]},{"type":"error","name":"OwnableUnauthorizedAccount","inputs":[{"name":"account","type":"address","internalType":"address"}]},{"type":"error","name":"StringsInsufficientHexLength","inputs":[{"name":"value","type":"uint256","internalType":"uint256"},{"name":"length","type":"uint256","internalType":"uint256"}]}],"bytecode":{"object":"0x60806040526001600755348015610014575f5ffd5b5060405161538538038061538583398181016040528101906100369190610394565b818484815f9081610047919061065c565b508060019081610057919061065c565b5050505f73ffffffffffffffffffffffffffffffffffffffff168173ffffffffffffffffffffffffffffffffffffffff16036100ca575f6040517f1e4fbdf70000000000000000000000000000000000000000000000000000000081526004016100c1919061073a565b60405180910390fd5b6100d98161012a60201b60201c565b5080600890816100e9919061065c565b507ff9c7803e94e0d3c02900d8a90893a6d5e90dd04d32a4cfe825520f82bf9f32f681604051610119919061079b565b60405180910390a1505050506107bb565b5f60065f9054906101000a900473ffffffffffffffffffffffffffffffffffffffff1690508160065f6101000a81548173ffffffffffffffffffffffffffffffffffffffff021916908373ffffffffffffffffffffffffffffffffffffffff1602179055508173ffffffffffffffffffffffffffffffffffffffff168173ffffffffffffffffffffffffffffffffffffffff167f8be0079c531659141344cd1fd0a4f28419497f9722a3daafe3b4186f6b6457e060405160405180910390a35050565b5f604051905090565b5f5ffd5b5f5ffd5b5f5ffd5b5f5ffd5b5f601f19601f8301169050919050565b7f4e487b71000000000000000000000000000000000000000000000000000000005f52604160045260245ffd5b61024c82610206565b810181811067ffffffffffffffff8211171561026b5761026a610216565b5b80604052505050565b5f61027d6101ed565b90506102898282610243565b919050565b5f67ffffffffffffffff8211156102a8576102a7610216565b5b6102b182610206565b9050602081019050919050565b8281835e5f83830152505050565b5f6102de6102d98461028e565b610274565b9050828152602081018484840111156102fa576102f9610202565b5b6103058482856102be565b509392505050565b5f82601f830112610321576103206101fe565b5b81516103318482602086016102cc565b91505092915050565b5f73ffffffffffffffffffffffffffffffffffffffff82169050919050565b5f6103638261033a565b9050919050565b61037381610359565b811461037d575f5ffd5b50565b5f8151905061038e8161036a565b92915050565b5f5f5f5f608085870312156103ac576103ab6101f6565b5b5f85015167ffffffffffffffff8111156103c9576103c86101fa565b5b6103d58782880161030d565b945050602085015167ffffffffffffffff8111156103f6576103f56101fa565b5b6104028782880161030d565b935050604061041387828801610380565b925050606085015167ffffffffffffffff811115610434576104336101fa565b5b6104408782880161030d565b91505092959194509250565b5f81519050919050565b7f4e487b71000000000000000000000000000000000000000000000000000000005f52602260045260245ffd5b5f600282049050600182168061049a57607f821691505b6020821081036104ad576104ac610456565b5b50919050565b5f819050815f5260205f209050919050565b5f6020601f8301049050919050565b5f82821b905092915050565b5f6008830261050f7fffffffffffffffffffffffffffffffffffffffffffffffffffffffffffffffff826104d4565b61051986836104d4565b95508019841693508086168417925050509392505050565b5f819050919050565b5f819050919050565b5f61055d61055861055384610531565b61053a565b610531565b9050919050565b5f819050919050565b61057683610543565b61058a61058282610564565b8484546104e0565b825550505050565b5f5f905090565b6105a1610592565b6105ac81848461056d565b505050565b5b818110156105cf576105c45f82610599565b6001810190506105b2565b5050565b601f821115610614576105e5816104b3565b6105ee846104c5565b810160208510156105fd578190505b610611610609856104c5565b8301826105b1565b50505b505050565b5f82821c905092915050565b5f6106345f1984600802610619565b1980831691505092915050565b5f61064c8383610625565b9150826002028217905092915050565b6106658261044c565b67ffffffffffffffff81111561067e5761067d610216565b5b6106888254610483565b6106938282856105d3565b5f60209050601f8311600181146106c4575f84156106b2578287015190505b6106bc8582610641565b865550610723565b601f1984166106d2866104b3565b5f5b828110156106f9578489015182556001820191506020850194506020810190506106d4565b868310156107165784890151610712601f891682610625565b8355505b6001600288020188555050505b505050505050565b61073481610359565b82525050565b5f60208201905061074d5f83018461072b565b92915050565b5f82825260208201905092915050565b5f61076d8261044c565b6107778185610753565b93506107878185602086016102be565b61079081610206565b840191505092915050565b5f6020820190508181035f8301526107b38184610763565b905092915050565b614bbd806107c85f395ff3fe608060405234801561000f575f5ffd5b5060043610610246575f3560e01c806375794a3c11610139578063c87b56dd116100b6578063e985e9c51161007a578063e985e9c514610792578063eef49337146107c2578063f2fde38b146107f2578063f931544b1461080e578063fb0135d11461082a57610246565b8063c87b56dd146106a2578063cb3022ff146106d2578063d5db72eb14610702578063e349566c14610732578063e8c403921461076257610246565b806395d89b41116100fd57806395d89b4114610600578063a22cb4651461061e578063a483e6141461063a578063b88d4fde1461066a578063c1bf1dcf1461068657610246565b806375794a3c1461054857806380f66a691461056657806383ccfb84146105825780638c7ddefc146105b25780638da5cb5b146105e257610246565b806342842e0e116101c757806355f804b31161018b57806355f804b31461049257806360f55375146104ae5780636352211e146104de57806370a082311461050e578063715018a61461053e57610246565b806342842e0e146103ca57806342966c68146103e657806344e406e4146104025780634dde71051461043257806351be10d61461046257610246565b806317c6f2de1161020e57806317c6f2de146103165780631f24040e1461033257806323b872dd146103625780633e536cc11461037e5780633f0ccf6a146103ae57610246565b806301ffc9a71461024a57806303c45cf51461027a57806306fdde03146102ac578063081812fc146102ca578063095ea7b3146102fa575b5f5ffd5b610264600480360381019061025f91906138cb565b610846565b6040516102719190613910565b60405180910390f35b610294600480360381019061028f919061395c565b610927565b6040516102a393929190613a6a565b60405180910390f35b6102b46109fc565b6040516102c19190613aa6565b60405180910390f35b6102e460048036038101906102df9190613af9565b610a8b565b6040516102f19190613b63565b60405180910390f35b610314600480360381019061030f9190613ba6565b610aa6565b005b610330600480360381019061032b9190613c07565b610ad8565b005b61034c60048036038101906103479190613ca6565b610bc0565b6040516103599190613d46565b60405180910390f35b61037c60048036038101906103779190613d5f565b610d78565b005b61039860048036038101906103939190613daf565b610e77565b6040516103a59190613d46565b60405180910390f35b6103c860048036038101906103c39190613e0c565b610eac565b005b6103e460048036038101906103df9190613d5f565b610f79565b005b61040060048036038101906103fb9190613af9565b610f98565b005b61041c60048036038101906104179190613daf565b6110ab565b6040516104299190613e78565b60405180910390f35b61044c60048036038101906104479190613e91565b6110c8565b6040516104599190613e78565b60405180910390f35b61047c60048036038101906104779190613af9565b6110e8565b6040516104899190613d46565b60405180910390f35b6104ac60048036038101906104a79190613ecf565b6110fd565b005b6104c860048036038101906104c39190613e91565b611154565b6040516104d59190613910565b60405180910390f35b6104f860048036038101906104f39190613af9565b611204565b6040516105059190613b63565b60405180910390f35b61052860048036038101906105239190613f1a565b611215565b6040516105359190613e78565b60405180910390f35b6105466112cb565b005b6105506112de565b60405161055d9190613e78565b60405180910390f35b610580600480360381019061057b9190613f45565b6112e4565b005b61059c6004803603810190610597919061395c565b61148b565b6040516105a99190613e78565b60405180910390f35b6105cc60048036038101906105c79190613fb6565b611806565b6040516105d99190613910565b60405180910390f35b6105ea6118b8565b6040516105f79190613b63565b60405180910390f35b6106086118e0565b6040516106159190613aa6565b60405180910390f35b61063860048036038101906106339190614030565b611970565b005b610654600480360381019061064f919061395c565b6119a2565b6040516106619190613e78565b60405180910390f35b610684600480360381019061067f9190614196565b6119bf565b005b6106a0600480360381019061069b9190614030565b6119e4565b005b6106bc60048036038101906106b79190613af9565b611a92565b6040516106c99190613aa6565b60405180910390f35b6106ec60048036038101906106e79190614216565b611bd1565b6040516106f99190613910565b60405180910390f35b61071c60048036038101906107179190613f1a565b611c2a565b6040516107299190613910565b60405180910390f35b61074c60048036038101906107479190613e91565b611c47565b6040516107599190613910565b60405180910390f35b61077c60048036038101906107779190613f1a565b611ca0565b604051610789919061430b565b60405180910390f35b6107ac60048036038101906107a7919061432b565b611d33565b6040516107b99190613910565b60405180910390f35b6107dc60048036038101906107d79190614369565b611dc1565b6040516107e99190613b63565b60405180910390f35b61080c60048036038101906108079190613f1a565b611e15565b005b6108286004803603810190610823919061395c565b611e99565b005b610844600480360381019061083f919061395c565b61216c565b005b5f7f80ac58cd000000000000000000000000000000000000000000000000000000007bffffffffffffffffffffffffffffffffffffffffffffffffffffffff1916827bffffffffffffffffffffffffffffffffffffffffffffffffffffffff1916148061091057507f5b5e139f000000000000000000000000000000000000000000000000000000007bffffffffffffffffffffffffffffffffffffffffffffffffffffffff1916827bffffffffffffffffffffffffffffffffffffffffffffffffffffffff1916145b80610920575061091f8261220b565b5b9050919050565b5f5f60605f60095f8681526020019081526020015f209050805f0160019054906101000a900460ff16815f015f9054906101000a900460ff1682600101808054610970906143d4565b80601f016020809104026020016040519081016040528092919081815260200182805461099c906143d4565b80156109e75780601f106109be576101008083540402835291602001916109e7565b820191905f5260205f20905b8154815290600101906020018083116109ca57829003601f168201915b50505050509050935093509350509193909250565b60605f8054610a0a906143d4565b80601f0160208091040260200160405190810160405280929190818152602001828054610a36906143d4565b8015610a815780601f10610a5857610100808354040283529160200191610a81565b820191905f5260205f20905b815481529060010190602001808311610a6457829003601f168201915b5050505050905090565b5f610a9582612274565b50610a9f826122fa565b9050919050565b6040517f9cbe235700000000000000000000000000000000000000000000000000000000815260040160405180910390fd5b610ae0612333565b60095f8381526020019081526020015f205f0160019054906101000a900460ff16610b4257816040517f5f561149000000000000000000000000000000000000000000000000000000008152600401610b399190613d46565b60405180910390fd5b8060095f8481526020019081526020015f205f015f6101000a81548160ff02191690836006811115610b7757610b76613987565b5b0217905550806006811115610b8f57610b8e613987565b5b827f5e58f607797e522f8927a1276deb9767f5bbf3d3183b2f0b475a9f662a8155fb60405160405180910390a35050565b5f610bc9612333565b610bd4868686610e77565b905060095f8281526020019081526020015f205f0160019054906101000a900460ff1615610c3957806040517f7d4acef4000000000000000000000000000000000000000000000000000000008152600401610c309190613d46565b60405180910390fd5b6040518060600160405280876006811115610c5757610c56613987565b5b815260200160011515815260200184848080601f0160208091040260200160405190810160405280939291908181526020018383808284375f81840152601f19601f8201169050808301925050505050505081525060095f8381526020019081526020015f205f820151815f015f6101000a81548160ff02191690836006811115610ce557610ce4613987565b5b02179055506020820151815f0160016101000a81548160ff0219169083151502179055506040820151816001019081610d1e91906145a4565b50905050856006811115610d3557610d34613987565b5b817f21180c14d4f0df793d818669c5da02b6b12e747ecbad50fd973a1bf7247af5c68585604051610d6792919061469f565b60405180910390a395945050505050565b5f73ffffffffffffffffffffffffffffffffffffffff168273ffffffffffffffffffffffffffffffffffffffff1603610de8575f6040517f64a0ae92000000000000000000000000000000000000000000000000000000008152600401610ddf9190613b63565b60405180910390fd5b5f610dfb8383610df6612401565b612408565b90508373ffffffffffffffffffffffffffffffffffffffff168173ffffffffffffffffffffffffffffffffffffffff1614610e71578382826040517f64283d7b000000000000000000000000000000000000000000000000000000008152600401610e68939291906146c1565b60405180910390fd5b50505050565b5f838383604051602001610e8d939291906146f6565b6040516020818303038152906040528051906020012090509392505050565b610eb46124c9565b60095f8481526020019081526020015f205f0160019054906101000a900460ff16610f1657826040517f5f561149000000000000000000000000000000000000000000000000000000008152600401610f0d9190613d46565b60405180910390fd5b818160095f8681526020019081526020015f206001019182610f39929190614730565b50827f128d101613c44f2aae6cacfa4019f25a11aa46b307c8cd82b14d73f0c673bd9e8383604051610f6c92919061469f565b60405180910390a2505050565b610f9383838360405180602001604052805f8152506119bf565b505050565b3373ffffffffffffffffffffffffffffffffffffffff16610fb882611204565b73ffffffffffffffffffffffffffffffffffffffff16146110125733816040517f58a5e2220000000000000000000000000000000000000000000000000000000081526004016110099291906147fd565b60405180910390fd5b5f600a5f8381526020019081526020015f20549050600a5f8381526020019081526020015f205f9055600b5f3373ffffffffffffffffffffffffffffffffffffffff1673ffffffffffffffffffffffffffffffffffffffff1681526020019081526020015f205f8281526020019081526020015f205f90556110943383612550565b61109e33826127e1565b6110a782612a7d565b5050565b5f6110bf6110ba858585610e77565b61148b565b90509392505050565b600b602052815f5260405f20602052805f5260405f205f91509150505481565b600a602052805f5260405f205f915090505481565b6111056124c9565b818160089182611116929190614730565b507ff9c7803e94e0d3c02900d8a90893a6d5e90dd04d32a4cfe825520f82bf9f32f6828260405161114892919061469f565b60405180910390a15050565b5f5f600b5f8573ffffffffffffffffffffffffffffffffffffffff1673ffffffffffffffffffffffffffffffffffffffff1681526020019081526020015f205f8481526020019081526020015f2054141580156111fc57505f600f5f8481526020019081526020015f205f8573ffffffffffffffffffffffffffffffffffffffff1673ffffffffffffffffffffffffffffffffffffffff1681526020019081526020015f2054145b905092915050565b5f61120e82612274565b9050919050565b5f5f73ffffffffffffffffffffffffffffffffffffffff168273ffffffffffffffffffffffffffffffffffffffff1603611286575f6040517f89c62b6400000000000000000000000000000000000000000000000000000000815260040161127d9190613b63565b60405180910390fd5b60035f8373ffffffffffffffffffffffffffffffffffffffff1673ffffffffffffffffffffffffffffffffffffffff1681526020019081526020015f20549050919050565b6112d36124c9565b6112dc5f612aff565b565b60075481565b6112ec612333565b60095f8581526020019081526020015f205f0160019054906101000a900460ff161561134f57836040517f7d4acef40000000000000000000000000000000000000000000000000000000081526004016113469190613d46565b60405180910390fd5b604051806060016040528084600681111561136d5761136c613987565b5b815260200160011515815260200183838080601f0160208091040260200160405190810160405280939291908181526020018383808284375f81840152601f19601f8201169050808301925050505050505081525060095f8681526020019081526020015f205f820151815f015f6101000a81548160ff021916908360068111156113fb576113fa613987565b5b02179055506020820151815f0160016101000a81548160ff021916908315150217905550604082015181600101908161143491906145a4565b5090505082600681111561144b5761144a613987565b5b847f21180c14d4f0df793d818669c5da02b6b12e747ecbad50fd973a1bf7247af5c6848460405161147d92919061469f565b60405180910390a350505050565b5f60095f8381526020019081526020015f205f0160019054906101000a900460ff166115af5760405180606001604052805f60068111156114cf576114ce613987565b5b815260200160011515815260200160405180602001604052805f81525081525060095f8481526020019081526020015f205f820151815f015f6101000a81548160ff0219169083600681111561152857611527613987565b5b02179055506020820151815f0160016101000a81548160ff021916908315150217905550604082015181600101908161156191906145a4565b509050505f600681111561157857611577613987565b5b827f21180c14d4f0df793d818669c5da02b6b12e747ecbad50fd973a1bf7247af5c66040516115a690614847565b60405180910390a35b5f600b5f3373ffffffffffffffffffffffffffffffffffffffff1673ffffffffffffffffffffffffffffffffffffffff1681526020019081526020015f205f8481526020019081526020015f2054146116415733826040517f71d50c23000000000000000000000000000000000000000000000000000000008152600401611638929190614865565b60405180910390fd5b60075f815480929190611653906148b9565b91905055905081600a5f8381526020019081526020015f208190555080600b5f3373ffffffffffffffffffffffffffffffffffffffff1673ffffffffffffffffffffffffffffffffffffffff1681526020019081526020015f205f8481526020019081526020015f20819055506116ca3382612bc2565b600c5f3373ffffffffffffffffffffffffffffffffffffffff1673ffffffffffffffffffffffffffffffffffffffff1681526020019081526020015f2081908060018154018082558091505060019003905f5260205f20015f9091909190915055600c5f3373ffffffffffffffffffffffffffffffffffffffff1673ffffffffffffffffffffffffffffffffffffffff1681526020019081526020015f2080549050600d5f3373ffffffffffffffffffffffffffffffffffffffff1673ffffffffffffffffffffffffffffffffffffffff1681526020019081526020015f205f8381526020019081526020015f208190555080823373ffffffffffffffffffffffffffffffffffffffff167f0a52ef355ebfc3b1bbd9448fee4e157b2d4e5035421d4e6d3029d7e33cef727e60405160405180910390a4919050565b5f5f600b5f8673ffffffffffffffffffffffffffffffffffffffff1673ffffffffffffffffffffffffffffffffffffffff1681526020019081526020015f205f8481526020019081526020015f2054141580156118af57505f600b5f8573ffffffffffffffffffffffffffffffffffffffff1673ffffffffffffffffffffffffffffffffffffffff1681526020019081526020015f205f8481526020019081526020015f205414155b90509392505050565b5f60065f9054906101000a900473ffffffffffffffffffffffffffffffffffffffff16905090565b6060600180546118ef906143d4565b80601f016020809104026020016040519081016040528092919081815260200182805461191b906143d4565b80156119665780601f1061193d57610100808354040283529160200191611966565b820191905f5260205f20905b81548152906001019060200180831161194957829003601f168201915b5050505050905090565b6040517f9cbe235700000000000000000000000000000000000000000000000000000000815260040160405180910390fd5b5f600e5f8381526020019081526020015f20805490509050919050565b6119ca848484610d78565b6119de6119d5612401565b85858585612bdf565b50505050565b6119ec6124c9565b8060105f8473ffffffffffffffffffffffffffffffffffffffff1673ffffffffffffffffffffffffffffffffffffffff1681526020019081526020015f205f6101000a81548160ff0219169083151502179055508173ffffffffffffffffffffffffffffffffffffffff167fb5e93f625be9cf4b25a2f505df040e38bd35ed584b62730dd64b7eaf145e8c6e82604051611a869190613910565b60405180910390a25050565b6060611a9d82612274565b505f600a5f8481526020019081526020015f205490505f60095f8381526020019081526020015f206001018054611ad3906143d4565b80601f0160208091040260200160405190810160405280929190818152602001828054611aff906143d4565b8015611b4a5780601f10611b2157610100808354040283529160200191611b4a565b820191905f5260205f20905b815481529060010190602001808311611b2d57829003601f168201915b505050505090505f815114611b63578092505050611bcc565b5f611b6c612d8b565b90505f815103611b8f5760405180602001604052805f8152509350505050611bcc565b80611ba66020855f1c612e1b90919063ffffffff16565b604051602001611bb792919061493a565b60405160208183030381529060405293505050505b919050565b5f5f600f5f8581526020019081526020015f205f8473ffffffffffffffffffffffffffffffffffffffff1673ffffffffffffffffffffffffffffffffffffffff1681526020019081526020015f20541415905092915050565b6010602052805f5260405f205f915054906101000a900460ff1681565b5f5f600b5f8573ffffffffffffffffffffffffffffffffffffffff1673ffffffffffffffffffffffffffffffffffffffff1681526020019081526020015f205f8481526020019081526020015f20541415905092915050565b6060600c5f8373ffffffffffffffffffffffffffffffffffffffff1673ffffffffffffffffffffffffffffffffffffffff1681526020019081526020015f20805480602002602001604051908101604052809291908181526020018280548015611d2757602002820191905f5260205f20905b815481526020019060010190808311611d13575b50505050509050919050565b5f60055f8473ffffffffffffffffffffffffffffffffffffffff1673ffffffffffffffffffffffffffffffffffffffff1681526020019081526020015f205f8373ffffffffffffffffffffffffffffffffffffffff1673ffffffffffffffffffffffffffffffffffffffff1681526020019081526020015f205f9054906101000a900460ff16905092915050565b5f600e5f8481526020019081526020015f208281548110611de557611de461495d565b5b905f5260205f20015f9054906101000a900473ffffffffffffffffffffffffffffffffffffffff16905092915050565b611e1d6124c9565b5f73ffffffffffffffffffffffffffffffffffffffff168173ffffffffffffffffffffffffffffffffffffffff1603611e8d575f6040517f1e4fbdf7000000000000000000000000000000000000000000000000000000008152600401611e849190613b63565b60405180910390fd5b611e9681612aff565b50565b5f600f5f8381526020019081526020015f205f3373ffffffffffffffffffffffffffffffffffffffff1673ffffffffffffffffffffffffffffffffffffffff1681526020019081526020015f205490505f8103611f2f5733826040517f5edac199000000000000000000000000000000000000000000000000000000008152600401611f26929190614865565b60405180910390fd5b5f600182611f3d919061498a565b90505f6001600e5f8681526020019081526020015f2080549050611f61919061498a565b9050808214612080575f600e5f8681526020019081526020015f208281548110611f8e57611f8d61495d565b5b905f5260205f20015f9054906101000a900473ffffffffffffffffffffffffffffffffffffffff16905080600e5f8781526020019081526020015f208481548110611fdc57611fdb61495d565b5b905f5260205f20015f6101000a81548173ffffffffffffffffffffffffffffffffffffffff021916908373ffffffffffffffffffffffffffffffffffffffff16021790555060018361202e91906149bd565b600f5f8781526020019081526020015f205f8373ffffffffffffffffffffffffffffffffffffffff1673ffffffffffffffffffffffffffffffffffffffff1681526020019081526020015f2081905550505b600e5f8581526020019081526020015f208054806120a1576120a06149f0565b5b600190038181905f5260205f20015f6101000a81549073ffffffffffffffffffffffffffffffffffffffff02191690559055600f5f8581526020019081526020015f205f3373ffffffffffffffffffffffffffffffffffffffff1673ffffffffffffffffffffffffffffffffffffffff1681526020019081526020015f205f9055833373ffffffffffffffffffffffffffffffffffffffff167f43771741ded2837cf411975e50f291a36f7cb2d43b6b6359aa611180020cfbeb60405160405180910390a350505050565b5f600b5f3373ffffffffffffffffffffffffffffffffffffffff1673ffffffffffffffffffffffffffffffffffffffff1681526020019081526020015f205f8381526020019081526020015f2054036121fe5733816040517f9f64d5120000000000000000000000000000000000000000000000000000000081526004016121f5929190614865565b60405180910390fd5b6122083382613059565b50565b5f7f01ffc9a7000000000000000000000000000000000000000000000000000000007bffffffffffffffffffffffffffffffffffffffffffffffffffffffff1916827bffffffffffffffffffffffffffffffffffffffffffffffffffffffff1916149050919050565b5f5f61227f836131c9565b90505f73ffffffffffffffffffffffffffffffffffffffff168173ffffffffffffffffffffffffffffffffffffffff16036122f157826040517f7e2732890000000000000000000000000000000000000000000000000000000081526004016122e89190613e78565b60405180910390fd5b80915050919050565b5f60045f8381526020019081526020015f205f9054906101000a900473ffffffffffffffffffffffffffffffffffffffff169050919050565b61233b6118b8565b73ffffffffffffffffffffffffffffffffffffffff163373ffffffffffffffffffffffffffffffffffffffff16141580156123bd575060105f3373ffffffffffffffffffffffffffffffffffffffff1673ffffffffffffffffffffffffffffffffffffffff1681526020019081526020015f205f9054906101000a900460ff16155b156123ff57336040517f53ac4f070000000000000000000000000000000000000000000000000000000081526004016123f69190613b63565b60405180910390fd5b565b5f33905090565b5f5f612413846131c9565b90505f73ffffffffffffffffffffffffffffffffffffffff168173ffffffffffffffffffffffffffffffffffffffff161415801561247d57505f73ffffffffffffffffffffffffffffffffffffffff168573ffffffffffffffffffffffffffffffffffffffff1614155b156124b4576040517f9cbe235700000000000000000000000000000000000000000000000000000000815260040160405180910390fd5b6124bf858585613202565b9150509392505050565b6124d1612401565b73ffffffffffffffffffffffffffffffffffffffff166124ef6118b8565b73ffffffffffffffffffffffffffffffffffffffff161461254e57612512612401565b6040517f118cdaa70000000000000000000000000000000000000000000000000000000081526004016125459190613b63565b60405180910390fd5b565b5f600d5f8473ffffffffffffffffffffffffffffffffffffffff1673ffffffffffffffffffffffffffffffffffffffff1681526020019081526020015f205f8381526020019081526020015f205490505f81036125ad57506127dd565b5f6001826125bb919061498a565b90505f6001600c5f8773ffffffffffffffffffffffffffffffffffffffff1673ffffffffffffffffffffffffffffffffffffffff1681526020019081526020015f208054905061260b919061498a565b905080821461272a575f600c5f8773ffffffffffffffffffffffffffffffffffffffff1673ffffffffffffffffffffffffffffffffffffffff1681526020019081526020015f2082815481106126645761266361495d565b5b905f5260205f200154905080600c5f8873ffffffffffffffffffffffffffffffffffffffff1673ffffffffffffffffffffffffffffffffffffffff1681526020019081526020015f2084815481106126bf576126be61495d565b5b905f5260205f2001819055506001836126d891906149bd565b600d5f8873ffffffffffffffffffffffffffffffffffffffff1673ffffffffffffffffffffffffffffffffffffffff1681526020019081526020015f205f8381526020019081526020015f2081905550505b600c5f8673ffffffffffffffffffffffffffffffffffffffff1673ffffffffffffffffffffffffffffffffffffffff1681526020019081526020015f20805480612777576127766149f0565b5b600190038181905f5260205f20015f90559055600d5f8673ffffffffffffffffffffffffffffffffffffffff1673ffffffffffffffffffffffffffffffffffffffff1681526020019081526020015f205f8581526020019081526020015f205f90555050505b5050565b5f600f5f8381526020019081526020015f205f8473ffffffffffffffffffffffffffffffffffffffff1673ffffffffffffffffffffffffffffffffffffffff1681526020019081526020015f205490505f810361283e5750612a79565b5f60018261284c919061498a565b90505f6001600e5f8681526020019081526020015f2080549050612870919061498a565b905080821461298f575f600e5f8681526020019081526020015f20828154811061289d5761289c61495d565b5b905f5260205f20015f9054906101000a900473ffffffffffffffffffffffffffffffffffffffff16905080600e5f8781526020019081526020015f2084815481106128eb576128ea61495d565b5b905f5260205f20015f6101000a81548173ffffffffffffffffffffffffffffffffffffffff021916908373ffffffffffffffffffffffffffffffffffffffff16021790555060018361293d91906149bd565b600f5f8781526020019081526020015f205f8373ffffffffffffffffffffffffffffffffffffffff1673ffffffffffffffffffffffffffffffffffffffff1681526020019081526020015f2081905550505b600e5f8581526020019081526020015f208054806129b0576129af6149f0565b5b600190038181905f5260205f20015f6101000a81549073ffffffffffffffffffffffffffffffffffffffff02191690559055600f5f8581526020019081526020015f205f8673ffffffffffffffffffffffffffffffffffffffff1673ffffffffffffffffffffffffffffffffffffffff1681526020019081526020015f205f9055838573ffffffffffffffffffffffffffffffffffffffff167f43771741ded2837cf411975e50f291a36f7cb2d43b6b6359aa611180020cfbeb60405160405180910390a35050505b5050565b5f612a895f835f612408565b90505f73ffffffffffffffffffffffffffffffffffffffff168173ffffffffffffffffffffffffffffffffffffffff1603612afb57816040517f7e273289000000000000000000000000000000000000000000000000000000008152600401612af29190613e78565b60405180910390fd5b5050565b5f60065f9054906101000a900473ffffffffffffffffffffffffffffffffffffffff1690508160065f6101000a81548173ffffffffffffffffffffffffffffffffffffffff021916908373ffffffffffffffffffffffffffffffffffffffff1602179055508173ffffffffffffffffffffffffffffffffffffffff168173ffffffffffffffffffffffffffffffffffffffff167f8be0079c531659141344cd1fd0a4f28419497f9722a3daafe3b4186f6b6457e060405160405180910390a35050565b612bdb828260405180602001604052805f81525061340d565b5050565b5f8373ffffffffffffffffffffffffffffffffffffffff163b1115612d84578273ffffffffffffffffffffffffffffffffffffffff1663150b7a02868685856040518563ffffffff1660e01b8152600401612c3d9493929190614a6f565b6020604051808303815f875af1925050508015612c7857506040513d601f19601f82011682018060405250810190612c759190614acd565b60015b612cf9573d805f8114612ca6576040519150601f19603f3d011682016040523d82523d5f602084013e612cab565b606091505b505f815103612cf157836040517f64a0ae92000000000000000000000000000000000000000000000000000000008152600401612ce89190613b63565b60405180910390fd5b805160208201fd5b63150b7a0260e01b7bffffffffffffffffffffffffffffffffffffffffffffffffffffffff1916817bffffffffffffffffffffffffffffffffffffffffffffffffffffffff191614612d8257836040517f64a0ae92000000000000000000000000000000000000000000000000000000008152600401612d799190613b63565b60405180910390fd5b505b5050505050565b606060088054612d9a906143d4565b80601f0160208091040260200160405190810160405280929190818152602001828054612dc6906143d4565b8015612e115780601f10612de857610100808354040283529160200191612e11565b820191905f5260205f20905b815481529060010190602001808311612df457829003601f168201915b5050505050905090565b60605f8390505f6002846002612e319190614af8565b612e3b91906149bd565b67ffffffffffffffff811115612e5457612e53614072565b5b6040519080825280601f01601f191660200182016040528015612e865781602001600182028036833780820191505090505b5090507f3000000000000000000000000000000000000000000000000000000000000000815f81518110612ebd57612ebc61495d565b5b60200101907effffffffffffffffffffffffffffffffffffffffffffffffffffffffffffff191690815f1a9053507f780000000000000000000000000000000000000000000000000000000000000081600181518110612f2057612f1f61495d565b5b60200101907effffffffffffffffffffffffffffffffffffffffffffffffffffffffffffff191690815f1a9053505f6001856002612f5e9190614af8565b612f6891906149bd565b90505b6001811115613007577f3031323334353637383961626364656600000000000000000000000000000000600f841660108110612faa57612fa961495d565b5b1a60f81b828281518110612fc157612fc061495d565b5b60200101907effffffffffffffffffffffffffffffffffffffffffffffffffffffffffffff191690815f1a905350600483901c92508061300090614b39565b9050612f6b565b505f821461304e5784846040517fe22e27eb000000000000000000000000000000000000000000000000000000008152600401613045929190614b60565b60405180910390fd5b809250505092915050565b5f600f5f8381526020019081526020015f205f8473ffffffffffffffffffffffffffffffffffffffff1673ffffffffffffffffffffffffffffffffffffffff1681526020019081526020015f2054036131c557600e5f8281526020019081526020015f2082908060018154018082558091505060019003905f5260205f20015f9091909190916101000a81548173ffffffffffffffffffffffffffffffffffffffff021916908373ffffffffffffffffffffffffffffffffffffffff160217905550600e5f8281526020019081526020015f2080549050600f5f8381526020019081526020015f205f8473ffffffffffffffffffffffffffffffffffffffff1673ffffffffffffffffffffffffffffffffffffffff1681526020019081526020015f2081905550808273ffffffffffffffffffffffffffffffffffffffff167fec245c738c3c29fffbbe0748680bbf86b19b847eeaa723bfbeb563f44ab503f260405160405180910390a35b5050565b5f60025f8381526020019081526020015f205f9054906101000a900473ffffffffffffffffffffffffffffffffffffffff169050919050565b5f5f61320d846131c9565b90505f73ffffffffffffffffffffffffffffffffffffffff168373ffffffffffffffffffffffffffffffffffffffff161461324e5761324d818486613430565b5b5f73ffffffffffffffffffffffffffffffffffffffff168173ffffffffffffffffffffffffffffffffffffffff16146132d95761328d5f855f5f6134f3565b600160035f8373ffffffffffffffffffffffffffffffffffffffff1673ffffffffffffffffffffffffffffffffffffffff1681526020019081526020015f205f82825403925050819055505b5f73ffffffffffffffffffffffffffffffffffffffff168573ffffffffffffffffffffffffffffffffffffffff161461335857600160035f8773ffffffffffffffffffffffffffffffffffffffff1673ffffffffffffffffffffffffffffffffffffffff1681526020019081526020015f205f82825401925050819055505b8460025f8681526020019081526020015f205f6101000a81548173ffffffffffffffffffffffffffffffffffffffff021916908373ffffffffffffffffffffffffffffffffffffffff160217905550838573ffffffffffffffffffffffffffffffffffffffff168273ffffffffffffffffffffffffffffffffffffffff167fddf252ad1be2c89b69c2b068fc378daa952ba7f163c4a11628f55a4df523b3ef60405160405180910390a4809150509392505050565b61341783836136b2565b61342b613422612401565b5f858585612bdf565b505050565b61343b8383836137a5565b6134ee575f73ffffffffffffffffffffffffffffffffffffffff168373ffffffffffffffffffffffffffffffffffffffff16036134af57806040517f7e2732890000000000000000000000000000000000000000000000000000000081526004016134a69190613e78565b60405180910390fd5b81816040517f177e802f0000000000000000000000000000000000000000000000000000000081526004016134e59291906147fd565b60405180910390fd5b505050565b808061352b57505f73ffffffffffffffffffffffffffffffffffffffff168273ffffffffffffffffffffffffffffffffffffffff1614155b1561365d575f61353a84612274565b90505f73ffffffffffffffffffffffffffffffffffffffff168373ffffffffffffffffffffffffffffffffffffffff16141580156135a457508273ffffffffffffffffffffffffffffffffffffffff168173ffffffffffffffffffffffffffffffffffffffff1614155b80156135b757506135b58184611d33565b155b156135f957826040517fa9fbf51f0000000000000000000000000000000000000000000000000000000081526004016135f09190613b63565b60405180910390fd5b811561365b57838573ffffffffffffffffffffffffffffffffffffffff168273ffffffffffffffffffffffffffffffffffffffff167f8c5be1e5ebec7d5bd14f71427d1e84f3dd0314c0f7b2291e5b200ac8c7c3b92560405160405180910390a45b505b8360045f8581526020019081526020015f205f6101000a81548173ffffffffffffffffffffffffffffffffffffffff021916908373ffffffffffffffffffffffffffffffffffffffff16021790555050505050565b5f73ffffffffffffffffffffffffffffffffffffffff168273ffffffffffffffffffffffffffffffffffffffff1603613722575f6040517f64a0ae920000000000000000000000000000000000000000000000000000000081526004016137199190613b63565b60405180910390fd5b5f61372e83835f612408565b90505f73ffffffffffffffffffffffffffffffffffffffff168173ffffffffffffffffffffffffffffffffffffffff16146137a0575f6040517f73c6ac6e0000000000000000000000000000000000000000000000000000000081526004016137979190613b63565b60405180910390fd5b505050565b5f5f73ffffffffffffffffffffffffffffffffffffffff168373ffffffffffffffffffffffffffffffffffffffff161415801561385c57508273ffffffffffffffffffffffffffffffffffffffff168473ffffffffffffffffffffffffffffffffffffffff16148061381d575061381c8484611d33565b5b8061385b57508273ffffffffffffffffffffffffffffffffffffffff16613843836122fa565b73ffffffffffffffffffffffffffffffffffffffff16145b5b90509392505050565b5f604051905090565b5f5ffd5b5f5ffd5b5f7fffffffff0000000000000000000000000000000000000000000000000000000082169050919050565b6138aa81613876565b81146138b4575f5ffd5b50565b5f813590506138c5816138a1565b92915050565b5f602082840312156138e0576138df61386e565b5b5f6138ed848285016138b7565b91505092915050565b5f8115159050919050565b61390a816138f6565b82525050565b5f6020820190506139235f830184613901565b92915050565b5f819050919050565b61393b81613929565b8114613945575f5ffd5b50565b5f8135905061395681613932565b92915050565b5f602082840312156139715761397061386e565b5b5f61397e84828501613948565b91505092915050565b7f4e487b71000000000000000000000000000000000000000000000000000000005f52602160045260245ffd5b600781106139c5576139c4613987565b5b50565b5f8190506139d5826139b4565b919050565b5f6139e4826139c8565b9050919050565b6139f4816139da565b82525050565b5f81519050919050565b5f82825260208201905092915050565b8281835e5f83830152505050565b5f601f19601f8301169050919050565b5f613a3c826139fa565b613a468185613a04565b9350613a56818560208601613a14565b613a5f81613a22565b840191505092915050565b5f606082019050613a7d5f830186613901565b613a8a60208301856139eb565b8181036040830152613a9c8184613a32565b9050949350505050565b5f6020820190508181035f830152613abe8184613a32565b905092915050565b5f819050919050565b613ad881613ac6565b8114613ae2575f5ffd5b50565b5f81359050613af381613acf565b92915050565b5f60208284031215613b0e57613b0d61386e565b5b5f613b1b84828501613ae5565b91505092915050565b5f73ffffffffffffffffffffffffffffffffffffffff82169050919050565b5f613b4d82613b24565b9050919050565b613b5d81613b43565b82525050565b5f602082019050613b765f830184613b54565b92915050565b613b8581613b43565b8114613b8f575f5ffd5b50565b5f81359050613ba081613b7c565b92915050565b5f5f60408385031215613bbc57613bbb61386e565b5b5f613bc985828601613b92565b9250506020613bda85828601613ae5565b9150509250929050565b60078110613bf0575f5ffd5b50565b5f81359050613c0181613be4565b92915050565b5f5f60408385031215613c1d57613c1c61386e565b5b5f613c2a85828601613948565b9250506020613c3b85828601613bf3565b9150509250929050565b5f5ffd5b5f5ffd5b5f5ffd5b5f5f83601f840112613c6657613c65613c45565b5b8235905067ffffffffffffffff811115613c8357613c82613c49565b5b602083019150836001820283011115613c9f57613c9e613c4d565b5b9250929050565b5f5f5f5f5f60608688031215613cbf57613cbe61386e565b5b5f613ccc88828901613bf3565b955050602086013567ffffffffffffffff811115613ced57613cec613872565b5b613cf988828901613c51565b9450945050604086013567ffffffffffffffff811115613d1c57613d1b613872565b5b613d2888828901613c51565b92509250509295509295909350565b613d4081613929565b82525050565b5f602082019050613d595f830184613d37565b92915050565b5f5f5f60608486031215613d7657613d7561386e565b5b5f613d8386828701613b92565b9350506020613d9486828701613b92565b9250506040613da586828701613ae5565b9150509250925092565b5f5f5f60408486031215613dc657613dc561386e565b5b5f613dd386828701613bf3565b935050602084013567ffffffffffffffff811115613df457613df3613872565b5b613e0086828701613c51565b92509250509250925092565b5f5f5f60408486031215613e2357613e2261386e565b5b5f613e3086828701613948565b935050602084013567ffffffffffffffff811115613e5157613e50613872565b5b613e5d86828701613c51565b92509250509250925092565b613e7281613ac6565b82525050565b5f602082019050613e8b5f830184613e69565b92915050565b5f5f60408385031215613ea757613ea661386e565b5b5f613eb485828601613b92565b9250506020613ec585828601613948565b9150509250929050565b5f5f60208385031215613ee557613ee461386e565b5b5f83013567ffffffffffffffff811115613f0257613f01613872565b5b613f0e85828601613c51565b92509250509250929050565b5f60208284031215613f2f57613f2e61386e565b5b5f613f3c84828501613b92565b91505092915050565b5f5f5f5f60608587031215613f5d57613f5c61386e565b5b5f613f6a87828801613948565b9450506020613f7b87828801613bf3565b935050604085013567ffffffffffffffff811115613f9c57613f9b613872565b5b613fa887828801613c51565b925092505092959194509250565b5f5f5f60608486031215613fcd57613fcc61386e565b5b5f613fda86828701613b92565b9350506020613feb86828701613b92565b9250506040613ffc86828701613948565b9150509250925092565b61400f816138f6565b8114614019575f5ffd5b50565b5f8135905061402a81614006565b92915050565b5f5f604083850312156140465761404561386e565b5b5f61405385828601613b92565b92505060206140648582860161401c565b9150509250929050565b5f5ffd5b7f4e487b71000000000000000000000000000000000000000000000000000000005f52604160045260245ffd5b6140a882613a22565b810181811067ffffffffffffffff821117156140c7576140c6614072565b5b80604052505050565b5f6140d9613865565b90506140e5828261409f565b919050565b5f67ffffffffffffffff82111561410457614103614072565b5b61410d82613a22565b9050602081019050919050565b828183375f83830152505050565b5f61413a614135846140ea565b6140d0565b9050828152602081018484840111156141565761415561406e565b5b61416184828561411a565b509392505050565b5f82601f83011261417d5761417c613c45565b5b813561418d848260208601614128565b91505092915050565b5f5f5f5f608085870312156141ae576141ad61386e565b5b5f6141bb87828801613b92565b94505060206141cc87828801613b92565b93505060406141dd87828801613ae5565b925050606085013567ffffffffffffffff8111156141fe576141fd613872565b5b61420a87828801614169565b91505092959194509250565b5f5f6040838503121561422c5761422b61386e565b5b5f61423985828601613948565b925050602061424a85828601613b92565b9150509250929050565b5f81519050919050565b5f82825260208201905092915050565b5f819050602082019050919050565b61428681613ac6565b82525050565b5f614297838361427d565b60208301905092915050565b5f602082019050919050565b5f6142b982614254565b6142c3818561425e565b93506142ce8361426e565b805f5b838110156142fe5781516142e5888261428c565b97506142f0836142a3565b9250506001810190506142d1565b5085935050505092915050565b5f6020820190508181035f83015261432381846142af565b905092915050565b5f5f604083850312156143415761434061386e565b5b5f61434e85828601613b92565b925050602061435f85828601613b92565b9150509250929050565b5f5f6040838503121561437f5761437e61386e565b5b5f61438c85828601613948565b925050602061439d85828601613ae5565b9150509250929050565b7f4e487b71000000000000000000000000000000000000000000000000000000005f52602260045260245ffd5b5f60028204905060018216806143eb57607f821691505b6020821081036143fe576143fd6143a7565b5b50919050565b5f819050815f5260205f209050919050565b5f6020601f8301049050919050565b5f82821b905092915050565b5f600883026144607fffffffffffffffffffffffffffffffffffffffffffffffffffffffffffffffff82614425565b61446a8683614425565b95508019841693508086168417925050509392505050565b5f819050919050565b5f6144a56144a061449b84613ac6565b614482565b613ac6565b9050919050565b5f819050919050565b6144be8361448b565b6144d26144ca826144ac565b848454614431565b825550505050565b5f5f905090565b6144e96144da565b6144f48184846144b5565b505050565b5b818110156145175761450c5f826144e1565b6001810190506144fa565b5050565b601f82111561455c5761452d81614404565b61453684614416565b81016020851015614545578190505b61455961455185614416565b8301826144f9565b50505b505050565b5f82821c905092915050565b5f61457c5f1984600802614561565b1980831691505092915050565b5f614594838361456d565b9150826002028217905092915050565b6145ad826139fa565b67ffffffffffffffff8111156145c6576145c5614072565b5b6145d082546143d4565b6145db82828561451b565b5f60209050601f83116001811461460c575f84156145fa578287015190505b6146048582614589565b86555061466b565b601f19841661461a86614404565b5f5b828110156146415784890151825560018201915060208501945060208101905061461c565b8683101561465e578489015161465a601f89168261456d565b8355505b6001600288020188555050505b505050505050565b5f61467e8385613a04565b935061468b83858461411a565b61469483613a22565b840190509392505050565b5f6020820190508181035f8301526146b8818486614673565b90509392505050565b5f6060820190506146d45f830186613b54565b6146e16020830185613e69565b6146ee6040830184613b54565b949350505050565b5f6040820190506147095f8301866139eb565b818103602083015261471c818486614673565b9050949350505050565b5f82905092915050565b61473a8383614726565b67ffffffffffffffff81111561475357614752614072565b5b61475d82546143d4565b61476882828561451b565b5f601f831160018114614795575f8415614783578287013590505b61478d8582614589565b8655506147f4565b601f1984166147a386614404565b5f5b828110156147ca578489013582556001820191506020850194506020810190506147a5565b868310156147e757848901356147e3601f89168261456d565b8355505b6001600288020188555050505b50505050505050565b5f6040820190506148105f830185613b54565b61481d6020830184613e69565b9392505050565b50565b5f6148325f83613a04565b915061483d82614824565b5f82019050919050565b5f6020820190508181035f83015261485e81614827565b9050919050565b5f6040820190506148785f830185613b54565b6148856020830184613d37565b9392505050565b7f4e487b71000000000000000000000000000000000000000000000000000000005f52601160045260245ffd5b5f6148c382613ac6565b91507fffffffffffffffffffffffffffffffffffffffffffffffffffffffffffffffff82036148f5576148f461488c565b5b600182019050919050565b5f81905092915050565b5f614914826139fa565b61491e8185614900565b935061492e818560208601613a14565b80840191505092915050565b5f614945828561490a565b9150614951828461490a565b91508190509392505050565b7f4e487b71000000000000000000000000000000000000000000000000000000005f52603260045260245ffd5b5f61499482613ac6565b915061499f83613ac6565b92508282039050818111156149b7576149b661488c565b5b92915050565b5f6149c782613ac6565b91506149d283613ac6565b92508282019050808211156149ea576149e961488c565b5b92915050565b7f4e487b71000000000000000000000000000000000000000000000000000000005f52603160045260245ffd5b5f81519050919050565b5f82825260208201905092915050565b5f614a4182614a1d565b614a4b8185614a27565b9350614a5b818560208601613a14565b614a6481613a22565b840191505092915050565b5f608082019050614a825f830187613b54565b614a8f6020830186613b54565b614a9c6040830185613e69565b8181036060830152614aae8184614a37565b905095945050505050565b5f81519050614ac7816138a1565b92915050565b5f60208284031215614ae257614ae161386e565b5b5f614aef84828501614ab9565b91505092915050565b5f614b0282613ac6565b9150614b0d83613ac6565b9250828202614b1b81613ac6565b91508282048414831517614b3257614b3161488c565b5b5092915050565b5f614b4382613ac6565b91505f8203614b5557614b5461488c565b5b600182039050919050565b5f604082019050614b735f830185613e69565b614b806020830184613e69565b939250505056fea2646970667358221220b8f6a3f6601cda5a0c8575639c49ddb115b9a666d143ef3fee3718c3a9bfbcf364736f6c634300081e0033","linkReferences":{}},"methodIdentifiers":{"approve(address,uint256)":"095ea7b3","balanceOf(address)":"70a08231","burn(uint256)":"42966c68","canJoinGroup(address,bytes32)":"60f55375","canText(address,address,bytes32)":"8c7ddefc","complete(bytes32)":"83ccfb84","completeByExternalId(uint8,string)":"44e406e4","completionTokenId(address,bytes32)":"4dde7105","computeMediaId(uint8,string)":"3e536cc1","getApproved(uint256)":"081812fc","groupMemberAt(bytes32,uint256)":"eef49337","groupMemberCount(bytes32)":"a483e614","hasCompleted(address,bytes32)":"e349566c","isApprovedForAll(address,address)":"e985e9c5","isGroupMember(bytes32,address)":"cb3022ff","isRegistrar(address)":"d5db72eb","joinGroup(bytes32)":"fb0135d1","leaveGroup(bytes32)":"f931544b","mediaInfo(bytes32)":"03c45cf5","name()":"06fdde03","nextTokenId()":"75794a3c","owner()":"8da5cb5b","ownerOf(uint256)":"6352211e","registerMedia(bytes32,uint8,string)":"80f66a69","registerMediaByExternalId(uint8,string,string)":"1f24040e","renounceOwnership()":"715018a6","safeTransferFrom(address,address,uint256)":"42842e0e","safeTransferFrom(address,address,uint256,bytes)":"b88d4fde","setApprovalForAll(address,bool)":"a22cb465","setBaseURI(string)":"55f804b3","setMediaKind(bytes32,uint8)":"17c6f2de","setMediaURI(bytes32,string)":"3f0ccf6a","setRegistrar(address,bool)":"c1bf1dcf","supportsInterface(bytes4)":"01ffc9a7","symbol()":"95d89b41","tokenMediaId(uint256)":"51be10d6","tokenURI(uint256)":"c87b56dd","transferFrom(address,address,uint256)":"23b872dd","transferOwnership(address)":"f2fde38b","userTokenIds(address)":"e8c40392"},"id":35}