{"abi":[{"type":"constructor","inputs":[],"stateMutability":"nonpayable"},{"type":"function","name":"UPGRADE_INTERFACE_VERSION","inputs":[],"outputs":[{"name":"","type":"string","internalType":"string"}],"stateMutability":"view"},{"type":"function","name":"approve","inputs":[{"name":"","type":"address","internalType":"address"},{"name":"","type":"uint256","internalType":"uint256"}],"outputs":[],"stateMutability":"pure"},{"type":"function","name":"backend","inputs":[],"outputs":[{"name":"","type":"address","internalType":"address"}],"stateMutability":"view"},{"type":"function","name":"balanceOf","inputs":[{"name":"owner","type":"address","internalType":"address"}],"outputs":[{"name":"","type":"uint256","internalType":"uint256"}],"stateMutability":"view"},{"type":"function","name":"burn","inputs":[{"name":"tokenId","type":"uint256","internalType":"uint256"}],"outputs":[],"stateMutability":"nonpayable"},{"type":"function","name":"canJoinGroup","inputs":[{"name":"user","type":"address","internalType":"address"},{"name":"mediaId","type":"bytes32","internalType":"bytes32"}],"outputs":[{"name":"","type":"bool","internalType":"bool"}],"stateMutability":"view"},{"type":"function","name":"canText","inputs":[{"name":"from","type":"address","internalType":"address"},{"name":"to","type":"address","internalType":"address"},{"name":"mediaId","type":"bytes32","internalType":"bytes32"}],"outputs":[{"name":"","type":"bool","internalType":"bool"}],"stateMutability":"view"},{"type":"function","name":"completeAndRegisterByExternalId","inputs":[{"name":"to","type":"address","internalType":"address"},{"name":"kind","type":"uint8","internalType":"enum VeTerex.MediaKind"},{"name":"uri","type":"string","internalType":"string"},{"name":"name","type":"string","internalType":"string"}],"outputs":[{"name":"tokenId","type":"uint256","internalType":"uint256"}],"stateMutability":"nonpayable"},{"type":"function","name":"completionTokenId","inputs":[{"name":"user","type":"address","internalType":"address"},{"name":"mediaId","type":"bytes32","internalType":"bytes32"}],"outputs":[{"name":"tokenId","type":"uint256","internalType":"uint256"}],"stateMutability":"view"},{"type":"function","name":"computeMediaId","inputs":[{"name":"kind","type":"uint8","internalType":"enum VeTerex.MediaKind"},{"name":"uri","type":"string","internalType":"string"},{"name":"name","type":"string","internalType":"string"}],"outputs":[{"name":"","type":"bytes32","internalType":"bytes32"}],"stateMutability":"pure"},{"type":"function","name":"getApproved","inputs":[{"name":"tokenId","type":"uint256","internalType":"uint256"}],"outputs":[{"name":"","type":"address","internalType":"address"}],"stateMutability":"view"},{"type":"function","name":"getsimilars","inputs":[{"name":"user","type":"address","internalType":"address"},{"name":"_nft","type":"uint256[]","internalType":"uint256[]"}],"outputs":[{"name":"commonusers","type":"address[]","internalType":"address[]"}],"stateMutability":"view"},{"type":"function","name":"getsimilarsForToken","inputs":[{"name":"tokenId","type":"uint256","internalType":"uint256"}],"outputs":[{"name":"","type":"address[]","internalType":"address[]"}],"stateMutability":"view"},{"type":"function","name":"getsimilarsFromTokens","inputs":[{"name":"tokenIds","type":"uint256[]","internalType":"uint256[]"}],"outputs":[{"name":"","type":"address[]","internalType":"address[]"}],"stateMutability":"view"},{"type":"function","name":"getusernft","inputs":[{"name":"user","type":"address","internalType":"address"}],"outputs":[{"name":"userNfts","type":"uint256[]","internalType":"uint256[]"}],"stateMutability":"view"},{"type":"function","name":"groupMemberAt","inputs":[{"name":"mediaId","type":"bytes32","internalType":"bytes32"},{"name":"index","type":"uint256","internalType":"uint256"}],"outputs":[{"name":"","type":"address","internalType":"address"}],"stateMutability":"view"},{"type":"function","name":"groupMemberCount","inputs":[{"name":"mediaId","type":"bytes32","internalType":"bytes32"}],"outputs":[{"name":"","type":"uint256","internalType":"uint256"}],"stateMutability":"view"},{"type":"function","name":"hasCompleted","inputs":[{"name":"user","type":"address","internalType":"address"},{"name":"mediaId","type":"bytes32","internalType":"bytes32"}],"outputs":[{"name":"","type":"bool","internalType":"bool"}],"stateMutability":"view"},{"type":"function","name":"initialize","inputs":[{"name":"name_","type":"string","internalType":"string"},{"name":"symbol_","type":"string","internalType":"string"},{"name":"initialOwner","type":"address","internalType":"address"},{"name":"baseURI_","type":"string","internalType":"string"},{"name":"backend_","type":"address","internalType":"address"}],"outputs":[],"stateMutability":"nonpayable"},{"type":"function","name":"isApprovedForAll","inputs":[{"name":"owner","type":"address","internalType":"address"},{"name":"operator","type":"address","internalType":"address"}],"outputs":[{"name":"","type":"bool","internalType":"bool"}],"stateMutability":"view"},{"type":"function","name":"isGroupMember","inputs":[{"name":"mediaId","type":"bytes32","internalType":"bytes32"},{"name":"user","type":"address","internalType":"address"}],"outputs":[{"name":"","type":"bool","internalType":"bool"}],"stateMutability":"view"},{"type":"function","name":"isRegistrar","inputs":[{"name":"registrar","type":"address","internalType":"address"}],"outputs":[{"name":"allowed","type":"bool","internalType":"bool"}],"stateMutability":"view"},{"type":"function","name":"joinGroup","inputs":[{"name":"mediaId","type":"bytes32","internalType":"bytes32"}],"outputs":[],"stateMutability":"nonpayable"},{"type":"function","name":"leaveGroup","inputs":[{"name":"mediaId","type":"bytes32","internalType":"bytes32"}],"outputs":[],"stateMutability":"nonpayable"},{"type":"function","name":"mediaInfo","inputs":[{"name":"mediaId","type":"bytes32","internalType":"bytes32"}],"outputs":[{"name":"exists","type":"bool","internalType":"bool"},{"name":"kind","type":"uint8","internalType":"enum VeTerex.MediaKind"},{"name":"uri","type":"string","internalType":"string"}],"stateMutability":"view"},{"type":"function","name":"name","inputs":[],"outputs":[{"name":"","type":"string","internalType":"string"}],"stateMutability":"view"},{"type":"function","name":"nextTokenId","inputs":[],"outputs":[{"name":"","type":"uint256","internalType":"uint256"}],"stateMutability":"view"},{"type":"function","name":"owner","inputs":[],"outputs":[{"name":"","type":"address","internalType":"address"}],"stateMutability":"view"},{"type":"function","name":"ownerOf","inputs":[{"name":"tokenId","type":"uint256","internalType":"uint256"}],"outputs":[{"name":"","type":"address","internalType":"address"}],"stateMutability":"view"},{"type":"function","name":"proxiableUUID","inputs":[],"outputs":[{"name":"","type":"bytes32","internalType":"bytes32"}],"stateMutability":"view"},{"type":"function","name":"renounceOwnership","inputs":[],"outputs":[],"stateMutability":"nonpayable"},{"type":"function","name":"safeTransferFrom","inputs":[{"name":"from","type":"address","internalType":"address"},{"name":"to","type":"address","internalType":"address"},{"name":"tokenId","type":"uint256","internalType":"uint256"}],"outputs":[],"stateMutability":"nonpayable"},{"type":"function","name":"safeTransferFrom","inputs":[{"name":"from","type":"address","internalType":"address"},{"name":"to","type":"address","internalType":"address"},{"name":"tokenId","type":"uint256","internalType":"uint256"},{"name":"data","type":"bytes","internalType":"bytes"}],"outputs":[],"stateMutability":"nonpayable"},{"type":"function","name":"setApprovalForAll","inputs":[{"name":"","type":"address","internalType":"address"},{"name":"","type":"bool","internalType":"bool"}],"outputs":[],"stateMutability":"pure"},{"type":"function","name":"setBackend","inputs":[{"name":"backend_","type":"address","internalType":"address"}],"outputs":[],"stateMutability":"nonpayable"},{"type":"function","name":"setBaseURI","inputs":[{"name":"baseURI_","type":"string","internalType":"string"}],"outputs":[],"stateMutability":"nonpayable"},{"type":"function","name":"setMediaKind","inputs":[{"name":"mediaId","type":"bytes32","internalType":"bytes32"},{"name":"kind","type":"uint8","internalType":"enum VeTerex.MediaKind"}],"outputs":[],"stateMutability":"nonpayable"},{"type":"function","name":"setMediaURI","inputs":[{"name":"mediaId","type":"bytes32","internalType":"bytes32"},{"name":"uri","type":"string","internalType":"string"}],"outputs":[],"stateMutability":"nonpayable"},{"type":"function","name":"setRegistrar","inputs":[{"name":"registrar","type":"address","internalType":"address"},{"name":"allowed","type":"bool","internalType":"bool"}],"outputs":[],"stateMutability":"nonpayable"},{"type":"function","name":"supportsInterface","inputs":[{"name":"interfaceId","type":"bytes4","internalType":"bytes4"}],"outputs":[{"name":"","type":"bool","internalType":"bool"}],"stateMutability":"view"},{"type":"function","name":"symbol","inputs":[],"outputs":[{"name":"","type":"string","internalType":"string"}],"stateMutability":"view"},{"type":"function","name":"tokenMediaId","inputs":[{"name":"tokenId","type":"uint256","internalType":"uint256"}],"outputs":[{"name":"mediaId","type":"bytes32","internalType":"bytes32"}],"stateMutability":"view"},{"type":"function","name":"tokenURI","inputs":[{"name":"tokenId","type":"uint256","internalType":"uint256"}],"outputs":[{"name":"","type":"string","internalType":"string"}],"stateMutability":"view"},{"type":"function","name":"transferFrom","inputs":[{"name":"from","type":"address","internalType":"address"},{"name":"to","type":"address","internalType":"address"},{"name":"tokenId","type":"uint256","internalType":"uint256"}],"outputs":[],"stateMutability":"nonpayable"},{"type":"function","name":"transferOwnership","inputs":[{"name":"newOwner","type":"address","internalType":"address"}],"outputs":[],"stateMutability":"nonpayable"},{"type":"function","name":"upgradeTo","inputs":[{"name":"newImplementation","type":"address","internalType":"address"}],"outputs":[],"stateMutability":"payable"},{"type":"function","name":"upgradeToAndCall","inputs":[{"name":"newImplementation","type":"address","internalType":"address"},{"name":"data","type":"bytes","internalType":"bytes"}],"outputs":[],"stateMutability":"payable"},{"type":"function","name":"userTokenIds","inputs":[{"name":"user","type":"address","internalType":"address"}],"outputs":[{"name":"","type":"uint256[]","internalType":"uint256[]"}],"stateMutability":"view"},{"type":"event","name":"Approval","inputs":[{"name":"owner","type":"address","indexed":true,"internalType":"address"},{"name":"approved","type":"address","indexed":true,"internalType":"address"},{"name":"tokenId","type":"uint256","indexed":true,"internalType":"uint256"}],"anonymous":false},{"type":"event","name":"ApprovalForAll","inputs":[{"name":"owner","type":"address","indexed":true,"internalType":"address"},{"name":"operator","type":"address","indexed":true,"internalType":"address"},{"name":"approved","type":"bool","indexed":false,"internalType":"bool"}],"anonymous":false},{"type":"event","name":"BaseURISet","inputs":[{"name":"baseURI","type":"string","indexed":false,"internalType":"string"}],"anonymous":false},{"type":"event","name":"GroupJoined","inputs":[{"name":"user","type":"address","indexed":true,"internalType":"address"},{"name":"mediaId","type":"bytes32","indexed":true,"internalType":"bytes32"}],"anonymous":false},{"type":"event","name":"GroupLeft","inputs":[{"name":"user","type":"address","indexed":true,"internalType":"address"},{"name":"mediaId","type":"bytes32","indexed":true,"internalType":"bytes32"}],"anonymous":false},{"type":"event","name":"Initialized","inputs":[{"name":"version","type":"uint64","indexed":false,"internalType":"uint64"}],"anonymous":false},{"type":"event","name":"MediaCompleted","inputs":[{"name":"user","type":"address","indexed":true,"internalType":"address"},{"name":"mediaId","type":"bytes32","indexed":true,"internalType":"bytes32"},{"name":"tokenId","type":"uint256","indexed":true,"internalType":"uint256"}],"anonymous":false},{"type":"event","name":"MediaKindSet","inputs":[{"name":"mediaId","type":"bytes32","indexed":true,"internalType":"bytes32"},{"name":"kind","type":"uint8","indexed":true,"internalType":"enum VeTerex.MediaKind"}],"anonymous":false},{"type":"event","name":"MediaRegistered","inputs":[{"name":"mediaId","type":"bytes32","indexed":true,"internalType":"bytes32"},{"name":"kind","type":"uint8","indexed":true,"internalType":"enum VeTerex.MediaKind"},{"name":"uri","type":"string","indexed":false,"internalType":"string"}],"anonymous":false},{"type":"event","name":"MediaURISet","inputs":[{"name":"mediaId","type":"bytes32","indexed":true,"internalType":"bytes32"},{"name":"uri","type":"string","indexed":false,"internalType":"string"}],"anonymous":false},{"type":"event","name":"OwnershipTransferred","inputs":[{"name":"previousOwner","type":"address","indexed":true,"internalType":"address"},{"name":"newOwner","type":"address","indexed":true,"internalType":"address"}],"anonymous":false},{"type":"event","name":"RegistrarSet","inputs":[{"name":"registrar","type":"address","indexed":true,"internalType":"address"},{"name":"allowed","type":"bool","indexed":false,"internalType":"bool"}],"anonymous":false},{"type":"event","name":"Transfer","inputs":[{"name":"from","type":"address","indexed":true,"internalType":"address"},{"name":"to","type":"address","indexed":true,"internalType":"address"},{"name":"tokenId","type":"uint256","indexed":true,"internalType":"uint256"}],"anonymous":false},{"type":"event","name":"Upgraded","inputs":[{"name":"implementation","type":"address","indexed":true,"internalType":"address"}],"anonymous":false},{"type":"error","name":"AddressEmptyCode","inputs":[{"name":"target","type":"address","internalType":"address"}]},{"type":"error","name":"AlreadyCompleted","inputs":[{"name":"user","type":"address","internalType":"address"},{"name":"mediaId","type":"bytes32","internalType":"bytes32"}]},{"type":"error","name":"ERC1967InvalidImplementation","inputs":[{"name":"implementation","type":"address","internalType":"address"}]},{"type":"error","name":"ERC1967NonPayable","inputs":[]},{"type":"error","name":"ERC721IncorrectOwner","inputs":[{"name":"sender","type":"address","internalType":"address"},{"name":"tokenId","type":"uint256","internalType":"uint256"},{"name":"owner","type":"address","internalType":"address"}]},{"type":"error","name":"ERC721InsufficientApproval","inputs":[{"name":"operator","type":"address","internalType":"address"},{"name":"tokenId","type":"uint256","internalType":"uint256"}]},{"type":"error","name":"ERC721InvalidApprover","inputs":[{"name":"approver","type":"address","internalType":"address"}]},{"type":"error","name":"ERC721InvalidOperator","inputs":[{"name":"operator","type":"address","internalType":"address"}]},{"type":"error","name":"ERC721InvalidOwner","inputs":[{"name":"owner","type":"address","internalType":"address"}]},{"type":"error","name":"ERC721InvalidReceiver","inputs":[{"name":"receiver","type":"address","internalType":"address"}]},{"type":"error","name":"ERC721InvalidSender","inputs":[{"name":"sender","type":"address","internalType":"address"}]},{"type":"error","name":"ERC721NonexistentToken","inputs":[{"name":"tokenId","type":"uint256","internalType":"uint256"}]},{"type":"error","name":"FailedCall","inputs":[]},{"type":"error","name":"InvalidInitialization","inputs":[]},{"type":"error","name":"MediaAlreadyRegistered","inputs":[{"name":"mediaId","type":"bytes32","internalType":"bytes32"}]},{"type":"error","name":"MediaNotRegistered","inputs":[{"name":"mediaId","type":"bytes32","internalType":"bytes32"}]},{"type":"error","name":"NonTransferable","inputs":[]},{"type":"error","name":"NotBackend","inputs":[{"name":"caller","type":"address","internalType":"address"}]},{"type":"error","name":"NotCompleted","inputs":[{"name":"user","type":"address","internalType":"address"},{"name":"mediaId","type":"bytes32","internalType":"bytes32"}]},{"type":"error","name":"NotGroupMember","inputs":[{"name":"user","type":"address","internalType":"address"},{"name":"mediaId","type":"bytes32","internalType":"bytes32"}]},{"type":"error","name":"NotInitializing","inputs":[]},{"type":"error","name":"NotRegistrar","inputs":[{"name":"caller","type":"address","internalType":"address"}]},{"type":"error","name":"NotTokenOwner","inputs":[{"name":"user","type":"address","internalType":"address"},{"name":"tokenId","type":"uint256","internalType":"uint256"}]},{"type":"error","name":"OwnableInvalidOwner","inputs":[{"name":"owner","type":"address","internalType":"address"}]},{"type":"error","name":"OwnableUnauthorizedAccount","inputs":[{"name":"account","type":"address","internalType":"address"}]},{"type":"error","name":"StringsInsufficientHexLength","inputs":[{"name":"value","type":"uint256","internalType":"uint256"},{"name":"length","type":"uint256","internalType":"uint256"}]},{"type":"error","name":"UUPSUnauthorizedCallContext","inputs":[]},{"type":"error","name":"UUPSUnsupportedProxiableUUID","inputs":[{"name":"slot","type":"bytes32","internalType":"bytes32"}]}],"bytecode":{"object":"0x60a06040523060805234801561001457600080fd5b5061001d610022565b6100d4565b7ff0c57e16840df040f15088dc2f81fe391c3923bec73e23a9662efc9c229c6a00805468010000000000000000900460ff16156100725760405163f92ee8a960e01b815260040160405180910390fd5b80546001600160401b03908116146100d15780546001600160401b0319166001600160401b0390811782556040519081527fc7f505b2f371ae2175ee4913f4499e1f2633a7b5936321eed1cdaeb6115181d29060200160405180910390a15b50565b6080516141926100fd60003960008181611f9601528181611fbf01526125f101526141926000f3fe6080604052600436106102935760003560e01c80638c7ddefc1161015a578063d5db72eb116100c1578063e985e9c51161007a578063e985e9c514610890578063eef49337146108b0578063f2fde38b146108d0578063f931544b146108f0578063fb0135d114610910578063fe7c26cf1461093057600080fd5b8063d5db72eb146107ae578063da7fc24f146107de578063debdb91d146107fe578063df806be71461081e578063e349566c1461084b578063e8c403921461081e57600080fd5b8063b219f73911610113578063b219f739146106c9578063b88d4fde146106e9578063c1bf1dcf14610709578063c87b56dd14610729578063cb3022ff14610749578063d153af611461078e57600080fd5b80638c7ddefc146105de5780638da5cb5b146105fe57806395d89b411461063b578063a22cb46514610650578063a483e6141461066b578063ad3cb1cc1461069857600080fd5b806342842e0e116101fe57806355f804b3116101b757806355f804b31461053357806360f55375146105535780636352211e1461057357806370a0823114610593578063715018a6146105b357806375794a3c146105c857600080fd5b806342842e0e1461045857806342966c68146104785780634dde7105146104985780634f1ef286146104de57806351be10d6146104f157806352d1902d1461051e57600080fd5b8063099e413311610250578063099e4133146103a557806317c6f2de146103c557806323b872dd146103e557806328ccf844146104055780633659cfe6146104255780633f0ccf6a1461043857600080fd5b806301ffc9a71461029857806303c45cf5146102cd57806306fdde03146102fc57806307e237761461031e578063081812fc1461034b578063095ea7b314610383575b600080fd5b3480156102a457600080fd5b506102b86102b33660046135a0565b610950565b60405190151581526020015b60405180910390f35b3480156102d957600080fd5b506102ed6102e83660046135bd565b6109a2565b6040516102c49392919061365e565b34801561030857600080fd5b50610311610a65565b6040516102c49190613686565b34801561032a57600080fd5b5061033e6103393660046136e4565b610b09565b6040516102c49190613725565b34801561035757600080fd5b5061036b6103663660046135bd565b610b62565b6040516001600160a01b0390911681526020016102c4565b34801561038f57600080fd5b506103a361039e36600461378d565b610b77565b005b3480156103b157600080fd5b5060005461036b906001600160a01b031681565b3480156103d157600080fd5b506103a36103e03660046137c6565b610b90565b3480156103f157600080fd5b506103a36104003660046137f2565b610c45565b34801561041157600080fd5b506103a36104203660046138d9565b610cd0565b6103a361043336600461398c565b610e3c565b34801561044457600080fd5b506103a36104533660046139e8565b610e60565b34801561046457600080fd5b506103a36104733660046137f2565b610efb565b34801561048457600080fd5b506103a36104933660046135bd565b610f1b565b3480156104a457600080fd5b506104d06104b336600461378d565b600560209081526000928352604080842090915290825290205481565b6040519081526020016102c4565b6103a36104ec366004613a33565b610faf565b3480156104fd57600080fd5b506104d061050c3660046135bd565b60046020526000908152604090205481565b34801561052a57600080fd5b506104d0610fca565b34801561053f57600080fd5b506103a361054e366004613a80565b610fe7565b34801561055f57600080fd5b506102b861056e36600461378d565b61103a565b34801561057f57600080fd5b5061036b61058e3660046135bd565b611093565b34801561059f57600080fd5b506104d06105ae36600461398c565b61109e565b3480156105bf57600080fd5b506103a36110fa565b3480156105d457600080fd5b506104d060015481565b3480156105ea57600080fd5b506102b86105f93660046137f2565b61110e565b34801561060a57600080fd5b507f9016d09d72d40fdae2fd8ceac6b6234c7706214fd39c1cd1e609a0528c199300546001600160a01b031661036b565b34801561064757600080fd5b50610311611168565b34801561065c57600080fd5b506103a361039e366004613ab5565b34801561067757600080fd5b506104d06106863660046135bd565b6000908152600a602052604090205490565b3480156106a457600080fd5b50610311604051806040016040528060058152602001640352e302e360dc1b81525081565b3480156106d557600080fd5b506104d06106e4366004613af1565b6111a7565b3480156106f557600080fd5b506103a3610704366004613b75565b6111e3565b34801561071557600080fd5b506103a3610724366004613ab5565b6111fb565b34801561073557600080fd5b506103116107443660046135bd565b611262565b34801561075557600080fd5b506102b8610764366004613bdc565b6000918252600b602090815260408084206001600160a01b03939093168452919052902054151590565b34801561079a57600080fd5b506104d06107a9366004613bff565b61138e565b3480156107ba57600080fd5b506102b86107c936600461398c565b600c6020526000908152604090205460ff1681565b3480156107ea57600080fd5b506103a36107f936600461398c565b611562565b34801561080a57600080fd5b5061033e610819366004613c93565b61158c565b34801561082a57600080fd5b5061083e61083936600461398c565b61197b565b6040516102c49190613cd8565b34801561085757600080fd5b506102b861086636600461378d565b6001600160a01b039190911660009081526005602090815260408083209383529290522054151590565b34801561089c57600080fd5b506102b86108ab366004613d10565b6119e7565b3480156108bc57600080fd5b5061036b6108cb366004613d3a565b611a34565b3480156108dc57600080fd5b506103a36108eb36600461398c565b611a70565b3480156108fc57600080fd5b506103a361090b3660046135bd565b611aab565b34801561091c57600080fd5b506103a361092b3660046135bd565b611c62565b34801561093c57600080fd5b5061033e61094b3660046135bd565b611caf565b60006001600160e01b031982166380ac58cd60e01b148061098157506001600160e01b03198216635b5e139f60e01b145b8061099c57506301ffc9a760e01b6001600160e01b03198316145b92915050565b600081815260036020526040812080546001820180548493606093909260ff610100830481169392169181906109d790613d5c565b80601f0160208091040260200160405190810160405280929190818152602001828054610a0390613d5c565b8015610a505780601f10610a2557610100808354040283529160200191610a50565b820191906000526020600020905b815481529060010190602001808311610a3357829003601f168201915b50505050509050935093509350509193909250565b60008051602061411d8339815191528054606091908190610a8590613d5c565b80601f0160208091040260200160405190810160405280929190818152602001828054610ab190613d5c565b8015610afe5780601f10610ad357610100808354040283529160200191610afe565b820191906000526020600020905b815481529060010190602001808311610ae157829003601f168201915b505050505091505090565b60606000829003610b29575060408051600081526020810190915261099c565b6000610b4d84846000818110610b4157610b41613d96565b90506020020135611093565b9050610b5a81858561158c565b949350505050565b6000610b6d82611e12565b5061099c82611e4a565b604051639cbe235760e01b815260040160405180910390fd5b610b98611e84565b600082815260036020526040902054610100900460ff16610bd457604051635f56114960e01b8152600481018390526024015b60405180910390fd5b6000828152600360205260409020805482919060ff19166001836006811115610bff57610bff6135d6565b0217905550806006811115610c1657610c166135d6565b60405183907f5e58f607797e522f8927a1276deb9767f5bbf3d3183b2f0b475a9f662a8155fb90600090a35050565b6001600160a01b038216610c6f57604051633250574960e11b815260006004820152602401610bcb565b6000610c7c838333611edf565b9050836001600160a01b0316816001600160a01b031614610cca576040516364283d7b60e01b81526001600160a01b0380861660048301526024820184905282166044820152606401610bcb565b50505050565b6000610cda611f3f565b805490915060ff600160401b82041615906001600160401b0316600081158015610d015750825b90506000826001600160401b03166001148015610d1d5750303b155b905081158015610d2b575080155b15610d495760405163f92ee8a960e01b815260040160405180910390fd5b845467ffffffffffffffff191660011785558315610d7357845460ff60401b1916600160401b1785555b610d7d8a8a611f68565b610d8688611f7a565b600180556002610d968882613df3565b50600080546001600160a01b0319166001600160a01b0388161790556040517ff9c7803e94e0d3c02900d8a90893a6d5e90dd04d32a4cfe825520f82bf9f32f690610de2908990613686565b60405180910390a18315610e3057845460ff60401b19168555604051600181527fc7f505b2f371ae2175ee4913f4499e1f2633a7b5936321eed1cdaeb6115181d29060200160405180910390a15b50505050505050505050565b610e44611f8b565b610e5d8160405180602001604052806000815250610faf565b50565b610e68611e84565b600083815260036020526040902054610100900460ff16610e9f57604051635f56114960e01b815260048101849052602401610bcb565b6000838152600360205260409020600101610ebb828483613eb1565b50827f128d101613c44f2aae6cacfa4019f25a11aa46b307c8cd82b14d73f0c673bd9e8383604051610eee929190613f99565b60405180910390a2505050565b610f16838383604051806020016040528060008152506111e3565b505050565b33610f2582611093565b6001600160a01b031614610f5557604051632c52f11160e11b815233600482015260248101829052604401610bcb565b6000818152600460209081526040808320805490849055338085526005845282852082865290935290832092909255610f8e9083612030565b610f9833826121b3565b610fa23382612339565b610fab826124e6565b5050565b610fb7611f8b565b610fc082612521565b610fab8282612529565b6000610fd46125e6565b5060008051602061413d83398151915290565b610fef611e84565b6002610ffc828483613eb1565b507ff9c7803e94e0d3c02900d8a90893a6d5e90dd04d32a4cfe825520f82bf9f32f6828260405161102e929190613f99565b60405180910390a15050565b6001600160a01b03821660009081526005602090815260408083208484529091528120541580159061108c57506000828152600b602090815260408083206001600160a01b0387168452909152902054155b9392505050565b600061099c82611e12565b600060008051602061411d8339815191526001600160a01b0383166110d9576040516322718ad960e21b815260006004820152602401610bcb565b6001600160a01b039092166000908152600390920160205250604090205490565b611102611e84565b61110c600061262f565b565b6001600160a01b038316600090815260056020908152604080832084845290915281205415801590610b5a5750506001600160a01b0391909116600090815260056020908152604080832093835292905220541515919050565b7f80bb2b638cc20bc4d0a60d66940f3ab4a00c1d7b313497ca82fb0b4ab0079301805460609160008051602061411d83398151915291610a8590613d5c565b600085858585856040516020016111c2959493929190613fad565b60405160208183030381529060405280519060200120905095945050505050565b6111ee848484610c45565b610cca33858585856126a0565b611203611e84565b6001600160a01b0382166000818152600c6020908152604091829020805460ff191685151590811790915591519182527fb5e93f625be9cf4b25a2f505df040e38bd35ed584b62730dd64b7eaf145e8c6e910160405180910390a25050565b606061126d82611e12565b5060008281526004602090815260408083205480845260039092528220600101805491929161129b90613d5c565b80601f01602080910402602001604051908101604052809291908181526020018280546112c790613d5c565b80156113145780601f106112e957610100808354040283529160200191611314565b820191906000526020600020905b8154815290600101906020018083116112f757829003601f168201915b50505050509050805160001461132b579392505050565b60006113356127cb565b905080516000036113585750506040805160208101909152600081529392505050565b8061136484602061285d565b604051602001611375929190613fe1565b6040516020818303038152906040529350505050919050565b600080546001600160a01b031633146113bc5760405163244b906f60e21b8152336004820152602401610bcb565b60006113cb87878787876111a7565b600081815260036020526040902054909150610100900460ff1661154c576040518060800160405280886006811115611406576114066135d6565b815260200160011515815260200187878080601f016020809104026020016040519081016040528093929190818152602001838380828437600092019190915250505090825250604080516020601f88018190048102820181019092528681529181019190879087908190840183828082843760009201829052509390945250508381526003602052604090208251815491925090829060ff191660018360068111156114b5576114b56135d6565b0217905550602082015181549015156101000261ff0019909116178155604082015160018201906114e69082613df3565b50606082015160028201906114fb9082613df3565b50905050866006811115611511576115116135d6565b817f21180c14d4f0df793d818669c5da02b6b12e747ecbad50fd973a1bf7247af5c68888604051611543929190613f99565b60405180910390a35b61155688826129d4565b98975050505050505050565b61156a611e84565b600080546001600160a01b0319166001600160a01b0392909216919091179055565b60606000805b838110156116375760008585838181106115ae576115ae613d96565b905060200201359050866001600160a01b03166115ca82611093565b6001600160a01b03161461160357604051632c52f11160e11b81526001600160a01b038816600482015260248101829052604401610bcb565b60008181526004602090815260408083205480845260089092529091205461162b9085614026565b93505050600101611592565b508060000361165657505060408051600081526020810190915261108c565b6000816001600160401b038111156116705761167061382f565b604051908082528060200260200182016040528015611699578160200160208202803683370190505b5090506000805b85811015611783576000600460008989858181106116c0576116c0613d96565b905060200201358152602001908152602001600020549050600060086000838152602001908152602001600020905060005b815481101561177857600082828154811061170f5761170f613d96565b6000918252602090912001546001600160a01b0390811691508c1681036117365750611770565b8087878151811061174957611749613d96565b6001600160a01b03909216602092830291909101909101528561176b81614039565b965050505b6001016116f2565b5050506001016116a0565b50806000036117a6575050604080516000815260208101909152915061108c9050565b6117b08282612b05565b6001805b8281101561182757836117c8600183614052565b815181106117d8576117d8613d96565b60200260200101516001600160a01b03168482815181106117fb576117fb613d96565b60200260200101516001600160a01b03161461181f578161181b81614039565b9250505b6001016117b4565b50806001600160401b038111156118405761184061382f565b604051908082528060200260200182016040528015611869578160200160208202803683370190505b5094508260008151811061187f5761187f613d96565b60200260200101518560008151811061189a5761189a613d96565b6001600160a01b03909216602092830291909101909101526001805b8381101561196e57846118ca600183614052565b815181106118da576118da613d96565b60200260200101516001600160a01b03168582815181106118fd576118fd613d96565b60200260200101516001600160a01b031603156119665784818151811061192657611926613d96565b602002602001015187838151811061194057611940613d96565b6001600160a01b03909216602092830291909101909101528161196281614039565b9250505b6001016118b6565b5050505050509392505050565b6001600160a01b0381166000908152600660209081526040918290208054835181840281018401909452808452606093928301828280156119db57602002820191906000526020600020905b8154815260200190600101908083116119c7575b50505050509050919050565b6001600160a01b0391821660009081527f80bb2b638cc20bc4d0a60d66940f3ab4a00c1d7b313497ca82fb0b4ab00793056020908152604080832093909416825291909152205460ff1690565b6000828152600a60205260408120805483908110611a5457611a54613d96565b6000918252602090912001546001600160a01b03169392505050565b611a78611e84565b6001600160a01b038116611aa257604051631e4fbdf760e01b815260006004820152602401610bcb565b610e5d8161262f565b6000818152600b6020908152604080832033845290915281205490819003611aef57604051635edac19960e01b815233600482015260248101839052604401610bcb565b6000611afc600183614052565b6000848152600a602052604081205491925090611b1b90600190614052565b9050808214611bdb576000848152600a60205260408120805483908110611b4457611b44613d96565b6000918252602080832090910154878352600a909152604090912080546001600160a01b039092169250829185908110611b8057611b80613d96565b600091825260209091200180546001600160a01b0319166001600160a01b0392909216919091179055611bb4836001614026565b6000868152600b602090815260408083206001600160a01b03909516835293905291909120555b6000848152600a60205260409020805480611bf857611bf8614065565b60008281526020808220830160001990810180546001600160a01b0319169055909201909255858252600b815260408083203380855292528083208390555186927f43771741ded2837cf411975e50f291a36f7cb2d43b6b6359aa611180020cfbeb91a350505050565b3360009081526005602090815260408083208484529091528120549003611ca557604051634fb26a8960e11b815233600482015260248101829052604401610bcb565b610e5d3382612d3b565b60606000611cbc83611093565b600084815260046020908152604080832054808452600890925282209293509190805b8254811015611d3457846001600160a01b0316838281548110611d0457611d04613d96565b6000918252602090912001546001600160a01b031614611d2c5781611d2881614039565b9250505b600101611cdf565b506000816001600160401b03811115611d4f57611d4f61382f565b604051908082528060200260200182016040528015611d78578160200160208202803683370190505b5090506000805b8454811015611e05576000858281548110611d9c57611d9c613d96565b6000918252602090912001546001600160a01b03908116915088168103611dc35750611dfd565b80848481518110611dd657611dd6613d96565b6001600160a01b039092166020928302919091019091015282611df881614039565b935050505b600101611d7f565b5090979650505050505050565b600080611e1e83612de6565b90506001600160a01b03811661099c57604051637e27328960e01b815260048101849052602401610bcb565b60009081527f80bb2b638cc20bc4d0a60d66940f3ab4a00c1d7b313497ca82fb0b4ab007930460205260409020546001600160a01b031690565b33611eb67f9016d09d72d40fdae2fd8ceac6b6234c7706214fd39c1cd1e609a0528c199300546001600160a01b031690565b6001600160a01b03161461110c5760405163118cdaa760e01b8152336004820152602401610bcb565b600080611eeb84612de6565b90506001600160a01b03811615801590611f0d57506001600160a01b03851615155b15611f2b57604051639cbe235760e01b815260040160405180910390fd5b611f36858585612e20565b95945050505050565b6000807ff0c57e16840df040f15088dc2f81fe391c3923bec73e23a9662efc9c229c6a0061099c565b611f70612f2a565b610fab8282612f4f565b611f82612f2a565b610e5d81612f80565b306001600160a01b037f000000000000000000000000000000000000000000000000000000000000000016148061201257507f00000000000000000000000000000000000000000000000000000000000000006001600160a01b031661200660008051602061413d833981519152546001600160a01b031690565b6001600160a01b031614155b1561110c5760405163703e46dd60e11b815260040160405180910390fd5b6001600160a01b03821660009081526007602090815260408083208484529091528120549081900361206157505050565b600061206e600183614052565b6001600160a01b0385166000908152600660205260408120549192509061209790600190614052565b905080821461214c576001600160a01b03851660009081526006602052604081208054839081106120ca576120ca613d96565b906000526020600020015490508060066000886001600160a01b03166001600160a01b03168152602001908152602001600020848154811061210e5761210e613d96565b600091825260209091200155612125836001614026565b6001600160a01b038716600090815260076020908152604080832094835293905291909120555b6001600160a01b038516600090815260066020526040902080548061217357612173614065565b6000828152602080822083016000199081018390559092019092556001600160a01b03909616815260078652604080822095825294909552505050812055565b60008181526009602090815260408083206001600160a01b0386168452909152812054908190036121e357505050565b60006121f0600183614052565b6000848152600860205260408120549192509061220f90600190614052565b90508082146122cf57600084815260086020526040812080548390811061223857612238613d96565b60009182526020808320909101548783526008909152604090912080546001600160a01b03909216925082918590811061227457612274613d96565b600091825260209091200180546001600160a01b0319166001600160a01b03929092169190911790556122a8836001614026565b60008681526009602090815260408083206001600160a01b03909516835293905291909120555b60008481526008602052604090208054806122ec576122ec614065565b60008281526020808220830160001990810180546001600160a01b03191690559092019092559481526009855260408082206001600160a01b039790971682529590945250505090812055565b6000818152600b602090815260408083206001600160a01b03861684529091528120549081900361236957505050565b6000612376600183614052565b6000848152600a60205260408120549192509061239590600190614052565b9050808214612455576000848152600a602052604081208054839081106123be576123be613d96565b6000918252602080832090910154878352600a909152604090912080546001600160a01b0390921692508291859081106123fa576123fa613d96565b600091825260209091200180546001600160a01b0319166001600160a01b039290921691909117905561242e836001614026565b6000868152600b602090815260408083206001600160a01b03909516835293905291909120555b6000848152600a6020526040902080548061247257612472614065565b60008281526020808220830160001990810180546001600160a01b0319169055909201909255858252600b815260408083206001600160a01b03891680855292528083208390555186927f43771741ded2837cf411975e50f291a36f7cb2d43b6b6359aa611180020cfbeb91a35050505050565b60006124f56000836000611edf565b90506001600160a01b038116610fab57604051637e27328960e01b815260048101839052602401610bcb565b610e5d611e84565b816001600160a01b03166352d1902d6040518163ffffffff1660e01b8152600401602060405180830381865afa925050508015612583575060408051601f3d908101601f191682019092526125809181019061407b565b60015b6125ab57604051634c9c8ce360e01b81526001600160a01b0383166004820152602401610bcb565b60008051602061413d83398151915281146125dc57604051632a87526960e21b815260048101829052602401610bcb565b610f168383612f88565b306001600160a01b037f0000000000000000000000000000000000000000000000000000000000000000161461110c5760405163703e46dd60e11b815260040160405180910390fd5b7f9016d09d72d40fdae2fd8ceac6b6234c7706214fd39c1cd1e609a0528c19930080546001600160a01b031981166001600160a01b03848116918217845560405192169182907f8be0079c531659141344cd1fd0a4f28419497f9722a3daafe3b4186f6b6457e090600090a3505050565b6001600160a01b0383163b156127c457604051630a85bd0160e11b81526001600160a01b0384169063150b7a02906126e2908890889087908790600401614094565b6020604051808303816000875af192505050801561271d575060408051601f3d908101601f1916820190925261271a918101906140d1565b60015b612786573d80801561274b576040519150601f19603f3d011682016040523d82523d6000602084013e612750565b606091505b50805160000361277e57604051633250574960e11b81526001600160a01b0385166004820152602401610bcb565b805160208201fd5b6001600160e01b03198116630a85bd0160e11b146127c257604051633250574960e11b81526001600160a01b0385166004820152602401610bcb565b505b5050505050565b6060600280546127da90613d5c565b80601f016020809104026020016040519081016040528092919081815260200182805461280690613d5c565b80156128535780601f1061282857610100808354040283529160200191612853565b820191906000526020600020905b81548152906001019060200180831161283657829003601f168201915b5050505050905090565b606082600061286d8460026140ee565b612878906002614026565b6001600160401b0381111561288f5761288f61382f565b6040519080825280601f01601f1916602001820160405280156128b9576020820181803683370190505b509050600360fc1b816000815181106128d4576128d4613d96565b60200101906001600160f81b031916908160001a905350600f60fb1b8160018151811061290357612903613d96565b60200101906001600160f81b031916908160001a90535060006129278560026140ee565b612932906001614026565b90505b60018111156129aa576f181899199a1a9b1b9c1cb0b131b232b360811b83600f166010811061296657612966613d96565b1a60f81b82828151811061297c5761297c613d96565b60200101906001600160f81b031916908160001a90535060049290921c916129a381614105565b9050612935565b508115610b5a5760405163e22e27eb60e01b81526004810186905260248101859052604401610bcb565b6001600160a01b038216600090815260056020908152604080832084845290915281205415612a28576040516371d50c2360e01b81526001600160a01b038416600482015260248101839052604401610bcb565b60018054906000612a3883614039565b9091555060008181526004602090815260408083208690556001600160a01b03871683526005825280832086845290915290208190559050612a7a8382612fde565b6001600160a01b038316600081815260066020908152604080832080546001810182558185528385200186905593835292546007825283832085845290915291902055612ac78383612ff8565b8082846001600160a01b03167f0a52ef355ebfc3b1bbd9448fee4e157b2d4e5035421d4e6d3029d7e33cef727e60405160405180910390a492915050565b6002811015612b12575050565b6000612b1f8260026140ee565b6001600160401b03811115612b3657612b3661382f565b604051908082528060200260200182016040528015612b5f578160200160208202803683370190505b509050600080828281518110612b7757612b77613d96565b602090810291909101015280612b8c81614039565b9150612b9b9050600184614052565b828281518110612bad57612bad613d96565b602090810291909101015280612bc281614039565b9150505b8015610cca5780612bd681614105565b9150506000828281518110612bed57612bed613d96565b602002602001015190508180612c0290614105565b9250506000838381518110612c1957612c19613d96565b60200260200101519050818110612c31575050612bc6565b6000612c3e878385613077565b9050600081118015612c595750612c56600182614052565b82105b15612cc05781858581518110612c7157612c71613d96565b602090810291909101015283612c8681614039565b9450612c959050600182614052565b858581518110612ca757612ca7613d96565b602090810291909101015283612cbc81614039565b9450505b82612ccc826001614026565b1015612d3357612cdd816001614026565b858581518110612cef57612cef613d96565b602090810291909101015283612d0481614039565b94505082858581518110612d1a57612d1a613d96565b602090810291909101015283612d2f81614039565b9450505b505050612bc6565b6000818152600b602090815260408083206001600160a01b038616845290915290205415612d67575050565b6000818152600a6020908152604080832080546001810182558185528385200180546001600160a01b0319166001600160a01b0388169081179091558585529054600b8452828520828652909352818420929092555183927fec245c738c3c29fffbbe0748680bbf86b19b847eeaa723bfbeb563f44ab503f291a35050565b60009081527f80bb2b638cc20bc4d0a60d66940f3ab4a00c1d7b313497ca82fb0b4ab007930260205260409020546001600160a01b031690565b600060008051602061411d83398151915281612e3b85612de6565b90506001600160a01b03841615612e5757612e57818587613103565b6001600160a01b03811615612e9757612e74600086600080613167565b6001600160a01b0381166000908152600383016020526040902080546000190190555b6001600160a01b03861615612ec8576001600160a01b03861660009081526003830160205260409020805460010190555b600085815260028301602052604080822080546001600160a01b0319166001600160a01b038a811691821790925591518893918516917fddf252ad1be2c89b69c2b068fc378daa952ba7f163c4a11628f55a4df523b3ef91a495945050505050565b612f3261327d565b61110c57604051631afcd79f60e31b815260040160405180910390fd5b612f57612f2a565b60008051602061411d83398151915280612f718482613df3565b5060018101610cca8382613df3565b611a78612f2a565b612f9182613297565b6040516001600160a01b038316907fbc7cd75a20ee27fd9adebab32041f755214dbc6bffa90cc0225b39da2e5c2d3b90600090a2805115612fd657610f1682826132fc565b610fab61339f565b610fab8282604051806020016040528060008152506133be565b60008181526009602090815260408083206001600160a01b038616845290915290205415613024575050565b600081815260086020908152604080832080546001810182558185528385200180546001600160a01b039097166001600160a01b0319909716871790559383529254600982528383209483529390522055565b60008084838151811061308c5761308c613d96565b60209081029190910101516001600160a01b0316905083805b848110156130f757828782815181106130c0576130c0613d96565b60200260200101516001600160a01b0316116130ef576130e18783836133d6565b816130eb81614039565b9250505b6001016130a5565b50611f368682866133d6565b61310e838383613485565b610f16576001600160a01b03831661313c57604051637e27328960e01b815260048101829052602401610bcb565b60405163177e802f60e01b81526001600160a01b038316600482015260248101829052604401610bcb565b60008051602061411d833981519152818061318a57506001600160a01b03831615155b1561324c57600061319a85611e12565b90506001600160a01b038416158015906131c65750836001600160a01b0316816001600160a01b031614155b80156131d957506131d781856119e7565b155b156132025760405163a9fbf51f60e01b81526001600160a01b0385166004820152602401610bcb565b821561324a5784866001600160a01b0316826001600160a01b03167f8c5be1e5ebec7d5bd14f71427d1e84f3dd0314c0f7b2291e5b200ac8c7c3b92560405160405180910390a45b505b600093845260040160205250506040902080546001600160a01b0319166001600160a01b0392909216919091179055565b6000613287611f3f565b54600160401b900460ff16919050565b806001600160a01b03163b6000036132cd57604051634c9c8ce360e01b81526001600160a01b0382166004820152602401610bcb565b60008051602061413d83398151915280546001600160a01b0319166001600160a01b0392909216919091179055565b6060600061330a84846134ea565b905080801561332d575060003d118061332d57506000846001600160a01b03163b115b156133425761333a6134ff565b91505061099c565b801561336c57604051639996b31560e01b81526001600160a01b0385166004820152602401610bcb565b3d1561337f5761337a613519565b613398565b60405163d6bda27560e01b815260040160405180910390fd5b5092915050565b341561110c5760405163b398979f60e01b815260040160405180910390fd5b6133c88383613525565b610f163360008585856126a0565b8082036133e257505050565b60008383815181106133f6576133f6613d96565b6020026020010151905083828151811061341257613412613d96565b602002602001015184848151811061342c5761342c613d96565b60200260200101906001600160a01b031690816001600160a01b0316815250508084838151811061345f5761345f613d96565b60200260200101906001600160a01b031690816001600160a01b03168152505050505050565b60006001600160a01b03831615801590610b5a5750826001600160a01b0316846001600160a01b031614806134bf57506134bf84846119e7565b80610b5a5750826001600160a01b03166134d883611e4a565b6001600160a01b031614949350505050565b6000806000835160208501865af49392505050565b6040513d81523d6000602083013e3d602001810160405290565b6040513d6000823e3d81fd5b6001600160a01b03821661354f57604051633250574960e11b815260006004820152602401610bcb565b600061355d83836000611edf565b90506001600160a01b03811615610f16576040516339e3563760e11b815260006004820152602401610bcb565b6001600160e01b031981168114610e5d57600080fd5b6000602082840312156135b257600080fd5b813561108c8161358a565b6000602082840312156135cf57600080fd5b5035919050565b634e487b7160e01b600052602160045260246000fd5b6007811061360a57634e487b7160e01b600052602160045260246000fd5b9052565b60005b83811015613629578181015183820152602001613611565b50506000910152565b6000815180845261364a81602086016020860161360e565b601f01601f19169290920160200192915050565b831515815261367060208201846135ec565b606060408201526000611f366060830184613632565b60208152600061108c6020830184613632565b60008083601f8401126136ab57600080fd5b5081356001600160401b038111156136c257600080fd5b6020830191508360208260051b85010111156136dd57600080fd5b9250929050565b600080602083850312156136f757600080fd5b82356001600160401b0381111561370d57600080fd5b61371985828601613699565b90969095509350505050565b602080825282518282018190526000918401906040840190835b818110156137665783516001600160a01b031683526020938401939092019160010161373f565b509095945050505050565b80356001600160a01b038116811461378857600080fd5b919050565b600080604083850312156137a057600080fd5b6137a983613771565b946020939093013593505050565b80356007811061378857600080fd5b600080604083850312156137d957600080fd5b823591506137e9602084016137b7565b90509250929050565b60008060006060848603121561380757600080fd5b61381084613771565b925061381e60208501613771565b929592945050506040919091013590565b634e487b7160e01b600052604160045260246000fd5b600082601f83011261385657600080fd5b8135602083016000806001600160401b038411156138765761387661382f565b50604051601f19601f85018116603f011681018181106001600160401b03821117156138a4576138a461382f565b6040528381529050808284018710156138bc57600080fd5b838360208301376000602085830101528094505050505092915050565b600080600080600060a086880312156138f157600080fd5b85356001600160401b0381111561390757600080fd5b61391388828901613845565b95505060208601356001600160401b0381111561392f57600080fd5b61393b88828901613845565b94505061394a60408701613771565b925060608601356001600160401b0381111561396557600080fd5b61397188828901613845565b92505061398060808701613771565b90509295509295909350565b60006020828403121561399e57600080fd5b61108c82613771565b60008083601f8401126139b957600080fd5b5081356001600160401b038111156139d057600080fd5b6020830191508360208285010111156136dd57600080fd5b6000806000604084860312156139fd57600080fd5b8335925060208401356001600160401b03811115613a1a57600080fd5b613a26868287016139a7565b9497909650939450505050565b60008060408385031215613a4657600080fd5b613a4f83613771565b915060208301356001600160401b03811115613a6a57600080fd5b613a7685828601613845565b9150509250929050565b60008060208385031215613a9357600080fd5b82356001600160401b03811115613aa957600080fd5b613719858286016139a7565b60008060408385031215613ac857600080fd5b613ad183613771565b915060208301358015158114613ae657600080fd5b809150509250929050565b600080600080600060608688031215613b0957600080fd5b613b12866137b7565b945060208601356001600160401b03811115613b2d57600080fd5b613b39888289016139a7565b90955093505060408601356001600160401b03811115613b5857600080fd5b613b64888289016139a7565b969995985093965092949392505050565b60008060008060808587031215613b8b57600080fd5b613b9485613771565b9350613ba260208601613771565b92506040850135915060608501356001600160401b03811115613bc457600080fd5b613bd087828801613845565b91505092959194509250565b60008060408385031215613bef57600080fd5b823591506137e960208401613771565b60008060008060008060808789031215613c1857600080fd5b613c2187613771565b9550613c2f602088016137b7565b945060408701356001600160401b03811115613c4a57600080fd5b613c5689828a016139a7565b90955093505060608701356001600160401b03811115613c7557600080fd5b613c8189828a016139a7565b979a9699509497509295939492505050565b600080600060408486031215613ca857600080fd5b613cb184613771565b925060208401356001600160401b03811115613ccc57600080fd5b613a2686828701613699565b602080825282518282018190526000918401906040840190835b81811015613766578351835260209384019390920191600101613cf2565b60008060408385031215613d2357600080fd5b613d2c83613771565b91506137e960208401613771565b60008060408385031215613d4d57600080fd5b50508035926020909101359150565b600181811c90821680613d7057607f821691505b602082108103613d9057634e487b7160e01b600052602260045260246000fd5b50919050565b634e487b7160e01b600052603260045260246000fd5b601f821115610f1657806000526020600020601f840160051c81016020851015613dd35750805b601f840160051c820191505b818110156127c45760008155600101613ddf565b81516001600160401b03811115613e0c57613e0c61382f565b613e2081613e1a8454613d5c565b84613dac565b6020601f821160018114613e545760008315613e3c5750848201515b600019600385901b1c1916600184901b1784556127c4565b600084815260208120601f198516915b82811015613e845787850151825560209485019460019092019101613e64565b5084821015613ea25786840151600019600387901b60f8161c191681555b50505050600190811b01905550565b6001600160401b03831115613ec857613ec861382f565b613edc83613ed68354613d5c565b83613dac565b6000601f841160018114613f105760008515613ef85750838201355b600019600387901b1c1916600186901b1783556127c4565b600083815260209020601f19861690835b82811015613f415786850135825560209485019460019092019101613f21565b5086821015613f5e5760001960f88860031b161c19848701351681555b505060018560011b0183555050505050565b81835281816020850137506000828201602090810191909152601f909101601f19169091010190565b602081526000610b5a602083018486613f70565b613fb781876135ec565b606060208201526000613fce606083018688613f70565b8281036040840152611556818587613f70565b60008351613ff381846020880161360e565b83519083019061400781836020880161360e565b01949350505050565b634e487b7160e01b600052601160045260246000fd5b8082018082111561099c5761099c614010565b60006001820161404b5761404b614010565b5060010190565b8181038181111561099c5761099c614010565b634e487b7160e01b600052603160045260246000fd5b60006020828403121561408d57600080fd5b5051919050565b6001600160a01b03858116825284166020820152604081018390526080606082018190526000906140c790830184613632565b9695505050505050565b6000602082840312156140e357600080fd5b815161108c8161358a565b808202811582820484141761099c5761099c614010565b60008161411457614114614010565b50600019019056fe80bb2b638cc20bc4d0a60d66940f3ab4a00c1d7b313497ca82fb0b4ab0079300360894a13ba1a3210667c828492db98dca3e2076cc3735a920a3ca505d382bbca2646970667358221220d96b154c5ec05f27d40baae139f78f05c9e673b9ccd8e545e6ad66919c66d91364736f6c634300081e0033","linkReferences":{}},"methodIdentifiers":{"UPGRADE_INTERFACE_VERSION()":"ad3cb1cc","approve(address,uint256)":"095ea7b3","backend()":"099e4133","balanceOf(address)":"70a08231","burn(uint256)":"42966c68","canJoinGroup(address,bytes32)":"60f55375","canText(address,address,bytes32)":"8c7ddefc","completeAndRegisterByExternalId(address,uint8,string,string)":"d153af61","completionTokenId(address,bytes32)":"4dde7105","computeMediaId(uint8,string,string)":"b219f739","getApproved(uint256)":"081812fc","getsimilars(address,uint256[])":"debdb91d","getsimilarsForToken(uint256)":"fe7c26cf","getsimilarsFromTokens(uint256[])":"07e23776","getusernft(address)":"df806be7","groupMemberAt(bytes32,uint256)":"eef49337","groupMemberCount(bytes32)":"a483e614","hasCompleted(address,bytes32)":"e349566c","initialize(string,string,address,string,address)":"28ccf844","isApprovedForAll(address,address)":"e985e9c5","isGroupMember(bytes32,address)":"cb3022ff","isRegistrar(address)":"d5db72eb","joinGroup(bytes32)":"fb0135d1","leaveGroup(bytes32)":"f931544b","mediaInfo(bytes32)":"03c45cf5","name()":"06fdde03","nextTokenId()":"75794a3c","owner()":"8da5cb5b","ownerOf(uint256)":"6352211e","proxiableUUID()":"52d1902d","renounceOwnership()":"715018a6","safeTransferFrom(address,address,uint256)":"42842e0e","safeTransferFrom(address,address,uint256,bytes)":"b88d4fde","setApprovalForAll(address,bool)":"a22cb465","setBackend(address)":"da7fc24f","setBaseURI(string)":"55f804b3","setMediaKind(bytes32,uint8)":"17c6f2de","setMediaURI(bytes32,string)":"3f0ccf6a","setRegistrar(address,bool)":"c1bf1dcf","supportsInterface(bytes4)":"01ffc9a7","symbol()":"95d89b41","tokenMediaId(uint256)":"51be10d6","tokenURI(uint256)":"c87b56dd","transferFrom(address,address,uint256)":"23b872dd","transferOwnership(address)":"f2fde38b","upgradeTo(address)":"3659cfe6","upgradeToAndCall(address,bytes)":"4f1ef286","userTokenIds(address)":"e8c40392"},"id":49}