{"abi":[{"type":"constructor","inputs":[],"stateMutability":"nonpayable"},{"type":"function","name":"UPGRADE_INTERFACE_VERSION","inputs":[],"outputs":[{"name":"","type":"string","internalType":"string"}],"stateMutability":"view"},{"type":"function","name":"approve","inputs":[{"name":"","type":"address","internalType":"address"},{"name":"","type":"uint256","internalType":"uint256"}],"outputs":[],"stateMutability":"pure"},{"type":"function","name":"backend","inputs":[],"outputs":[{"name":"","type":"address","internalType":"address"}],"stateMutability":"view"},{"type":"function","name":"balanceOf","inputs":[{"name":"owner","type":"address","internalType":"address"}],"outputs":[{"name":"","type":"uint256","internalType":"uint256"}],"stateMutability":"view"},{"type":"function","name":"burn","inputs":[{"name":"tokenId","type":"uint256","internalType":"uint256"}],"outputs":[],"stateMutability":"nonpayable"},{"type":"function","name":"canJoinGroup","inputs":[{"name":"user","type":"address","internalType":"address"},{"name":"mediaId","type":"bytes32","internalType":"bytes32"}],"outputs":[{"name":"","type":"bool","internalType":"bool"}],"stateMutability":"view"},{"type":"function","name":"canText","inputs":[{"name":"from","type":"address","internalType":"address"},{"name":"to","type":"address","internalType":"address"},{"name":"mediaId","type":"bytes32","internalType":"bytes32"}],"outputs":[{"name":"","type":"bool","internalType":"bool"}],"stateMutability":"view"},{"type":"function","name":"completeAndRegisterByExternalId","inputs":[{"name":"to","type":"address","internalType":"address"},{"name":"kind","type":"uint8","internalType":"enum VeTerex.MediaKind"},{"name":"externalId","type":"string","internalType":"string"},{"name":"uri","type":"string","internalType":"string"},{"name":"name","type":"string","internalType":"string"}],"outputs":[{"name":"tokenId","type":"uint256","internalType":"uint256"}],"stateMutability":"nonpayable"},{"type":"function","name":"completionTokenId","inputs":[{"name":"user","type":"address","internalType":"address"},{"name":"mediaId","type":"bytes32","internalType":"bytes32"}],"outputs":[{"name":"tokenId","type":"uint256","internalType":"uint256"}],"stateMutability":"view"},{"type":"function","name":"computeMediaId","inputs":[{"name":"kind","type":"uint8","internalType":"enum VeTerex.MediaKind"},{"name":"externalId","type":"string","internalType":"string"}],"outputs":[{"name":"","type":"bytes32","internalType":"bytes32"}],"stateMutability":"pure"},{"type":"function","name":"getApproved","inputs":[{"name":"tokenId","type":"uint256","internalType":"uint256"}],"outputs":[{"name":"","type":"address","internalType":"address"}],"stateMutability":"view"},{"type":"function","name":"getusernft","inputs":[{"name":"user","type":"address","internalType":"address"}],"outputs":[{"name":"userNfts","type":"uint256[]","internalType":"uint256[]"}],"stateMutability":"view"},{"type":"function","name":"groupMemberAt","inputs":[{"name":"mediaId","type":"bytes32","internalType":"bytes32"},{"name":"index","type":"uint256","internalType":"uint256"}],"outputs":[{"name":"","type":"address","internalType":"address"}],"stateMutability":"view"},{"type":"function","name":"groupMemberCount","inputs":[{"name":"mediaId","type":"bytes32","internalType":"bytes32"}],"outputs":[{"name":"","type":"uint256","internalType":"uint256"}],"stateMutability":"view"},{"type":"function","name":"hasCompleted","inputs":[{"name":"user","type":"address","internalType":"address"},{"name":"mediaId","type":"bytes32","internalType":"bytes32"}],"outputs":[{"name":"","type":"bool","internalType":"bool"}],"stateMutability":"view"},{"type":"function","name":"initialize","inputs":[{"name":"name_","type":"string","internalType":"string"},{"name":"symbol_","type":"string","internalType":"string"},{"name":"initialOwner","type":"address","internalType":"address"},{"name":"baseURI_","type":"string","internalType":"string"},{"name":"backend_","type":"address","internalType":"address"}],"outputs":[],"stateMutability":"nonpayable"},{"type":"function","name":"isApprovedForAll","inputs":[{"name":"owner","type":"address","internalType":"address"},{"name":"operator","type":"address","internalType":"address"}],"outputs":[{"name":"","type":"bool","internalType":"bool"}],"stateMutability":"view"},{"type":"function","name":"isGroupMember","inputs":[{"name":"mediaId","type":"bytes32","internalType":"bytes32"},{"name":"user","type":"address","internalType":"address"}],"outputs":[{"name":"","type":"bool","internalType":"bool"}],"stateMutability":"view"},{"type":"function","name":"isRegistrar","inputs":[{"name":"registrar","type":"address","internalType":"address"}],"outputs":[{"name":"allowed","type":"bool","internalType":"bool"}],"stateMutability":"view"},{"type":"function","name":"joinGroup","inputs":[{"name":"mediaId","type":"bytes32","internalType":"bytes32"}],"outputs":[],"stateMutability":"nonpayable"},{"type":"function","name":"leaveGroup","inputs":[{"name":"mediaId","type":"bytes32","internalType":"bytes32"}],"outputs":[],"stateMutability":"nonpayable"},{"type":"function","name":"mediaInfo","inputs":[{"name":"mediaId","type":"bytes32","internalType":"bytes32"}],"outputs":[{"name":"exists","type":"bool","internalType":"bool"},{"name":"kind","type":"uint8","internalType":"enum VeTerex.MediaKind"},{"name":"uri","type":"string","internalType":"string"}],"stateMutability":"view"},{"type":"function","name":"name","inputs":[],"outputs":[{"name":"","type":"string","internalType":"string"}],"stateMutability":"view"},{"type":"function","name":"nextTokenId","inputs":[],"outputs":[{"name":"","type":"uint256","internalType":"uint256"}],"stateMutability":"view"},{"type":"function","name":"owner","inputs":[],"outputs":[{"name":"","type":"address","internalType":"address"}],"stateMutability":"view"},{"type":"function","name":"ownerOf","inputs":[{"name":"tokenId","type":"uint256","internalType":"uint256"}],"outputs":[{"name":"","type":"address","internalType":"address"}],"stateMutability":"view"},{"type":"function","name":"proxiableUUID","inputs":[],"outputs":[{"name":"","type":"bytes32","internalType":"bytes32"}],"stateMutability":"view"},{"type":"function","name":"renounceOwnership","inputs":[],"outputs":[],"stateMutability":"nonpayable"},{"type":"function","name":"safeTransferFrom","inputs":[{"name":"from","type":"address","internalType":"address"},{"name":"to","type":"address","internalType":"address"},{"name":"tokenId","type":"uint256","internalType":"uint256"}],"outputs":[],"stateMutability":"nonpayable"},{"type":"function","name":"safeTransferFrom","inputs":[{"name":"from","type":"address","internalType":"address"},{"name":"to","type":"address","internalType":"address"},{"name":"tokenId","type":"uint256","internalType":"uint256"},{"name":"data","type":"bytes","internalType":"bytes"}],"outputs":[],"stateMutability":"nonpayable"},{"type":"function","name":"setApprovalForAll","inputs":[{"name":"","type":"address","internalType":"address"},{"name":"","type":"bool","internalType":"bool"}],"outputs":[],"stateMutability":"pure"},{"type":"function","name":"setBackend","inputs":[{"name":"backend_","type":"address","internalType":"address"}],"outputs":[],"stateMutability":"nonpayable"},{"type":"function","name":"setBaseURI","inputs":[{"name":"baseURI_","type":"string","internalType":"string"}],"outputs":[],"stateMutability":"nonpayable"},{"type":"function","name":"setMediaKind","inputs":[{"name":"mediaId","type":"bytes32","internalType":"bytes32"},{"name":"kind","type":"uint8","internalType":"enum VeTerex.MediaKind"}],"outputs":[],"stateMutability":"nonpayable"},{"type":"function","name":"setMediaURI","inputs":[{"name":"mediaId","type":"bytes32","internalType":"bytes32"},{"name":"uri","type":"string","internalType":"string"}],"outputs":[],"stateMutability":"nonpayable"},{"type":"function","name":"setRegistrar","inputs":[{"name":"registrar","type":"address","internalType":"address"},{"name":"allowed","type":"bool","internalType":"bool"}],"outputs":[],"stateMutability":"nonpayable"},{"type":"function","name":"supportsInterface","inputs":[{"name":"interfaceId","type":"bytes4","internalType":"bytes4"}],"outputs":[{"name":"","type":"bool","internalType":"bool"}],"stateMutability":"view"},{"type":"function","name":"symbol","inputs":[],"outputs":[{"name":"","type":"string","internalType":"string"}],"stateMutability":"view"},{"type":"function","name":"tokenMediaId","inputs":[{"name":"tokenId","type":"uint256","internalType":"uint256"}],"outputs":[{"name":"mediaId","type":"bytes32","internalType":"bytes32"}],"stateMutability":"view"},{"type":"function","name":"tokenURI","inputs":[{"name":"tokenId","type":"uint256","internalType":"uint256"}],"outputs":[{"name":"","type":"string","internalType":"string"}],"stateMutability":"view"},{"type":"function","name":"transferFrom","inputs":[{"name":"from","type":"address","internalType":"address"},{"name":"to","type":"address","internalType":"address"},{"name":"tokenId","type":"uint256","internalType":"uint256"}],"outputs":[],"stateMutability":"nonpayable"},{"type":"function","name":"transferOwnership","inputs":[{"name":"newOwner","type":"address","internalType":"address"}],"outputs":[],"stateMutability":"nonpayable"},{"type":"function","name":"upgradeToAndCall","inputs":[{"name":"newImplementation","type":"address","internalType":"address"},{"name":"data","type":"bytes","internalType":"bytes"}],"outputs":[],"stateMutability":"payable"},{"type":"function","name":"userTokenIds","inputs":[{"name":"user","type":"address","internalType":"address"}],"outputs":[{"name":"","type":"uint256[]","internalType":"uint256[]"}],"stateMutability":"view"},{"type":"event","name":"Approval","inputs":[{"name":"owner","type":"address","indexed":true,"internalType":"address"},{"name":"approved","type":"address","indexed":true,"internalType":"address"},{"name":"tokenId","type":"uint256","indexed":true,"internalType":"uint256"}],"anonymous":false},{"type":"event","name":"ApprovalForAll","inputs":[{"name":"owner","type":"address","indexed":true,"internalType":"address"},{"name":"operator","type":"address","indexed":true,"internalType":"address"},{"name":"approved","type":"bool","indexed":false,"internalType":"bool"}],"anonymous":false},{"type":"event","name":"BaseURISet","inputs":[{"name":"baseURI","type":"string","indexed":false,"internalType":"string"}],"anonymous":false},{"type":"event","name":"GroupJoined","inputs":[{"name":"user","type":"address","indexed":true,"internalType":"address"},{"name":"mediaId","type":"bytes32","indexed":true,"internalType":"bytes32"}],"anonymous":false},{"type":"event","name":"GroupLeft","inputs":[{"name":"user","type":"address","indexed":true,"internalType":"address"},{"name":"mediaId","type":"bytes32","indexed":true,"internalType":"bytes32"}],"anonymous":false},{"type":"event","name":"Initialized","inputs":[{"name":"version","type":"uint64","indexed":false,"internalType":"uint64"}],"anonymous":false},{"type":"event","name":"MediaCompleted","inputs":[{"name":"user","type":"address","indexed":true,"internalType":"address"},{"name":"mediaId","type":"bytes32","indexed":true,"internalType":"bytes32"},{"name":"tokenId","type":"uint256","indexed":true,"internalType":"uint256"}],"anonymous":false},{"type":"event","name":"MediaKindSet","inputs":[{"name":"mediaId","type":"bytes32","indexed":true,"internalType":"bytes32"},{"name":"kind","type":"uint8","indexed":true,"internalType":"enum VeTerex.MediaKind"}],"anonymous":false},{"type":"event","name":"MediaRegistered","inputs":[{"name":"mediaId","type":"bytes32","indexed":true,"internalType":"bytes32"},{"name":"kind","type":"uint8","indexed":true,"internalType":"enum VeTerex.MediaKind"},{"name":"uri","type":"string","indexed":false,"internalType":"string"}],"anonymous":false},{"type":"event","name":"MediaURISet","inputs":[{"name":"mediaId","type":"bytes32","indexed":true,"internalType":"bytes32"},{"name":"uri","type":"string","indexed":false,"internalType":"string"}],"anonymous":false},{"type":"event","name":"OwnershipTransferred","inputs":[{"name":"previousOwner","type":"address","indexed":true,"internalType":"address"},{"name":"newOwner","type":"address","indexed":true,"internalType":"address"}],"anonymous":false},{"type":"event","name":"RegistrarSet","inputs":[{"name":"registrar","type":"address","indexed":true,"internalType":"address"},{"name":"allowed","type":"bool","indexed":false,"internalType":"bool"}],"anonymous":false},{"type":"event","name":"Transfer","inputs":[{"name":"from","type":"address","indexed":true,"internalType":"address"},{"name":"to","type":"address","indexed":true,"internalType":"address"},{"name":"tokenId","type":"uint256","indexed":true,"internalType":"uint256"}],"anonymous":false},{"type":"event","name":"Upgraded","inputs":[{"name":"implementation","type":"address","indexed":true,"internalType":"address"}],"anonymous":false},{"type":"error","name":"AddressEmptyCode","inputs":[{"name":"target","type":"address","internalType":"address"}]},{"type":"error","name":"AlreadyCompleted","inputs":[{"name":"user","type":"address","internalType":"address"},{"name":"mediaId","type":"bytes32","internalType":"bytes32"}]},{"type":"error","name":"ERC1967InvalidImplementation","inputs":[{"name":"implementation","type":"address","internalType":"address"}]},{"type":"error","name":"ERC1967NonPayable","inputs":[]},{"type":"error","name":"ERC721IncorrectOwner","inputs":[{"name":"sender","type":"address","internalType":"address"},{"name":"tokenId","type":"uint256","internalType":"uint256"},{"name":"owner","type":"address","internalType":"address"}]},{"type":"error","name":"ERC721InsufficientApproval","inputs":[{"name":"operator","type":"address","internalType":"address"},{"name":"tokenId","type":"uint256","internalType":"uint256"}]},{"type":"error","name":"ERC721InvalidApprover","inputs":[{"name":"approver","type":"address","internalType":"address"}]},{"type":"error","name":"ERC721InvalidOperator","inputs":[{"name":"operator","type":"address","internalType":"address"}]},{"type":"error","name":"ERC721InvalidOwner","inputs":[{"name":"owner","type":"address","internalType":"address"}]},{"type":"error","name":"ERC721InvalidReceiver","inputs":[{"name":"receiver","type":"address","internalType":"address"}]},{"type":"error","name":"ERC721InvalidSender","inputs":[{"name":"sender","type":"address","internalType":"address"}]},{"type":"error","name":"ERC721NonexistentToken","inputs":[{"name":"tokenId","type":"uint256","internalType":"uint256"}]},{"type":"error","name":"FailedCall","inputs":[]},{"type":"error","name":"InvalidInitialization","inputs":[]},{"type":"error","name":"MediaAlreadyRegistered","inputs":[{"name":"mediaId","type":"bytes32","internalType":"bytes32"}]},{"type":"error","name":"MediaNotRegistered","inputs":[{"name":"mediaId","type":"bytes32","internalType":"bytes32"}]},{"type":"error","name":"NonTransferable","inputs":[]},{"type":"error","name":"NotBackend","inputs":[{"name":"caller","type":"address","internalType":"address"}]},{"type":"error","name":"NotCompleted","inputs":[{"name":"user","type":"address","internalType":"address"},{"name":"mediaId","type":"bytes32","internalType":"bytes32"}]},{"type":"error","name":"NotGroupMember","inputs":[{"name":"user","type":"address","internalType":"address"},{"name":"mediaId","type":"bytes32","internalType":"bytes32"}]},{"type":"error","name":"NotInitializing","inputs":[]},{"type":"error","name":"NotRegistrar","inputs":[{"name":"caller","type":"address","internalType":"address"}]},{"type":"error","name":"NotTokenOwner","inputs":[{"name":"user","type":"address","internalType":"address"},{"name":"tokenId","type":"uint256","internalType":"uint256"}]},{"type":"error","name":"OwnableInvalidOwner","inputs":[{"name":"owner","type":"address","internalType":"address"}]},{"type":"error","name":"OwnableUnauthorizedAccount","inputs":[{"name":"account","type":"address","internalType":"address"}]},{"type":"error","name":"StringsInsufficientHexLength","inputs":[{"name":"value","type":"uint256","internalType":"uint256"},{"name":"length","type":"uint256","internalType":"uint256"}]},{"type":"error","name":"UUPSUnauthorizedCallContext","inputs":[]},{"type":"error","name":"UUPSUnsupportedProxiableUUID","inputs":[{"name":"slot","type":"bytes32","internalType":"bytes32"}]}],"bytecode":{"object":"0x60a06040523073ffffffffffffffffffffffffffffffffffffffff1660809073ffffffffffffffffffffffffffffffffffffffff16815250348015610042575f5ffd5b5061005161005660201b60201c565b6101d1565b5f61006561015460201b60201c565b9050805f0160089054906101000a900460ff16156100af576040517ff92ee8a900000000000000000000000000000000000000000000000000000000815260040160405180910390fd5b67ffffffffffffffff8016815f015f9054906101000a900467ffffffffffffffff1667ffffffffffffffff16146101515767ffffffffffffffff815f015f6101000a81548167ffffffffffffffff021916908367ffffffffffffffff1602179055507fc7f505b2f371ae2175ee4913f4499e1f2633a7b5936321eed1cdaeb6115181d267ffffffffffffffff60405161014891906101b8565b60405180910390a15b50565b5f5f61016461016d60201b60201c565b90508091505090565b5f7ff0c57e16840df040f15088dc2f81fe391c3923bec73e23a9662efc9c229c6a005f1b905090565b5f67ffffffffffffffff82169050919050565b6101b281610196565b82525050565b5f6020820190506101cb5f8301846101a9565b92915050565b6080516158e86101f75f395f8181612c9201528181612ce70152612ea101526158e85ff3fe608060405260043610610266575f3560e01c806375794a3c11610143578063cb3022ff116100b5578063e8c4039211610079578063e8c40392146109a0578063e985e9c5146109dc578063eef4933714610a18578063f2fde38b14610a54578063f931544b14610a7c578063fb0135d114610aa457610266565b8063cb3022ff14610888578063d5db72eb146108c4578063da7fc24f14610900578063df806be714610928578063e349566c1461096457610266565b8063a22cb46511610107578063a22cb4651461076e578063a483e61414610796578063ad3cb1cc146107d2578063b88d4fde146107fc578063c1bf1dcf14610824578063c87b56dd1461084c57610266565b806375794a3c146106785780638a58e44c146106a25780638c7ddefc146106de5780638da5cb5b1461071a57806395d89b411461074457610266565b806342842e0e116101dc57806352d1902d116101a057806352d1902d1461055c57806355f804b31461058657806360f55375146105ae5780636352211e146105ea57806370a0823114610626578063715018a61461066257610266565b806342842e0e1461047857806342966c68146104a05780634dde7105146104c85780634f1ef2861461050457806351be10d61461052057610266565b8063099e41331161022e578063099e41331461037257806317c6f2de1461039c57806323b872dd146103c457806328ccf844146103ec5780633e536cc1146104145780633f0ccf6a1461045057610266565b806301ffc9a71461026a57806303c45cf5146102a657806306fdde03146102e4578063081812fc1461030e578063095ea7b31461034a575b5f5ffd5b348015610275575f5ffd5b50610290600480360381019061028b91906143fb565b610acc565b60405161029d9190614440565b60405180910390f35b3480156102b1575f5ffd5b506102cc60048036038101906102c7919061448c565b610bad565b6040516102db9392919061459a565b60405180910390f35b3480156102ef575f5ffd5b506102f8610c82565b60405161030591906145d6565b60405180910390f35b348015610319575f5ffd5b50610334600480360381019061032f9190614629565b610d1f565b6040516103419190614693565b60405180910390f35b348015610355575f5ffd5b50610370600480360381019061036b91906146d6565b610d3a565b005b34801561037d575f5ffd5b50610386610d6c565b6040516103939190614693565b60405180910390f35b3480156103a7575f5ffd5b506103c260048036038101906103bd9190614737565b610d90565b005b3480156103cf575f5ffd5b506103ea60048036038101906103e59190614775565b610e78565b005b3480156103f7575f5ffd5b50610412600480360381019061040d91906148f1565b610f77565b005b34801561041f575f5ffd5b5061043a60048036038101906104359190614a19565b611193565b6040516104479190614a85565b60405180910390f35b34801561045b575f5ffd5b5061047660048036038101906104719190614a9e565b6111c8565b005b348015610483575f5ffd5b5061049e60048036038101906104999190614775565b611295565b005b3480156104ab575f5ffd5b506104c660048036038101906104c19190614629565b6112b4565b005b3480156104d3575f5ffd5b506104ee60048036038101906104e99190614afb565b6113c7565b6040516104fb9190614b48565b60405180910390f35b61051e60048036038101906105199190614bff565b6113e7565b005b34801561052b575f5ffd5b5061054660048036038101906105419190614629565b611406565b6040516105539190614a85565b60405180910390f35b348015610567575f5ffd5b5061057061141b565b60405161057d9190614a85565b60405180910390f35b348015610591575f5ffd5b506105ac60048036038101906105a79190614c59565b61144c565b005b3480156105b9575f5ffd5b506105d460048036038101906105cf9190614afb565b6114a3565b6040516105e19190614440565b60405180910390f35b3480156105f5575f5ffd5b50610610600480360381019061060b9190614629565b611553565b60405161061d9190614693565b60405180910390f35b348015610631575f5ffd5b5061064c60048036038101906106479190614ca4565b611564565b6040516106599190614b48565b60405180910390f35b34801561066d575f5ffd5b50610676611628565b005b348015610683575f5ffd5b5061068c61163b565b6040516106999190614b48565b60405180910390f35b3480156106ad575f5ffd5b506106c860048036038101906106c39190614ccf565b611641565b6040516106d59190614b48565b60405180910390f35b3480156106e9575f5ffd5b5061070460048036038101906106ff9190614da6565b6118b4565b6040516107119190614440565b60405180910390f35b348015610725575f5ffd5b5061072e611966565b60405161073b9190614693565b60405180910390f35b34801561074f575f5ffd5b5061075861199b565b60405161076591906145d6565b60405180910390f35b348015610779575f5ffd5b50610794600480360381019061078f9190614e20565b611a39565b005b3480156107a1575f5ffd5b506107bc60048036038101906107b7919061448c565b611a6b565b6040516107c99190614b48565b60405180910390f35b3480156107dd575f5ffd5b506107e6611a88565b6040516107f391906145d6565b60405180910390f35b348015610807575f5ffd5b50610822600480360381019061081d9190614e5e565b611ac1565b005b34801561082f575f5ffd5b5061084a60048036038101906108459190614e20565b611ae6565b005b348015610857575f5ffd5b50610872600480360381019061086d9190614629565b611b94565b60405161087f91906145d6565b60405180910390f35b348015610893575f5ffd5b506108ae60048036038101906108a99190614ede565b611cd3565b6040516108bb9190614440565b60405180910390f35b3480156108cf575f5ffd5b506108ea60048036038101906108e59190614ca4565b611d2c565b6040516108f79190614440565b60405180910390f35b34801561090b575f5ffd5b5061092660048036038101906109219190614ca4565b611d49565b005b348015610933575f5ffd5b5061094e60048036038101906109499190614ca4565b611d93565b60405161095b9190614fd3565b60405180910390f35b34801561096f575f5ffd5b5061098a60048036038101906109859190614afb565b611e26565b6040516109979190614440565b60405180910390f35b3480156109ab575f5ffd5b506109c660048036038101906109c19190614ca4565b611e7f565b6040516109d39190614fd3565b60405180910390f35b3480156109e7575f5ffd5b50610a0260048036038101906109fd9190614ff3565b611f12565b604051610a0f9190614440565b60405180910390f35b348015610a23575f5ffd5b50610a3e6004803603810190610a399190615031565b611fae565b604051610a4b9190614693565b60405180910390f35b348015610a5f575f5ffd5b50610a7a6004803603810190610a759190614ca4565b612002565b005b348015610a87575f5ffd5b50610aa26004803603810190610a9d919061448c565b612086565b005b348015610aaf575f5ffd5b50610aca6004803603810190610ac5919061448c565b612359565b005b5f7f80ac58cd000000000000000000000000000000000000000000000000000000007bffffffffffffffffffffffffffffffffffffffffffffffffffffffff1916827bffffffffffffffffffffffffffffffffffffffffffffffffffffffff19161480610b9657507f5b5e139f000000000000000000000000000000000000000000000000000000007bffffffffffffffffffffffffffffffffffffffffffffffffffffffff1916827bffffffffffffffffffffffffffffffffffffffffffffffffffffffff1916145b80610ba65750610ba5826123f8565b5b9050919050565b5f5f60605f60035f8681526020019081526020015f209050805f0160019054906101000a900460ff16815f015f9054906101000a900460ff1682600101808054610bf69061509c565b80601f0160208091040260200160405190810160405280929190818152602001828054610c229061509c565b8015610c6d5780601f10610c4457610100808354040283529160200191610c6d565b820191905f5260205f20905b815481529060010190602001808311610c5057829003601f168201915b50505050509050935093509350509193909250565b60605f610c8d612461565b9050805f018054610c9d9061509c565b80601f0160208091040260200160405190810160405280929190818152602001828054610cc99061509c565b8015610d145780601f10610ceb57610100808354040283529160200191610d14565b820191905f5260205f20905b815481529060010190602001808311610cf757829003601f168201915b505050505091505090565b5f610d2982612488565b50610d338261250e565b9050919050565b6040517f9cbe235700000000000000000000000000000000000000000000000000000000815260040160405180910390fd5b5f5f9054906101000a900473ffffffffffffffffffffffffffffffffffffffff1681565b610d98612555565b60035f8381526020019081526020015f205f0160019054906101000a900460ff16610dfa57816040517f5f561149000000000000000000000000000000000000000000000000000000008152600401610df19190614a85565b60405180910390fd5b8060035f8481526020019081526020015f205f015f6101000a81548160ff02191690836006811115610e2f57610e2e6144b7565b5b0217905550806006811115610e4757610e466144b7565b5b827f5e58f607797e522f8927a1276deb9767f5bbf3d3183b2f0b475a9f662a8155fb60405160405180910390a35050565b5f73ffffffffffffffffffffffffffffffffffffffff168273ffffffffffffffffffffffffffffffffffffffff1603610ee8575f6040517f64a0ae92000000000000000000000000000000000000000000000000000000008152600401610edf9190614693565b60405180910390fd5b5f610efb8383610ef66125dc565b6125e3565b90508373ffffffffffffffffffffffffffffffffffffffff168173ffffffffffffffffffffffffffffffffffffffff1614610f71578382826040517f64283d7b000000000000000000000000000000000000000000000000000000008152600401610f68939291906150cc565b60405180910390fd5b50505050565b5f610f806126a4565b90505f815f0160089054906101000a900460ff161590505f825f015f9054906101000a900467ffffffffffffffff1690505f5f8267ffffffffffffffff16148015610fc85750825b90505f60018367ffffffffffffffff16148015610ffb57505f3073ffffffffffffffffffffffffffffffffffffffff163b145b905081158015611009575080155b15611040576040517ff92ee8a900000000000000000000000000000000000000000000000000000000815260040160405180910390fd5b6001855f015f6101000a81548167ffffffffffffffff021916908367ffffffffffffffff160217905550831561108d576001855f0160086101000a81548160ff0219169083151502179055505b6110978a8a6126b7565b6110a0886126cd565b6001808190555086600290816110b691906152a1565b50855f5f6101000a81548173ffffffffffffffffffffffffffffffffffffffff021916908373ffffffffffffffffffffffffffffffffffffffff1602179055507ff9c7803e94e0d3c02900d8a90893a6d5e90dd04d32a4cfe825520f82bf9f32f68760405161112591906145d6565b60405180910390a18315611187575f855f0160086101000a81548160ff0219169083151502179055507fc7f505b2f371ae2175ee4913f4499e1f2633a7b5936321eed1cdaeb6115181d2600160405161117e91906153bc565b60405180910390a15b50505050505050505050565b5f8383836040516020016111a993929190615401565b6040516020818303038152906040528051906020012090509392505050565b6111d0612555565b60035f8481526020019081526020015f205f0160019054906101000a900460ff1661123257826040517f5f5611490000000000000000000000000000000000000000000000000000000081526004016112299190614a85565b60405180910390fd5b818160035f8681526020019081526020015f20600101918261125592919061543b565b50827f128d101613c44f2aae6cacfa4019f25a11aa46b307c8cd82b14d73f0c673bd9e8383604051611288929190615508565b60405180910390a2505050565b6112af83838360405180602001604052805f815250611ac1565b505050565b3373ffffffffffffffffffffffffffffffffffffffff166112d482611553565b73ffffffffffffffffffffffffffffffffffffffff161461132e5733816040517f58a5e22200000000000000000000000000000000000000000000000000000000815260040161132592919061552a565b60405180910390fd5b5f60045f8381526020019081526020015f2054905060045f8381526020019081526020015f205f905560055f3373ffffffffffffffffffffffffffffffffffffffff1673ffffffffffffffffffffffffffffffffffffffff1681526020019081526020015f205f8281526020019081526020015f205f90556113b033836126e1565b6113ba3382612972565b6113c382612c0e565b5050565b6005602052815f5260405f20602052805f5260405f205f91509150505481565b6113ef612c90565b6113f882612d76565b6114028282612d81565b5050565b6004602052805f5260405f205f915090505481565b5f611424612e9f565b7f360894a13ba1a3210667c828492db98dca3e2076cc3735a920a3ca505d382bbc5f1b905090565b611454612555565b81816002918261146592919061543b565b507ff9c7803e94e0d3c02900d8a90893a6d5e90dd04d32a4cfe825520f82bf9f32f68282604051611497929190615508565b60405180910390a15050565b5f5f60055f8573ffffffffffffffffffffffffffffffffffffffff1673ffffffffffffffffffffffffffffffffffffffff1681526020019081526020015f205f8481526020019081526020015f20541415801561154b57505f60095f8481526020019081526020015f205f8573ffffffffffffffffffffffffffffffffffffffff1673ffffffffffffffffffffffffffffffffffffffff1681526020019081526020015f2054145b905092915050565b5f61155d82612488565b9050919050565b5f5f61156e612461565b90505f73ffffffffffffffffffffffffffffffffffffffff168373ffffffffffffffffffffffffffffffffffffffff16036115e0575f6040517f89c62b640000000000000000000000000000000000000000000000000000000081526004016115d79190614693565b60405180910390fd5b806003015f8473ffffffffffffffffffffffffffffffffffffffff1673ffffffffffffffffffffffffffffffffffffffff1681526020019081526020015f2054915050919050565b611630612555565b6116395f612f26565b565b60015481565b5f5f5f9054906101000a900473ffffffffffffffffffffffffffffffffffffffff1673ffffffffffffffffffffffffffffffffffffffff163373ffffffffffffffffffffffffffffffffffffffff16146116d257336040517f912e41bc0000000000000000000000000000000000000000000000000000000081526004016116c99190614693565b60405180910390fd5b5f6116de898989611193565b905060035f8281526020019081526020015f205f0160019054906101000a900460ff1661189b5760405180608001604052808a6006811115611723576117226144b7565b5b815260200160011515815260200187878080601f0160208091040260200160405190810160405280939291908181526020018383808284375f81840152601f19601f82011690508083019250505050505050815260200185858080601f0160208091040260200160405190810160405280939291908181526020018383808284375f81840152601f19601f8201169050808301925050505050505081525060035f8381526020019081526020015f205f820151815f015f6101000a81548160ff021916908360068111156117fa576117f96144b7565b5b02179055506020820151815f0160016101000a81548160ff021916908315150217905550604082015181600101908161183391906152a1565b50606082015181600201908161184991906152a1565b509050508860068111156118605761185f6144b7565b5b817f21180c14d4f0df793d818669c5da02b6b12e747ecbad50fd973a1bf7247af5c68888604051611892929190615508565b60405180910390a35b6118a58a82612ff7565b91505098975050505050505050565b5f5f60055f8673ffffffffffffffffffffffffffffffffffffffff1673ffffffffffffffffffffffffffffffffffffffff1681526020019081526020015f205f8481526020019081526020015f20541415801561195d57505f60055f8573ffffffffffffffffffffffffffffffffffffffff1673ffffffffffffffffffffffffffffffffffffffff1681526020019081526020015f205f8481526020019081526020015f205414155b90509392505050565b5f5f611970613250565b9050805f015f9054906101000a900473ffffffffffffffffffffffffffffffffffffffff1691505090565b60605f6119a6612461565b90508060010180546119b79061509c565b80601f01602080910402602001604051908101604052809291908181526020018280546119e39061509c565b8015611a2e5780601f10611a0557610100808354040283529160200191611a2e565b820191905f5260205f20905b815481529060010190602001808311611a1157829003601f168201915b505050505091505090565b6040517f9cbe235700000000000000000000000000000000000000000000000000000000815260040160405180910390fd5b5f60085f8381526020019081526020015f20805490509050919050565b6040518060400160405280600581526020017f352e302e3000000000000000000000000000000000000000000000000000000081525081565b611acc848484610e78565b611ae0611ad76125dc565b85858585613277565b50505050565b611aee612555565b80600a5f8473ffffffffffffffffffffffffffffffffffffffff1673ffffffffffffffffffffffffffffffffffffffff1681526020019081526020015f205f6101000a81548160ff0219169083151502179055508173ffffffffffffffffffffffffffffffffffffffff167fb5e93f625be9cf4b25a2f505df040e38bd35ed584b62730dd64b7eaf145e8c6e82604051611b889190614440565b60405180910390a25050565b6060611b9f82612488565b505f60045f8481526020019081526020015f205490505f60035f8381526020019081526020015f206001018054611bd59061509c565b80601f0160208091040260200160405190810160405280929190818152602001828054611c019061509c565b8015611c4c5780601f10611c2357610100808354040283529160200191611c4c565b820191905f5260205f20905b815481529060010190602001808311611c2f57829003601f168201915b505050505090505f815114611c65578092505050611cce565b5f611c6e613423565b90505f815103611c915760405180602001604052805f8152509350505050611cce565b80611ca86020855f1c6134b390919063ffffffff16565b604051602001611cb992919061558b565b60405160208183030381529060405293505050505b919050565b5f5f60095f8581526020019081526020015f205f8473ffffffffffffffffffffffffffffffffffffffff1673ffffffffffffffffffffffffffffffffffffffff1681526020019081526020015f20541415905092915050565b600a602052805f5260405f205f915054906101000a900460ff1681565b611d51612555565b805f5f6101000a81548173ffffffffffffffffffffffffffffffffffffffff021916908373ffffffffffffffffffffffffffffffffffffffff16021790555050565b606060065f8373ffffffffffffffffffffffffffffffffffffffff1673ffffffffffffffffffffffffffffffffffffffff1681526020019081526020015f20805480602002602001604051908101604052809291908181526020018280548015611e1a57602002820191905f5260205f20905b815481526020019060010190808311611e06575b50505050509050919050565b5f5f60055f8573ffffffffffffffffffffffffffffffffffffffff1673ffffffffffffffffffffffffffffffffffffffff1681526020019081526020015f205f8481526020019081526020015f20541415905092915050565b606060065f8373ffffffffffffffffffffffffffffffffffffffff1673ffffffffffffffffffffffffffffffffffffffff1681526020019081526020015f20805480602002602001604051908101604052809291908181526020018280548015611f0657602002820191905f5260205f20905b815481526020019060010190808311611ef2575b50505050509050919050565b5f5f611f1c612461565b9050806005015f8573ffffffffffffffffffffffffffffffffffffffff1673ffffffffffffffffffffffffffffffffffffffff1681526020019081526020015f205f8473ffffffffffffffffffffffffffffffffffffffff1673ffffffffffffffffffffffffffffffffffffffff1681526020019081526020015f205f9054906101000a900460ff1691505092915050565b5f60085f8481526020019081526020015f208281548110611fd257611fd16155ae565b5b905f5260205f20015f9054906101000a900473ffffffffffffffffffffffffffffffffffffffff16905092915050565b61200a612555565b5f73ffffffffffffffffffffffffffffffffffffffff168173ffffffffffffffffffffffffffffffffffffffff160361207a575f6040517f1e4fbdf70000000000000000000000000000000000000000000000000000000081526004016120719190614693565b60405180910390fd5b61208381612f26565b50565b5f60095f8381526020019081526020015f205f3373ffffffffffffffffffffffffffffffffffffffff1673ffffffffffffffffffffffffffffffffffffffff1681526020019081526020015f205490505f810361211c5733826040517f5edac1990000000000000000000000000000000000000000000000000000000081526004016121139291906155db565b60405180910390fd5b5f60018261212a919061562f565b90505f600160085f8681526020019081526020015f208054905061214e919061562f565b905080821461226d575f60085f8681526020019081526020015f20828154811061217b5761217a6155ae565b5b905f5260205f20015f9054906101000a900473ffffffffffffffffffffffffffffffffffffffff1690508060085f8781526020019081526020015f2084815481106121c9576121c86155ae565b5b905f5260205f20015f6101000a81548173ffffffffffffffffffffffffffffffffffffffff021916908373ffffffffffffffffffffffffffffffffffffffff16021790555060018361221b9190615662565b60095f8781526020019081526020015f205f8373ffffffffffffffffffffffffffffffffffffffff1673ffffffffffffffffffffffffffffffffffffffff1681526020019081526020015f2081905550505b60085f8581526020019081526020015f2080548061228e5761228d615695565b5b600190038181905f5260205f20015f6101000a81549073ffffffffffffffffffffffffffffffffffffffff0219169055905560095f8581526020019081526020015f205f3373ffffffffffffffffffffffffffffffffffffffff1673ffffffffffffffffffffffffffffffffffffffff1681526020019081526020015f205f9055833373ffffffffffffffffffffffffffffffffffffffff167f43771741ded2837cf411975e50f291a36f7cb2d43b6b6359aa611180020cfbeb60405160405180910390a350505050565b5f60055f3373ffffffffffffffffffffffffffffffffffffffff1673ffffffffffffffffffffffffffffffffffffffff1681526020019081526020015f205f8381526020019081526020015f2054036123eb5733816040517f9f64d5120000000000000000000000000000000000000000000000000000000081526004016123e29291906155db565b60405180910390fd5b6123f533826136f1565b50565b5f7f01ffc9a7000000000000000000000000000000000000000000000000000000007bffffffffffffffffffffffffffffffffffffffffffffffffffffffff1916827bffffffffffffffffffffffffffffffffffffffffffffffffffffffff1916149050919050565b5f7f80bb2b638cc20bc4d0a60d66940f3ab4a00c1d7b313497ca82fb0b4ab0079300905090565b5f5f61249383613861565b90505f73ffffffffffffffffffffffffffffffffffffffff168173ffffffffffffffffffffffffffffffffffffffff160361250557826040517f7e2732890000000000000000000000000000000000000000000000000000000081526004016124fc9190614b48565b60405180910390fd5b80915050919050565b5f5f612518612461565b9050806004015f8481526020019081526020015f205f9054906101000a900473ffffffffffffffffffffffffffffffffffffffff16915050919050565b61255d6125dc565b73ffffffffffffffffffffffffffffffffffffffff1661257b611966565b73ffffffffffffffffffffffffffffffffffffffff16146125da5761259e6125dc565b6040517f118cdaa70000000000000000000000000000000000000000000000000000000081526004016125d19190614693565b60405180910390fd5b565b5f33905090565b5f5f6125ee84613861565b90505f73ffffffffffffffffffffffffffffffffffffffff168173ffffffffffffffffffffffffffffffffffffffff161415801561265857505f73ffffffffffffffffffffffffffffffffffffffff168573ffffffffffffffffffffffffffffffffffffffff1614155b1561268f576040517f9cbe235700000000000000000000000000000000000000000000000000000000815260040160405180910390fd5b61269a8585856138a8565b9150509392505050565b5f5f6126ae613ac5565b90508091505090565b6126bf613aee565b6126c98282613b2e565b5050565b6126d5613aee565b6126de81613b69565b50565b5f60075f8473ffffffffffffffffffffffffffffffffffffffff1673ffffffffffffffffffffffffffffffffffffffff1681526020019081526020015f205f8381526020019081526020015f205490505f810361273e575061296e565b5f60018261274c919061562f565b90505f600160065f8773ffffffffffffffffffffffffffffffffffffffff1673ffffffffffffffffffffffffffffffffffffffff1681526020019081526020015f208054905061279c919061562f565b90508082146128bb575f60065f8773ffffffffffffffffffffffffffffffffffffffff1673ffffffffffffffffffffffffffffffffffffffff1681526020019081526020015f2082815481106127f5576127f46155ae565b5b905f5260205f20015490508060065f8873ffffffffffffffffffffffffffffffffffffffff1673ffffffffffffffffffffffffffffffffffffffff1681526020019081526020015f2084815481106128505761284f6155ae565b5b905f5260205f2001819055506001836128699190615662565b60075f8873ffffffffffffffffffffffffffffffffffffffff1673ffffffffffffffffffffffffffffffffffffffff1681526020019081526020015f205f8381526020019081526020015f2081905550505b60065f8673ffffffffffffffffffffffffffffffffffffffff1673ffffffffffffffffffffffffffffffffffffffff1681526020019081526020015f2080548061290857612907615695565b5b600190038181905f5260205f20015f9055905560075f8673ffffffffffffffffffffffffffffffffffffffff1673ffffffffffffffffffffffffffffffffffffffff1681526020019081526020015f205f8581526020019081526020015f205f90555050505b5050565b5f60095f8381526020019081526020015f205f8473ffffffffffffffffffffffffffffffffffffffff1673ffffffffffffffffffffffffffffffffffffffff1681526020019081526020015f205490505f81036129cf5750612c0a565b5f6001826129dd919061562f565b90505f600160085f8681526020019081526020015f2080549050612a01919061562f565b9050808214612b20575f60085f8681526020019081526020015f208281548110612a2e57612a2d6155ae565b5b905f5260205f20015f9054906101000a900473ffffffffffffffffffffffffffffffffffffffff1690508060085f8781526020019081526020015f208481548110612a7c57612a7b6155ae565b5b905f5260205f20015f6101000a81548173ffffffffffffffffffffffffffffffffffffffff021916908373ffffffffffffffffffffffffffffffffffffffff160217905550600183612ace9190615662565b60095f8781526020019081526020015f205f8373ffffffffffffffffffffffffffffffffffffffff1673ffffffffffffffffffffffffffffffffffffffff1681526020019081526020015f2081905550505b60085f8581526020019081526020015f20805480612b4157612b40615695565b5b600190038181905f5260205f20015f6101000a81549073ffffffffffffffffffffffffffffffffffffffff0219169055905560095f8581526020019081526020015f205f8673ffffffffffffffffffffffffffffffffffffffff1673ffffffffffffffffffffffffffffffffffffffff1681526020019081526020015f205f9055838573ffffffffffffffffffffffffffffffffffffffff167f43771741ded2837cf411975e50f291a36f7cb2d43b6b6359aa611180020cfbeb60405160405180910390a35050505b5050565b5f612c1a5f835f6125e3565b90505f73ffffffffffffffffffffffffffffffffffffffff168173ffffffffffffffffffffffffffffffffffffffff1603612c8c57816040517f7e273289000000000000000000000000000000000000000000000000000000008152600401612c839190614b48565b60405180910390fd5b5050565b7f000000000000000000000000000000000000000000000000000000000000000073ffffffffffffffffffffffffffffffffffffffff163073ffffffffffffffffffffffffffffffffffffffff161480612d3d57507f000000000000000000000000000000000000000000000000000000000000000073ffffffffffffffffffffffffffffffffffffffff16612d24613bed565b73ffffffffffffffffffffffffffffffffffffffff1614155b15612d74576040517fe07c8dba00000000000000000000000000000000000000000000000000000000815260040160405180910390fd5b565b612d7e612555565b50565b8173ffffffffffffffffffffffffffffffffffffffff166352d1902d6040518163ffffffff1660e01b8152600401602060405180830381865afa925050508015612de957506040513d601f19601f82011682018060405250810190612de691906156d6565b60015b612e2a57816040517f4c9c8ce3000000000000000000000000000000000000000000000000000000008152600401612e219190614693565b60405180910390fd5b7f360894a13ba1a3210667c828492db98dca3e2076cc3735a920a3ca505d382bbc5f1b8114612e9057806040517faa1d49a4000000000000000000000000000000000000000000000000000000008152600401612e879190614a85565b60405180910390fd5b612e9a8383613c40565b505050565b7f000000000000000000000000000000000000000000000000000000000000000073ffffffffffffffffffffffffffffffffffffffff163073ffffffffffffffffffffffffffffffffffffffff1614612f24576040517fe07c8dba00000000000000000000000000000000000000000000000000000000815260040160405180910390fd5b565b5f612f2f613250565b90505f815f015f9054906101000a900473ffffffffffffffffffffffffffffffffffffffff16905082825f015f6101000a81548173ffffffffffffffffffffffffffffffffffffffff021916908373ffffffffffffffffffffffffffffffffffffffff1602179055508273ffffffffffffffffffffffffffffffffffffffff168173ffffffffffffffffffffffffffffffffffffffff167f8be0079c531659141344cd1fd0a4f28419497f9722a3daafe3b4186f6b6457e060405160405180910390a3505050565b5f5f60055f8573ffffffffffffffffffffffffffffffffffffffff1673ffffffffffffffffffffffffffffffffffffffff1681526020019081526020015f205f8481526020019081526020015f20541461308a5782826040517f71d50c230000000000000000000000000000000000000000000000000000000081526004016130819291906155db565b60405180910390fd5b60015f81548092919061309c90615701565b9190505590508160045f8381526020019081526020015f20819055508060055f8573ffffffffffffffffffffffffffffffffffffffff1673ffffffffffffffffffffffffffffffffffffffff1681526020019081526020015f205f8481526020019081526020015f20819055506131138382613cb2565b60065f8473ffffffffffffffffffffffffffffffffffffffff1673ffffffffffffffffffffffffffffffffffffffff1681526020019081526020015f2081908060018154018082558091505060019003905f5260205f20015f909190919091505560065f8473ffffffffffffffffffffffffffffffffffffffff1673ffffffffffffffffffffffffffffffffffffffff1681526020019081526020015f208054905060075f8573ffffffffffffffffffffffffffffffffffffffff1673ffffffffffffffffffffffffffffffffffffffff1681526020019081526020015f205f8381526020019081526020015f208190555080828473ffffffffffffffffffffffffffffffffffffffff167f0a52ef355ebfc3b1bbd9448fee4e157b2d4e5035421d4e6d3029d7e33cef727e60405160405180910390a492915050565b5f7f9016d09d72d40fdae2fd8ceac6b6234c7706214fd39c1cd1e609a0528c199300905090565b5f8373ffffffffffffffffffffffffffffffffffffffff163b111561341c578273ffffffffffffffffffffffffffffffffffffffff1663150b7a02868685856040518563ffffffff1660e01b81526004016132d5949392919061579a565b6020604051808303815f875af192505050801561331057506040513d601f19601f8201168201806040525081019061330d91906157f8565b60015b613391573d805f811461333e576040519150601f19603f3d011682016040523d82523d5f602084013e613343565b606091505b505f81510361338957836040517f64a0ae920000000000000000000000000000000000000000000000000000000081526004016133809190614693565b60405180910390fd5b805160208201fd5b63150b7a0260e01b7bffffffffffffffffffffffffffffffffffffffffffffffffffffffff1916817bffffffffffffffffffffffffffffffffffffffffffffffffffffffff19161461341a57836040517f64a0ae920000000000000000000000000000000000000000000000000000000081526004016134119190614693565b60405180910390fd5b505b5050505050565b6060600280546134329061509c565b80601f016020809104026020016040519081016040528092919081815260200182805461345e9061509c565b80156134a95780601f10613480576101008083540402835291602001916134a9565b820191905f5260205f20905b81548152906001019060200180831161348c57829003601f168201915b5050505050905090565b60605f8390505f60028460026134c99190615823565b6134d39190615662565b67ffffffffffffffff8111156134ec576134eb6147cd565b5b6040519080825280601f01601f19166020018201604052801561351e5781602001600182028036833780820191505090505b5090507f3000000000000000000000000000000000000000000000000000000000000000815f81518110613555576135546155ae565b5b60200101907effffffffffffffffffffffffffffffffffffffffffffffffffffffffffffff191690815f1a9053507f7800000000000000000000000000000000000000000000000000000000000000816001815181106135b8576135b76155ae565b5b60200101907effffffffffffffffffffffffffffffffffffffffffffffffffffffffffffff191690815f1a9053505f60018560026135f69190615823565b6136009190615662565b90505b600181111561369f577f3031323334353637383961626364656600000000000000000000000000000000600f841660108110613642576136416155ae565b5b1a60f81b828281518110613659576136586155ae565b5b60200101907effffffffffffffffffffffffffffffffffffffffffffffffffffffffffffff191690815f1a905350600483901c92508061369890615864565b9050613603565b505f82146136e65784846040517fe22e27eb0000000000000000000000000000000000000000000000000000000081526004016136dd92919061588b565b60405180910390fd5b809250505092915050565b5f60095f8381526020019081526020015f205f8473ffffffffffffffffffffffffffffffffffffffff1673ffffffffffffffffffffffffffffffffffffffff1681526020019081526020015f20540361385d5760085f8281526020019081526020015f2082908060018154018082558091505060019003905f5260205f20015f9091909190916101000a81548173ffffffffffffffffffffffffffffffffffffffff021916908373ffffffffffffffffffffffffffffffffffffffff16021790555060085f8281526020019081526020015f208054905060095f8381526020019081526020015f205f8473ffffffffffffffffffffffffffffffffffffffff1673ffffffffffffffffffffffffffffffffffffffff1681526020019081526020015f2081905550808273ffffffffffffffffffffffffffffffffffffffff167fec245c738c3c29fffbbe0748680bbf86b19b847eeaa723bfbeb563f44ab503f260405160405180910390a35b5050565b5f5f61386b612461565b9050806002015f8481526020019081526020015f205f9054906101000a900473ffffffffffffffffffffffffffffffffffffffff16915050919050565b5f5f6138b2612461565b90505f6138be85613861565b90505f73ffffffffffffffffffffffffffffffffffffffff168473ffffffffffffffffffffffffffffffffffffffff16146138ff576138fe818587613ccf565b5b5f73ffffffffffffffffffffffffffffffffffffffff168173ffffffffffffffffffffffffffffffffffffffff161461398c5761393e5f865f5f613d92565b6001826003015f8373ffffffffffffffffffffffffffffffffffffffff1673ffffffffffffffffffffffffffffffffffffffff1681526020019081526020015f205f82825403925050819055505b5f73ffffffffffffffffffffffffffffffffffffffff168673ffffffffffffffffffffffffffffffffffffffff1614613a0d576001826003015f8873ffffffffffffffffffffffffffffffffffffffff1673ffffffffffffffffffffffffffffffffffffffff1681526020019081526020015f205f82825401925050819055505b85826002015f8781526020019081526020015f205f6101000a81548173ffffffffffffffffffffffffffffffffffffffff021916908373ffffffffffffffffffffffffffffffffffffffff160217905550848673ffffffffffffffffffffffffffffffffffffffff168273ffffffffffffffffffffffffffffffffffffffff167fddf252ad1be2c89b69c2b068fc378daa952ba7f163c4a11628f55a4df523b3ef60405160405180910390a480925050509392505050565b5f7ff0c57e16840df040f15088dc2f81fe391c3923bec73e23a9662efc9c229c6a005f1b905090565b613af6613f5f565b613b2c576040517fd7e6bcf800000000000000000000000000000000000000000000000000000000815260040160405180910390fd5b565b613b36613aee565b5f613b3f612461565b905082815f019081613b5191906152a1565b5081816001019081613b6391906152a1565b50505050565b613b71613aee565b5f73ffffffffffffffffffffffffffffffffffffffff168173ffffffffffffffffffffffffffffffffffffffff1603613be1575f6040517f1e4fbdf7000000000000000000000000000000000000000000000000000000008152600401613bd89190614693565b60405180910390fd5b613bea81612f26565b50565b5f613c197f360894a13ba1a3210667c828492db98dca3e2076cc3735a920a3ca505d382bbc5f1b613f7d565b5f015f9054906101000a900473ffffffffffffffffffffffffffffffffffffffff16905090565b613c4982613f86565b8173ffffffffffffffffffffffffffffffffffffffff167fbc7cd75a20ee27fd9adebab32041f755214dbc6bffa90cc0225b39da2e5c2d3b60405160405180910390a25f81511115613ca557613c9f828261404f565b50613cae565b613cad614140565b5b5050565b613ccb828260405180602001604052805f81525061417c565b5050565b613cda83838361419f565b613d8d575f73ffffffffffffffffffffffffffffffffffffffff168373ffffffffffffffffffffffffffffffffffffffff1603613d4e57806040517f7e273289000000000000000000000000000000000000000000000000000000008152600401613d459190614b48565b60405180910390fd5b81816040517f177e802f000000000000000000000000000000000000000000000000000000008152600401613d8492919061552a565b60405180910390fd5b505050565b5f613d9b612461565b90508180613dd557505f73ffffffffffffffffffffffffffffffffffffffff168373ffffffffffffffffffffffffffffffffffffffff1614155b15613f07575f613de485612488565b90505f73ffffffffffffffffffffffffffffffffffffffff168473ffffffffffffffffffffffffffffffffffffffff1614158015613e4e57508373ffffffffffffffffffffffffffffffffffffffff168173ffffffffffffffffffffffffffffffffffffffff1614155b8015613e615750613e5f8185611f12565b155b15613ea357836040517fa9fbf51f000000000000000000000000000000000000000000000000000000008152600401613e9a9190614693565b60405180910390fd5b8215613f0557848673ffffffffffffffffffffffffffffffffffffffff168273ffffffffffffffffffffffffffffffffffffffff167f8c5be1e5ebec7d5bd14f71427d1e84f3dd0314c0f7b2291e5b200ac8c7c3b92560405160405180910390a45b505b84816004015f8681526020019081526020015f205f6101000a81548173ffffffffffffffffffffffffffffffffffffffff021916908373ffffffffffffffffffffffffffffffffffffffff1602179055505050505050565b5f613f686126a4565b5f0160089054906101000a900460ff16905090565b5f819050919050565b5f8173ffffffffffffffffffffffffffffffffffffffff163b03613fe157806040517f4c9c8ce3000000000000000000000000000000000000000000000000000000008152600401613fd89190614693565b60405180910390fd5b8061400d7f360894a13ba1a3210667c828492db98dca3e2076cc3735a920a3ca505d382bbc5f1b613f7d565b5f015f6101000a81548173ffffffffffffffffffffffffffffffffffffffff021916908373ffffffffffffffffffffffffffffffffffffffff16021790555050565b60605f61405c848461425f565b905080801561409257505f61406f614273565b118061409157505f8473ffffffffffffffffffffffffffffffffffffffff163b115b5b156140a75761409f61427a565b91505061413a565b80156140ea57836040517f9996b3150000000000000000000000000000000000000000000000000000000081526004016140e19190614693565b60405180910390fd5b5f6140f3614273565b111561410657614101614297565b614138565b6040517fd6bda27500000000000000000000000000000000000000000000000000000000815260040160405180910390fd5b505b92915050565b5f34111561417a576040517fb398979f00000000000000000000000000000000000000000000000000000000815260040160405180910390fd5b565b61418683836142a2565b61419a6141916125dc565b5f858585613277565b505050565b5f5f73ffffffffffffffffffffffffffffffffffffffff168373ffffffffffffffffffffffffffffffffffffffff161415801561425657508273ffffffffffffffffffffffffffffffffffffffff168473ffffffffffffffffffffffffffffffffffffffff16148061421757506142168484611f12565b5b8061425557508273ffffffffffffffffffffffffffffffffffffffff1661423d8361250e565b73ffffffffffffffffffffffffffffffffffffffff16145b5b90509392505050565b5f5f5f835160208501865af4905092915050565b5f3d905090565b606060405190503d81523d5f602083013e3d602001810160405290565b6040513d5f823e3d81fd5b5f73ffffffffffffffffffffffffffffffffffffffff168273ffffffffffffffffffffffffffffffffffffffff1603614312575f6040517f64a0ae920000000000000000000000000000000000000000000000000000000081526004016143099190614693565b60405180910390fd5b5f61431e83835f6125e3565b90505f73ffffffffffffffffffffffffffffffffffffffff168173ffffffffffffffffffffffffffffffffffffffff1614614390575f6040517f73c6ac6e0000000000000000000000000000000000000000000000000000000081526004016143879190614693565b60405180910390fd5b505050565b5f604051905090565b5f5ffd5b5f5ffd5b5f7fffffffff0000000000000000000000000000000000000000000000000000000082169050919050565b6143da816143a6565b81146143e4575f5ffd5b50565b5f813590506143f5816143d1565b92915050565b5f602082840312156144105761440f61439e565b5b5f61441d848285016143e7565b91505092915050565b5f8115159050919050565b61443a81614426565b82525050565b5f6020820190506144535f830184614431565b92915050565b5f819050919050565b61446b81614459565b8114614475575f5ffd5b50565b5f8135905061448681614462565b92915050565b5f602082840312156144a1576144a061439e565b5b5f6144ae84828501614478565b91505092915050565b7f4e487b71000000000000000000000000000000000000000000000000000000005f52602160045260245ffd5b600781106144f5576144f46144b7565b5b50565b5f819050614505826144e4565b919050565b5f614514826144f8565b9050919050565b6145248161450a565b82525050565b5f81519050919050565b5f82825260208201905092915050565b8281835e5f83830152505050565b5f601f19601f8301169050919050565b5f61456c8261452a565b6145768185614534565b9350614586818560208601614544565b61458f81614552565b840191505092915050565b5f6060820190506145ad5f830186614431565b6145ba602083018561451b565b81810360408301526145cc8184614562565b9050949350505050565b5f6020820190508181035f8301526145ee8184614562565b905092915050565b5f819050919050565b614608816145f6565b8114614612575f5ffd5b50565b5f81359050614623816145ff565b92915050565b5f6020828403121561463e5761463d61439e565b5b5f61464b84828501614615565b91505092915050565b5f73ffffffffffffffffffffffffffffffffffffffff82169050919050565b5f61467d82614654565b9050919050565b61468d81614673565b82525050565b5f6020820190506146a65f830184614684565b92915050565b6146b581614673565b81146146bf575f5ffd5b50565b5f813590506146d0816146ac565b92915050565b5f5f604083850312156146ec576146eb61439e565b5b5f6146f9858286016146c2565b925050602061470a85828601614615565b9150509250929050565b60078110614720575f5ffd5b50565b5f8135905061473181614714565b92915050565b5f5f6040838503121561474d5761474c61439e565b5b5f61475a85828601614478565b925050602061476b85828601614723565b9150509250929050565b5f5f5f6060848603121561478c5761478b61439e565b5b5f614799868287016146c2565b93505060206147aa868287016146c2565b92505060406147bb86828701614615565b9150509250925092565b5f5ffd5b5f5ffd5b7f4e487b71000000000000000000000000000000000000000000000000000000005f52604160045260245ffd5b61480382614552565b810181811067ffffffffffffffff82111715614822576148216147cd565b5b80604052505050565b5f614834614395565b905061484082826147fa565b919050565b5f67ffffffffffffffff82111561485f5761485e6147cd565b5b61486882614552565b9050602081019050919050565b828183375f83830152505050565b5f61489561489084614845565b61482b565b9050828152602081018484840111156148b1576148b06147c9565b5b6148bc848285614875565b509392505050565b5f82601f8301126148d8576148d76147c5565b5b81356148e8848260208601614883565b91505092915050565b5f5f5f5f5f60a0868803121561490a5761490961439e565b5b5f86013567ffffffffffffffff811115614927576149266143a2565b5b614933888289016148c4565b955050602086013567ffffffffffffffff811115614954576149536143a2565b5b614960888289016148c4565b9450506040614971888289016146c2565b935050606086013567ffffffffffffffff811115614992576149916143a2565b5b61499e888289016148c4565b92505060806149af888289016146c2565b9150509295509295909350565b5f5ffd5b5f5ffd5b5f5f83601f8401126149d9576149d86147c5565b5b8235905067ffffffffffffffff8111156149f6576149f56149bc565b5b602083019150836001820283011115614a1257614a116149c0565b5b9250929050565b5f5f5f60408486031215614a3057614a2f61439e565b5b5f614a3d86828701614723565b935050602084013567ffffffffffffffff811115614a5e57614a5d6143a2565b5b614a6a868287016149c4565b92509250509250925092565b614a7f81614459565b82525050565b5f602082019050614a985f830184614a76565b92915050565b5f5f5f60408486031215614ab557614ab461439e565b5b5f614ac286828701614478565b935050602084013567ffffffffffffffff811115614ae357614ae26143a2565b5b614aef868287016149c4565b92509250509250925092565b5f5f60408385031215614b1157614b1061439e565b5b5f614b1e858286016146c2565b9250506020614b2f85828601614478565b9150509250929050565b614b42816145f6565b82525050565b5f602082019050614b5b5f830184614b39565b92915050565b5f67ffffffffffffffff821115614b7b57614b7a6147cd565b5b614b8482614552565b9050602081019050919050565b5f614ba3614b9e84614b61565b61482b565b905082815260208101848484011115614bbf57614bbe6147c9565b5b614bca848285614875565b509392505050565b5f82601f830112614be657614be56147c5565b5b8135614bf6848260208601614b91565b91505092915050565b5f5f60408385031215614c1557614c1461439e565b5b5f614c22858286016146c2565b925050602083013567ffffffffffffffff811115614c4357614c426143a2565b5b614c4f85828601614bd2565b9150509250929050565b5f5f60208385031215614c6f57614c6e61439e565b5b5f83013567ffffffffffffffff811115614c8c57614c8b6143a2565b5b614c98858286016149c4565b92509250509250929050565b5f60208284031215614cb957614cb861439e565b5b5f614cc6848285016146c2565b91505092915050565b5f5f5f5f5f5f5f5f60a0898b031215614ceb57614cea61439e565b5b5f614cf88b828c016146c2565b9850506020614d098b828c01614723565b975050604089013567ffffffffffffffff811115614d2a57614d296143a2565b5b614d368b828c016149c4565b9650965050606089013567ffffffffffffffff811115614d5957614d586143a2565b5b614d658b828c016149c4565b9450945050608089013567ffffffffffffffff811115614d8857614d876143a2565b5b614d948b828c016149c4565b92509250509295985092959890939650565b5f5f5f60608486031215614dbd57614dbc61439e565b5b5f614dca868287016146c2565b9350506020614ddb868287016146c2565b9250506040614dec86828701614478565b9150509250925092565b614dff81614426565b8114614e09575f5ffd5b50565b5f81359050614e1a81614df6565b92915050565b5f5f60408385031215614e3657614e3561439e565b5b5f614e43858286016146c2565b9250506020614e5485828601614e0c565b9150509250929050565b5f5f5f5f60808587031215614e7657614e7561439e565b5b5f614e83878288016146c2565b9450506020614e94878288016146c2565b9350506040614ea587828801614615565b925050606085013567ffffffffffffffff811115614ec657614ec56143a2565b5b614ed287828801614bd2565b91505092959194509250565b5f5f60408385031215614ef457614ef361439e565b5b5f614f0185828601614478565b9250506020614f12858286016146c2565b9150509250929050565b5f81519050919050565b5f82825260208201905092915050565b5f819050602082019050919050565b614f4e816145f6565b82525050565b5f614f5f8383614f45565b60208301905092915050565b5f602082019050919050565b5f614f8182614f1c565b614f8b8185614f26565b9350614f9683614f36565b805f5b83811015614fc6578151614fad8882614f54565b9750614fb883614f6b565b925050600181019050614f99565b5085935050505092915050565b5f6020820190508181035f830152614feb8184614f77565b905092915050565b5f5f604083850312156150095761500861439e565b5b5f615016858286016146c2565b9250506020615027858286016146c2565b9150509250929050565b5f5f604083850312156150475761504661439e565b5b5f61505485828601614478565b925050602061506585828601614615565b9150509250929050565b7f4e487b71000000000000000000000000000000000000000000000000000000005f52602260045260245ffd5b5f60028204905060018216806150b357607f821691505b6020821081036150c6576150c561506f565b5b50919050565b5f6060820190506150df5f830186614684565b6150ec6020830185614b39565b6150f96040830184614684565b949350505050565b5f819050815f5260205f209050919050565b5f6020601f8301049050919050565b5f82821b905092915050565b5f6008830261515d7fffffffffffffffffffffffffffffffffffffffffffffffffffffffffffffffff82615122565b6151678683615122565b95508019841693508086168417925050509392505050565b5f819050919050565b5f6151a261519d615198846145f6565b61517f565b6145f6565b9050919050565b5f819050919050565b6151bb83615188565b6151cf6151c7826151a9565b84845461512e565b825550505050565b5f5f905090565b6151e66151d7565b6151f18184846151b2565b505050565b5b81811015615214576152095f826151de565b6001810190506151f7565b5050565b601f8211156152595761522a81615101565b61523384615113565b81016020851015615242578190505b61525661524e85615113565b8301826151f6565b50505b505050565b5f82821c905092915050565b5f6152795f198460080261525e565b1980831691505092915050565b5f615291838361526a565b9150826002028217905092915050565b6152aa8261452a565b67ffffffffffffffff8111156152c3576152c26147cd565b5b6152cd825461509c565b6152d8828285615218565b5f60209050601f831160018114615309575f84156152f7578287015190505b6153018582615286565b865550615368565b601f19841661531786615101565b5f5b8281101561533e57848901518255600182019150602085019450602081019050615319565b8683101561535b5784890151615357601f89168261526a565b8355505b6001600288020188555050505b505050505050565b5f819050919050565b5f67ffffffffffffffff82169050919050565b5f6153a66153a161539c84615370565b61517f565b615379565b9050919050565b6153b68161538c565b82525050565b5f6020820190506153cf5f8301846153ad565b92915050565b5f6153e08385614534565b93506153ed838584614875565b6153f683614552565b840190509392505050565b5f6040820190506154145f83018661451b565b81810360208301526154278184866153d5565b9050949350505050565b5f82905092915050565b6154458383615431565b67ffffffffffffffff81111561545e5761545d6147cd565b5b615468825461509c565b615473828285615218565b5f601f8311600181146154a0575f841561548e578287013590505b6154988582615286565b8655506154ff565b601f1984166154ae86615101565b5f5b828110156154d5578489013582556001820191506020850194506020810190506154b0565b868310156154f257848901356154ee601f89168261526a565b8355505b6001600288020188555050505b50505050505050565b5f6020820190508181035f8301526155218184866153d5565b90509392505050565b5f60408201905061553d5f830185614684565b61554a6020830184614b39565b9392505050565b5f81905092915050565b5f6155658261452a565b61556f8185615551565b935061557f818560208601614544565b80840191505092915050565b5f615596828561555b565b91506155a2828461555b565b91508190509392505050565b7f4e487b71000000000000000000000000000000000000000000000000000000005f52603260045260245ffd5b5f6040820190506155ee5f830185614684565b6155fb6020830184614a76565b9392505050565b7f4e487b71000000000000000000000000000000000000000000000000000000005f52601160045260245ffd5b5f615639826145f6565b9150615644836145f6565b925082820390508181111561565c5761565b615602565b5b92915050565b5f61566c826145f6565b9150615677836145f6565b925082820190508082111561568f5761568e615602565b5b92915050565b7f4e487b71000000000000000000000000000000000000000000000000000000005f52603160045260245ffd5b5f815190506156d081614462565b92915050565b5f602082840312156156eb576156ea61439e565b5b5f6156f8848285016156c2565b91505092915050565b5f61570b826145f6565b91507fffffffffffffffffffffffffffffffffffffffffffffffffffffffffffffffff820361573d5761573c615602565b5b600182019050919050565b5f81519050919050565b5f82825260208201905092915050565b5f61576c82615748565b6157768185615752565b9350615786818560208601614544565b61578f81614552565b840191505092915050565b5f6080820190506157ad5f830187614684565b6157ba6020830186614684565b6157c76040830185614b39565b81810360608301526157d98184615762565b905095945050505050565b5f815190506157f2816143d1565b92915050565b5f6020828403121561580d5761580c61439e565b5b5f61581a848285016157e4565b91505092915050565b5f61582d826145f6565b9150615838836145f6565b9250828202615846816145f6565b9150828204841483151761585d5761585c615602565b5b5092915050565b5f61586e826145f6565b91505f82036158805761587f615602565b5b600182039050919050565b5f60408201905061589e5f830185614b39565b6158ab6020830184614b39565b939250505056fea2646970667358221220829ec8e27e8068bfc7c0dded23bfade378aecad86465b89ab8081638fc492ec064736f6c634300081e0033","linkReferences":{}},"methodIdentifiers":{"UPGRADE_INTERFACE_VERSION()":"ad3cb1cc","approve(address,uint256)":"095ea7b3","backend()":"099e4133","balanceOf(address)":"70a08231","burn(uint256)":"42966c68","canJoinGroup(address,bytes32)":"60f55375","canText(address,address,bytes32)":"8c7ddefc","completeAndRegisterByExternalId(address,uint8,string,string,string)":"8a58e44c","completionTokenId(address,bytes32)":"4dde7105","computeMediaId(uint8,string)":"3e536cc1","getApproved(uint256)":"081812fc","getusernft(address)":"df806be7","groupMemberAt(bytes32,uint256)":"eef49337","groupMemberCount(bytes32)":"a483e614","hasCompleted(address,bytes32)":"e349566c","initialize(string,string,address,string,address)":"28ccf844","isApprovedForAll(address,address)":"e985e9c5","isGroupMember(bytes32,address)":"cb3022ff","isRegistrar(address)":"d5db72eb","joinGroup(bytes32)":"fb0135d1","leaveGroup(bytes32)":"f931544b","mediaInfo(bytes32)":"03c45cf5","name()":"06fdde03","nextTokenId()":"75794a3c","owner()":"8da5cb5b","ownerOf(uint256)":"6352211e","proxiableUUID()":"52d1902d","renounceOwnership()":"715018a6","safeTransferFrom(address,address,uint256)":"42842e0e","safeTransferFrom(address,address,uint256,bytes)":"b88d4fde","setApprovalForAll(address,bool)":"a22cb465","setBackend(address)":"da7fc24f","setBaseURI(string)":"55f804b3","setMediaKind(bytes32,uint8)":"17c6f2de","setMediaURI(bytes32,string)":"3f0ccf6a","setRegistrar(address,bool)":"c1bf1dcf","supportsInterface(bytes4)":"01ffc9a7","symbol()":"95d89b41","tokenMediaId(uint256)":"51be10d6","tokenURI(uint256)":"c87b56dd","transferFrom(address,address,uint256)":"23b872dd","transferOwnership(address)":"f2fde38b","upgradeToAndCall(address,bytes)":"4f1ef286","userTokenIds(address)":"e8c40392"},"id":49}