{"abi":[{"type":"constructor","inputs":[],"stateMutability":"nonpayable"},{"type":"function","name":"UPGRADE_INTERFACE_VERSION","inputs":[],"outputs":[{"name":"","type":"string","internalType":"string"}],"stateMutability":"view"},{"type":"function","name":"approve","inputs":[{"name":"","type":"address","internalType":"address"},{"name":"","type":"uint256","internalType":"uint256"}],"outputs":[],"stateMutability":"pure"},{"type":"function","name":"backend","inputs":[],"outputs":[{"name":"","type":"address","internalType":"address"}],"stateMutability":"view"},{"type":"function","name":"balanceOf","inputs":[{"name":"owner","type":"address","internalType":"address"}],"outputs":[{"name":"","type":"uint256","internalType":"uint256"}],"stateMutability":"view"},{"type":"function","name":"burn","inputs":[{"name":"tokenId","type":"uint256","internalType":"uint256"}],"outputs":[],"stateMutability":"nonpayable"},{"type":"function","name":"canJoinGroup","inputs":[{"name":"user","type":"address","internalType":"address"},{"name":"mediaId","type":"bytes32","internalType":"bytes32"}],"outputs":[{"name":"","type":"bool","internalType":"bool"}],"stateMutability":"view"},{"type":"function","name":"canText","inputs":[{"name":"from","type":"address","internalType":"address"},{"name":"to","type":"address","internalType":"address"},{"name":"mediaId","type":"bytes32","internalType":"bytes32"}],"outputs":[{"name":"","type":"bool","internalType":"bool"}],"stateMutability":"view"},{"type":"function","name":"completeAndRegisterByExternalId","inputs":[{"name":"to","type":"address","internalType":"address"},{"name":"kind","type":"uint8","internalType":"enum VeTerex.MediaKind"},{"name":"externalId","type":"string","internalType":"string"},{"name":"uri","type":"string","internalType":"string"},{"name":"name","type":"string","internalType":"string"}],"outputs":[{"name":"tokenId","type":"uint256","internalType":"uint256"}],"stateMutability":"nonpayable"},{"type":"function","name":"completionTokenId","inputs":[{"name":"user","type":"address","internalType":"address"},{"name":"mediaId","type":"bytes32","internalType":"bytes32"}],"outputs":[{"name":"tokenId","type":"uint256","internalType":"uint256"}],"stateMutability":"view"},{"type":"function","name":"computeMediaId","inputs":[{"name":"kind","type":"uint8","internalType":"enum VeTerex.MediaKind"},{"name":"externalId","type":"string","internalType":"string"}],"outputs":[{"name":"","type":"bytes32","internalType":"bytes32"}],"stateMutability":"pure"},{"type":"function","name":"getApproved","inputs":[{"name":"tokenId","type":"uint256","internalType":"uint256"}],"outputs":[{"name":"","type":"address","internalType":"address"}],"stateMutability":"view"},{"type":"function","name":"getsimilars","inputs":[{"name":"user","type":"address","internalType":"address"},{"name":"_nft","type":"uint256[]","internalType":"uint256[]"}],"outputs":[{"name":"commonusers","type":"address[]","internalType":"address[]"}],"stateMutability":"view"},{"type":"function","name":"getusernft","inputs":[{"name":"user","type":"address","internalType":"address"}],"outputs":[{"name":"userNfts","type":"uint256[]","internalType":"uint256[]"}],"stateMutability":"view"},{"type":"function","name":"groupMemberAt","inputs":[{"name":"mediaId","type":"bytes32","internalType":"bytes32"},{"name":"index","type":"uint256","internalType":"uint256"}],"outputs":[{"name":"","type":"address","internalType":"address"}],"stateMutability":"view"},{"type":"function","name":"groupMemberCount","inputs":[{"name":"mediaId","type":"bytes32","internalType":"bytes32"}],"outputs":[{"name":"","type":"uint256","internalType":"uint256"}],"stateMutability":"view"},{"type":"function","name":"hasCompleted","inputs":[{"name":"user","type":"address","internalType":"address"},{"name":"mediaId","type":"bytes32","internalType":"bytes32"}],"outputs":[{"name":"","type":"bool","internalType":"bool"}],"stateMutability":"view"},{"type":"function","name":"initialize","inputs":[{"name":"name_","type":"string","internalType":"string"},{"name":"symbol_","type":"string","internalType":"string"},{"name":"initialOwner","type":"address","internalType":"address"},{"name":"baseURI_","type":"string","internalType":"string"},{"name":"backend_","type":"address","internalType":"address"}],"outputs":[],"stateMutability":"nonpayable"},{"type":"function","name":"isApprovedForAll","inputs":[{"name":"owner","type":"address","internalType":"address"},{"name":"operator","type":"address","internalType":"address"}],"outputs":[{"name":"","type":"bool","internalType":"bool"}],"stateMutability":"view"},{"type":"function","name":"isGroupMember","inputs":[{"name":"mediaId","type":"bytes32","internalType":"bytes32"},{"name":"user","type":"address","internalType":"address"}],"outputs":[{"name":"","type":"bool","internalType":"bool"}],"stateMutability":"view"},{"type":"function","name":"isRegistrar","inputs":[{"name":"registrar","type":"address","internalType":"address"}],"outputs":[{"name":"allowed","type":"bool","internalType":"bool"}],"stateMutability":"view"},{"type":"function","name":"joinGroup","inputs":[{"name":"mediaId","type":"bytes32","internalType":"bytes32"}],"outputs":[],"stateMutability":"nonpayable"},{"type":"function","name":"leaveGroup","inputs":[{"name":"mediaId","type":"bytes32","internalType":"bytes32"}],"outputs":[],"stateMutability":"nonpayable"},{"type":"function","name":"mediaInfo","inputs":[{"name":"mediaId","type":"bytes32","internalType":"bytes32"}],"outputs":[{"name":"exists","type":"bool","internalType":"bool"},{"name":"kind","type":"uint8","internalType":"enum VeTerex.MediaKind"},{"name":"uri","type":"string","internalType":"string"}],"stateMutability":"view"},{"type":"function","name":"name","inputs":[],"outputs":[{"name":"","type":"string","internalType":"string"}],"stateMutability":"view"},{"type":"function","name":"nextTokenId","inputs":[],"outputs":[{"name":"","type":"uint256","internalType":"uint256"}],"stateMutability":"view"},{"type":"function","name":"owner","inputs":[],"outputs":[{"name":"","type":"address","internalType":"address"}],"stateMutability":"view"},{"type":"function","name":"ownerOf","inputs":[{"name":"tokenId","type":"uint256","internalType":"uint256"}],"outputs":[{"name":"","type":"address","internalType":"address"}],"stateMutability":"view"},{"type":"function","name":"proxiableUUID","inputs":[],"outputs":[{"name":"","type":"bytes32","internalType":"bytes32"}],"stateMutability":"view"},{"type":"function","name":"renounceOwnership","inputs":[],"outputs":[],"stateMutability":"nonpayable"},{"type":"function","name":"safeTransferFrom","inputs":[{"name":"from","type":"address","internalType":"address"},{"name":"to","type":"address","internalType":"address"},{"name":"tokenId","type":"uint256","internalType":"uint256"}],"outputs":[],"stateMutability":"nonpayable"},{"type":"function","name":"safeTransferFrom","inputs":[{"name":"from","type":"address","internalType":"address"},{"name":"to","type":"address","internalType":"address"},{"name":"tokenId","type":"uint256","internalType":"uint256"},{"name":"data","type":"bytes","internalType":"bytes"}],"outputs":[],"stateMutability":"nonpayable"},{"type":"function","name":"setApprovalForAll","inputs":[{"name":"","type":"address","internalType":"address"},{"name":"","type":"bool","internalType":"bool"}],"outputs":[],"stateMutability":"pure"},{"type":"function","name":"setBackend","inputs":[{"name":"backend_","type":"address","internalType":"address"}],"outputs":[],"stateMutability":"nonpayable"},{"type":"function","name":"setBaseURI","inputs":[{"name":"baseURI_","type":"string","internalType":"string"}],"outputs":[],"stateMutability":"nonpayable"},{"type":"function","name":"setMediaKind","inputs":[{"name":"mediaId","type":"bytes32","internalType":"bytes32"},{"name":"kind","type":"uint8","internalType":"enum VeTerex.MediaKind"}],"outputs":[],"stateMutability":"nonpayable"},{"type":"function","name":"setMediaURI","inputs":[{"name":"mediaId","type":"bytes32","internalType":"bytes32"},{"name":"uri","type":"string","internalType":"string"}],"outputs":[],"stateMutability":"nonpayable"},{"type":"function","name":"setRegistrar","inputs":[{"name":"registrar","type":"address","internalType":"address"},{"name":"allowed","type":"bool","internalType":"bool"}],"outputs":[],"stateMutability":"nonpayable"},{"type":"function","name":"supportsInterface","inputs":[{"name":"interfaceId","type":"bytes4","internalType":"bytes4"}],"outputs":[{"name":"","type":"bool","internalType":"bool"}],"stateMutability":"view"},{"type":"function","name":"symbol","inputs":[],"outputs":[{"name":"","type":"string","internalType":"string"}],"stateMutability":"view"},{"type":"function","name":"tokenMediaId","inputs":[{"name":"tokenId","type":"uint256","internalType":"uint256"}],"outputs":[{"name":"mediaId","type":"bytes32","internalType":"bytes32"}],"stateMutability":"view"},{"type":"function","name":"tokenURI","inputs":[{"name":"tokenId","type":"uint256","internalType":"uint256"}],"outputs":[{"name":"","type":"string","internalType":"string"}],"stateMutability":"view"},{"type":"function","name":"transferFrom","inputs":[{"name":"from","type":"address","internalType":"address"},{"name":"to","type":"address","internalType":"address"},{"name":"tokenId","type":"uint256","internalType":"uint256"}],"outputs":[],"stateMutability":"nonpayable"},{"type":"function","name":"transferOwnership","inputs":[{"name":"newOwner","type":"address","internalType":"address"}],"outputs":[],"stateMutability":"nonpayable"},{"type":"function","name":"upgradeToAndCall","inputs":[{"name":"newImplementation","type":"address","internalType":"address"},{"name":"data","type":"bytes","internalType":"bytes"}],"outputs":[],"stateMutability":"payable"},{"type":"function","name":"userTokenIds","inputs":[{"name":"user","type":"address","internalType":"address"}],"outputs":[{"name":"","type":"uint256[]","internalType":"uint256[]"}],"stateMutability":"view"},{"type":"event","name":"Approval","inputs":[{"name":"owner","type":"address","indexed":true,"internalType":"address"},{"name":"approved","type":"address","indexed":true,"internalType":"address"},{"name":"tokenId","type":"uint256","indexed":true,"internalType":"uint256"}],"anonymous":false},{"type":"event","name":"ApprovalForAll","inputs":[{"name":"owner","type":"address","indexed":true,"internalType":"address"},{"name":"operator","type":"address","indexed":true,"internalType":"address"},{"name":"approved","type":"bool","indexed":false,"internalType":"bool"}],"anonymous":false},{"type":"event","name":"BaseURISet","inputs":[{"name":"baseURI","type":"string","indexed":false,"internalType":"string"}],"anonymous":false},{"type":"event","name":"GroupJoined","inputs":[{"name":"user","type":"address","indexed":true,"internalType":"address"},{"name":"mediaId","type":"bytes32","indexed":true,"internalType":"bytes32"}],"anonymous":false},{"type":"event","name":"GroupLeft","inputs":[{"name":"user","type":"address","indexed":true,"internalType":"address"},{"name":"mediaId","type":"bytes32","indexed":true,"internalType":"bytes32"}],"anonymous":false},{"type":"event","name":"Initialized","inputs":[{"name":"version","type":"uint64","indexed":false,"internalType":"uint64"}],"anonymous":false},{"type":"event","name":"MediaCompleted","inputs":[{"name":"user","type":"address","indexed":true,"internalType":"address"},{"name":"mediaId","type":"bytes32","indexed":true,"internalType":"bytes32"},{"name":"tokenId","type":"uint256","indexed":true,"internalType":"uint256"}],"anonymous":false},{"type":"event","name":"MediaKindSet","inputs":[{"name":"mediaId","type":"bytes32","indexed":true,"internalType":"bytes32"},{"name":"kind","type":"uint8","indexed":true,"internalType":"enum VeTerex.MediaKind"}],"anonymous":false},{"type":"event","name":"MediaRegistered","inputs":[{"name":"mediaId","type":"bytes32","indexed":true,"internalType":"bytes32"},{"name":"kind","type":"uint8","indexed":true,"internalType":"enum VeTerex.MediaKind"},{"name":"uri","type":"string","indexed":false,"internalType":"string"}],"anonymous":false},{"type":"event","name":"MediaURISet","inputs":[{"name":"mediaId","type":"bytes32","indexed":true,"internalType":"bytes32"},{"name":"uri","type":"string","indexed":false,"internalType":"string"}],"anonymous":false},{"type":"event","name":"OwnershipTransferred","inputs":[{"name":"previousOwner","type":"address","indexed":true,"internalType":"address"},{"name":"newOwner","type":"address","indexed":true,"internalType":"address"}],"anonymous":false},{"type":"event","name":"RegistrarSet","inputs":[{"name":"registrar","type":"address","indexed":true,"internalType":"address"},{"name":"allowed","type":"bool","indexed":false,"internalType":"bool"}],"anonymous":false},{"type":"event","name":"Transfer","inputs":[{"name":"from","type":"address","indexed":true,"internalType":"address"},{"name":"to","type":"address","indexed":true,"internalType":"address"},{"name":"tokenId","type":"uint256","indexed":true,"internalType":"uint256"}],"anonymous":false},{"type":"event","name":"Upgraded","inputs":[{"name":"implementation","type":"address","indexed":true,"internalType":"address"}],"anonymous":false},{"type":"error","name":"AddressEmptyCode","inputs":[{"name":"target","type":"address","internalType":"address"}]},{"type":"error","name":"AlreadyCompleted","inputs":[{"name":"user","type":"address","internalType":"address"},{"name":"mediaId","type":"bytes32","internalType":"bytes32"}]},{"type":"error","name":"ERC1967InvalidImplementation","inputs":[{"name":"implementation","type":"address","internalType":"address"}]},{"type":"error","name":"ERC1967NonPayable","inputs":[]},{"type":"error","name":"ERC721IncorrectOwner","inputs":[{"name":"sender","type":"address","internalType":"address"},{"name":"tokenId","type":"uint256","internalType":"uint256"},{"name":"owner","type":"address","internalType":"address"}]},{"type":"error","name":"ERC721InsufficientApproval","inputs":[{"name":"operator","type":"address","internalType":"address"},{"name":"tokenId","type":"uint256","internalType":"uint256"}]},{"type":"error","name":"ERC721InvalidApprover","inputs":[{"name":"approver","type":"address","internalType":"address"}]},{"type":"error","name":"ERC721InvalidOperator","inputs":[{"name":"operator","type":"address","internalType":"address"}]},{"type":"error","name":"ERC721InvalidOwner","inputs":[{"name":"owner","type":"address","internalType":"address"}]},{"type":"error","name":"ERC721InvalidReceiver","inputs":[{"name":"receiver","type":"address","internalType":"address"}]},{"type":"error","name":"ERC721InvalidSender","inputs":[{"name":"sender","type":"address","internalType":"address"}]},{"type":"error","name":"ERC721NonexistentToken","inputs":[{"name":"tokenId","type":"uint256","internalType":"uint256"}]},{"type":"error","name":"FailedCall","inputs":[]},{"type":"error","name":"InvalidInitialization","inputs":[]},{"type":"error","name":"MediaAlreadyRegistered","inputs":[{"name":"mediaId","type":"bytes32","internalType":"bytes32"}]},{"type":"error","name":"MediaNotRegistered","inputs":[{"name":"mediaId","type":"bytes32","internalType":"bytes32"}]},{"type":"error","name":"NonTransferable","inputs":[]},{"type":"error","name":"NotBackend","inputs":[{"name":"caller","type":"address","internalType":"address"}]},{"type":"error","name":"NotCompleted","inputs":[{"name":"user","type":"address","internalType":"address"},{"name":"mediaId","type":"bytes32","internalType":"bytes32"}]},{"type":"error","name":"NotGroupMember","inputs":[{"name":"user","type":"address","internalType":"address"},{"name":"mediaId","type":"bytes32","internalType":"bytes32"}]},{"type":"error","name":"NotInitializing","inputs":[]},{"type":"error","name":"NotRegistrar","inputs":[{"name":"caller","type":"address","internalType":"address"}]},{"type":"error","name":"NotTokenOwner","inputs":[{"name":"user","type":"address","internalType":"address"},{"name":"tokenId","type":"uint256","internalType":"uint256"}]},{"type":"error","name":"OwnableInvalidOwner","inputs":[{"name":"owner","type":"address","internalType":"address"}]},{"type":"error","name":"OwnableUnauthorizedAccount","inputs":[{"name":"account","type":"address","internalType":"address"}]},{"type":"error","name":"StringsInsufficientHexLength","inputs":[{"name":"value","type":"uint256","internalType":"uint256"},{"name":"length","type":"uint256","internalType":"uint256"}]},{"type":"error","name":"UUPSUnauthorizedCallContext","inputs":[]},{"type":"error","name":"UUPSUnsupportedProxiableUUID","inputs":[{"name":"slot","type":"bytes32","internalType":"bytes32"}]}],"bytecode":{"object":"0x60a060405230608052348015610013575f5ffd5b5061001c610021565b6100d3565b7ff0c57e16840df040f15088dc2f81fe391c3923bec73e23a9662efc9c229c6a00805468010000000000000000900460ff16156100715760405163f92ee8a960e01b815260040160405180910390fd5b80546001600160401b03908116146100d05780546001600160401b0319166001600160401b0390811782556040519081527fc7f505b2f371ae2175ee4913f4499e1f2633a7b5936321eed1cdaeb6115181d29060200160405180910390a15b50565b6080516138e66100f95f395f8181612081015281816120aa01526121e901526138e65ff3fe60806040526004361061026a575f3560e01c806375794a3c1161014a578063cb3022ff116100be578063e8c4039211610078578063e8c4039214610797578063e985e9c514610806578063eef4933714610825578063f2fde38b14610844578063f931544b14610863578063fb0135d114610882575f5ffd5b8063cb3022ff146106db578063d5db72eb1461071e578063da7fc24f1461074c578063debdb91d1461076b578063df806be714610797578063e349566c146107c3575f5ffd5b8063a22cb4651161010f578063a22cb46514610609578063a483e61414610623578063ad3cb1cc1461064e578063b88d4fde1461067e578063c1bf1dcf1461069d578063c87b56dd146106bc575f5ffd5b806375794a3c146105665780638a58e44c1461057b5780638c7ddefc1461059a5780638da5cb5b146105b957806395d89b41146105f5575f5ffd5b806342842e0e116101e157806352d1902d116101a657806352d1902d146104c257806355f804b3146104d657806360f55375146104f55780636352211e1461051457806370a0823114610533578063715018a614610552575f5ffd5b806342842e0e1461041057806342966c681461042f5780634dde71051461044e5780634f1ef2861461048457806351be10d614610497575f5ffd5b8063099e413311610232578063099e41331461034957806317c6f2de1461036757806323b872dd1461038657806328ccf844146103a55780633e536cc1146103c45780633f0ccf6a146103f1575f5ffd5b806301ffc9a71461026e57806303c45cf5146102a257806306fdde03146102d0578063081812fc146102f1578063095ea7b314610328575b5f5ffd5b348015610279575f5ffd5b5061028d610288366004612df3565b6108a1565b60405190151581526020015b60405180910390f35b3480156102ad575f5ffd5b506102c16102bc366004612e0e565b6108f2565b60405161029993929190612e87565b3480156102db575f5ffd5b506102e46109b2565b6040516102999190612eae565b3480156102fc575f5ffd5b5061031061030b366004612e0e565b610a53565b6040516001600160a01b039091168152602001610299565b348015610333575f5ffd5b50610347610342366004612edb565b610a67565b005b348015610354575f5ffd5b505f54610310906001600160a01b031681565b348015610372575f5ffd5b50610347610381366004612f11565b610a80565b348015610391575f5ffd5b506103476103a0366004612f3b565b610b32565b3480156103b0575f5ffd5b506103476103bf366004613018565b610bbb565b3480156103cf575f5ffd5b506103e36103de366004613108565b610d23565b604051908152602001610299565b3480156103fc575f5ffd5b5061034761040b366004613156565b610d59565b34801561041b575f5ffd5b5061034761042a366004612f3b565b610df2565b34801561043a575f5ffd5b50610347610449366004612e0e565b610e11565b348015610459575f5ffd5b506103e3610468366004612edb565b600560209081525f928352604080842090915290825290205481565b610347610492366004613184565b610ea4565b3480156104a2575f5ffd5b506103e36104b1366004612e0e565b60046020525f908152604090205481565b3480156104cd575f5ffd5b506103e3610ebf565b3480156104e1575f5ffd5b506103476104f03660046131ce565b610eda565b348015610500575f5ffd5b5061028d61050f366004612edb565b610f2d565b34801561051f575f5ffd5b5061031061052e366004612e0e565b610f81565b34801561053e575f5ffd5b506103e361054d36600461320c565b610f8b565b34801561055d575f5ffd5b50610347610fe3565b348015610571575f5ffd5b506103e360015481565b348015610586575f5ffd5b506103e3610595366004613225565b610ff6565b3480156105a5575f5ffd5b5061028d6105b4366004612f3b565b6111c5565b3480156105c4575f5ffd5b507f9016d09d72d40fdae2fd8ceac6b6234c7706214fd39c1cd1e609a0528c199300546001600160a01b0316610310565b348015610600575f5ffd5b506102e461121f565b348015610614575f5ffd5b506103476103423660046132e1565b34801561062e575f5ffd5b506103e361063d366004612e0e565b5f908152600a602052604090205490565b348015610659575f5ffd5b506102e4604051806040016040528060058152602001640352e302e360dc1b81525081565b348015610689575f5ffd5b5061034761069836600461331a565b61125d565b3480156106a8575f5ffd5b506103476106b73660046132e1565b611275565b3480156106c7575f5ffd5b506102e46106d6366004612e0e565b6112db565b3480156106e6575f5ffd5b5061028d6106f536600461337d565b5f918252600b602090815260408084206001600160a01b03939093168452919052902054151590565b348015610729575f5ffd5b5061028d61073836600461320c565b600c6020525f908152604090205460ff1681565b348015610757575f5ffd5b5061034761076636600461320c565b611400565b348015610776575f5ffd5b5061078a61078536600461339e565b611429565b604051610299919061341d565b3480156107a2575f5ffd5b506107b66107b136600461320c565b61170f565b6040516102999190613468565b3480156107ce575f5ffd5b5061028d6107dd366004612edb565b6001600160a01b03919091165f9081526005602090815260408083209383529290522054151590565b348015610811575f5ffd5b5061028d61082036600461349f565b611778565b348015610830575f5ffd5b5061031061083f3660046134c7565b6117c4565b34801561084f575f5ffd5b5061034761085e36600461320c565b6117fe565b34801561086e575f5ffd5b5061034761087d366004612e0e565b61183b565b34801561088d575f5ffd5b5061034761089c366004612e0e565b6119e8565b5f6001600160e01b031982166380ac58cd60e01b14806108d157506001600160e01b03198216635b5e139f60e01b145b806108ec57506301ffc9a760e01b6001600160e01b03198316145b92915050565b5f81815260036020526040812080546001820180548493606093909260ff61010083048116939216918190610926906134e7565b80601f0160208091040260200160405190810160405280929190818152602001828054610952906134e7565b801561099d5780601f106109745761010080835404028352916020019161099d565b820191905f5260205f20905b81548152906001019060200180831161098057829003601f168201915b50505050509050935093509350509193909250565b5f5160206138715f395f51905f5280546060919081906109d1906134e7565b80601f01602080910402602001604051908101604052809291908181526020018280546109fd906134e7565b8015610a485780601f10610a1f57610100808354040283529160200191610a48565b820191905f5260205f20905b815481529060010190602001808311610a2b57829003601f168201915b505050505091505090565b5f610a5d82611a34565b506108ec82611a6b565b604051639cbe235760e01b815260040160405180910390fd5b610a88611aa4565b5f82815260036020526040902054610100900460ff16610ac357604051635f56114960e01b8152600481018390526024015b60405180910390fd5b5f828152600360205260409020805482919060ff19166001836006811115610aed57610aed612e25565b0217905550806006811115610b0457610b04612e25565b60405183907f5e58f607797e522f8927a1276deb9767f5bbf3d3183b2f0b475a9f662a8155fb905f90a35050565b6001600160a01b038216610b5b57604051633250574960e11b81525f6004820152602401610aba565b5f610b67838333611aff565b9050836001600160a01b0316816001600160a01b031614610bb5576040516364283d7b60e01b81526001600160a01b0380861660048301526024820184905282166044820152606401610aba565b50505050565b5f610bc4611b5e565b805490915060ff600160401b82041615906001600160401b03165f81158015610bea5750825b90505f826001600160401b03166001148015610c055750303b155b905081158015610c13575080155b15610c315760405163f92ee8a960e01b815260040160405180910390fd5b845467ffffffffffffffff191660011785558315610c5b57845460ff60401b1916600160401b1785555b610c658a8a611b86565b610c6e88611b98565b600180556002610c7e8882613563565b505f80546001600160a01b0319166001600160a01b0388161790556040517ff9c7803e94e0d3c02900d8a90893a6d5e90dd04d32a4cfe825520f82bf9f32f690610cc9908990612eae565b60405180910390a18315610d1757845460ff60401b19168555604051600181527fc7f505b2f371ae2175ee4913f4499e1f2633a7b5936321eed1cdaeb6115181d29060200160405180910390a15b50505050505050505050565b5f838383604051602001610d3993929190613645565b6040516020818303038152906040528051906020012090505b9392505050565b610d61611aa4565b5f83815260036020526040902054610100900460ff16610d9757604051635f56114960e01b815260048101849052602401610aba565b5f838152600360205260409020600101610db2828483613665565b50827f128d101613c44f2aae6cacfa4019f25a11aa46b307c8cd82b14d73f0c673bd9e8383604051610de592919061371e565b60405180910390a2505050565b610e0c83838360405180602001604052805f81525061125d565b505050565b33610e1b82610f81565b6001600160a01b031614610e4b57604051632c52f11160e11b815233600482015260248101829052604401610aba565b5f818152600460209081526040808320805490849055338085526005845282852082865290935290832092909255610e839083611ba9565b610e8d3382611d1f565b610e973382611e9b565b610ea08261203e565b5050565b610eac612076565b610eb58261211a565b610ea08282612122565b5f610ec86121de565b505f5160206138915f395f51905f5290565b610ee2611aa4565b6002610eef828483613665565b507ff9c7803e94e0d3c02900d8a90893a6d5e90dd04d32a4cfe825520f82bf9f32f68282604051610f2192919061371e565b60405180910390a15050565b6001600160a01b0382165f90815260056020908152604080832084845290915281205415801590610d525750505f908152600b602090815260408083206001600160a01b0394909416835292905220541590565b5f6108ec82611a34565b5f5f5160206138715f395f51905f526001600160a01b038316610fc3576040516322718ad960e21b81525f6004820152602401610aba565b6001600160a01b039092165f908152600390920160205250604090205490565b610feb611aa4565b610ff45f612227565b565b5f80546001600160a01b031633146110235760405163244b906f60e21b8152336004820152602401610aba565b5f61102f898989610d23565b5f81815260036020526040902054909150610100900460ff166111ad5760405180608001604052808a600681111561106957611069612e25565b815260200160011515815260200187878080601f0160208091040260200160405190810160405280939291908181526020018383808284375f92019190915250505090825250604080516020601f8801819004810282018101909252868152918101919087908790819084018382808284375f9201829052509390945250508381526003602052604090208251815491925090829060ff1916600183600681111561111657611116612e25565b0217905550602082015181549015156101000261ff0019909116178155604082015160018201906111479082613563565b506060820151600282019061115c9082613563565b5090505088600681111561117257611172612e25565b817f21180c14d4f0df793d818669c5da02b6b12e747ecbad50fd973a1bf7247af5c688886040516111a492919061371e565b60405180910390a35b6111b78a82612297565b9a9950505050505050505050565b6001600160a01b0383165f9081526005602090815260408083208484529091528120541580159061121757506001600160a01b0383165f90815260056020908152604080832085845290915290205415155b949350505050565b7f80bb2b638cc20bc4d0a60d66940f3ab4a00c1d7b313497ca82fb0b4ab007930180546060915f5160206138715f395f51905f52916109d1906134e7565b611268848484610b32565b610bb533858585856123c4565b61127d611aa4565b6001600160a01b0382165f818152600c6020908152604091829020805460ff191685151590811790915591519182527fb5e93f625be9cf4b25a2f505df040e38bd35ed584b62730dd64b7eaf145e8c6e910160405180910390a25050565b60606112e682611a34565b505f82815260046020908152604080832054808452600390925282206001018054919291611313906134e7565b80601f016020809104026020016040519081016040528092919081815260200182805461133f906134e7565b801561138a5780601f106113615761010080835404028352916020019161138a565b820191905f5260205f20905b81548152906001019060200180831161136d57829003601f168201915b5050505050905080515f146113a0579392505050565b5f6113a96124ec565b905080515f036113ca57505060408051602081019091525f81529392505050565b806113d684602061257c565b6040516020016113e7929190613748565b6040516020818303038152906040529350505050919050565b611408611aa4565b5f80546001600160a01b0319166001600160a01b0392909216919091179055565b60605f805b838110156114d1575f8585838181106114495761144961375c565b905060200201359050866001600160a01b031661146582610f81565b6001600160a01b03161461149e57604051632c52f11160e11b81526001600160a01b038816600482015260248101829052604401610aba565b5f818152600460209081526040808320548084526008909252909120546114c59085613784565b9350505060010161142e565b50805f036114ee575050604080515f815260208101909152610d52565b5f816001600160401b0381111561150757611507612f75565b604051908082528060200260200182016040528015611530578160200160208202803683370190505b5090505f805b85811015611669575f60045f8989858181106115545761155461375c565b9050602002013581526020019081526020015f205490505f60085f8381526020019081526020015f2090505f5f90505b815481101561165e575f8282815481106115a0576115a061375c565b5f918252602090912001546001600160a01b0390811691508c1681036115c65750611656565b5f805b8781101561161457826001600160a01b03168982815181106115ed576115ed61375c565b60200260200101516001600160a01b03160361160c5760019150611614565b6001016115c9565b5080611653578188888151811061162d5761162d61375c565b6001600160a01b03909216602092830291909101909101528661164f81613797565b9750505b50505b600101611584565b505050600101611536565b50806001600160401b0381111561168257611682612f75565b6040519080825280602002602001820160405280156116ab578160200160208202803683370190505b5093505f5b81811015611704578281815181106116ca576116ca61375c565b60200260200101518582815181106116e4576116e461375c565b6001600160a01b03909216602092830291909101909101526001016116b0565b505050509392505050565b6001600160a01b0381165f9081526006602090815260409182902080548351818402810184019094528084526060939283018282801561176c57602002820191905f5260205f20905b815481526020019060010190808311611758575b50505050509050919050565b6001600160a01b039182165f9081527f80bb2b638cc20bc4d0a60d66940f3ab4a00c1d7b313497ca82fb0b4ab00793056020908152604080832093909416825291909152205460ff1690565b5f828152600a602052604081208054839081106117e3576117e361375c565b5f918252602090912001546001600160a01b03169392505050565b611806611aa4565b6001600160a01b03811661182f57604051631e4fbdf760e01b81525f6004820152602401610aba565b61183881612227565b50565b5f818152600b602090815260408083203384529091528120549081900361187e57604051635edac19960e01b815233600482015260248101839052604401610aba565b5f61188a6001836137af565b5f848152600a6020526040812054919250906118a8906001906137af565b9050808214611964575f848152600a602052604081208054839081106118d0576118d061375c565b5f918252602080832090910154878352600a909152604090912080546001600160a01b03909216925082918590811061190b5761190b61375c565b5f91825260209091200180546001600160a01b0319166001600160a01b039290921691909117905561193e836001613784565b5f868152600b602090815260408083206001600160a01b03909516835293905291909120555b5f848152600a60205260409020805480611980576119806137c2565b5f828152602080822083015f1990810180546001600160a01b0319169055909201909255858252600b815260408083203380855292528083208390555186927f43771741ded2837cf411975e50f291a36f7cb2d43b6b6359aa611180020cfbeb91a350505050565b335f9081526005602090815260408083208484529091528120549003611a2a57604051634fb26a8960e11b815233600482015260248101829052604401610aba565b61183833826126ed565b5f5f611a3f83612796565b90506001600160a01b0381166108ec57604051637e27328960e01b815260048101849052602401610aba565b5f9081527f80bb2b638cc20bc4d0a60d66940f3ab4a00c1d7b313497ca82fb0b4ab007930460205260409020546001600160a01b031690565b33611ad67f9016d09d72d40fdae2fd8ceac6b6234c7706214fd39c1cd1e609a0528c199300546001600160a01b031690565b6001600160a01b031614610ff45760405163118cdaa760e01b8152336004820152602401610aba565b5f5f611b0a84612796565b90506001600160a01b03811615801590611b2c57506001600160a01b03851615155b15611b4a57604051639cbe235760e01b815260040160405180910390fd5b611b558585856127cf565b95945050505050565b5f807ff0c57e16840df040f15088dc2f81fe391c3923bec73e23a9662efc9c229c6a006108ec565b611b8e6128d1565b610ea082826128f6565b611ba06128d1565b61183881612926565b6001600160a01b0382165f90815260076020908152604080832084845290915281205490819003611bd957505050565b5f611be56001836137af565b6001600160a01b0385165f9081526006602052604081205491925090611c0d906001906137af565b9050808214611cbb576001600160a01b0385165f908152600660205260408120805483908110611c3f57611c3f61375c565b905f5260205f20015490508060065f886001600160a01b03166001600160a01b031681526020019081526020015f208481548110611c7f57611c7f61375c565b5f91825260209091200155611c95836001613784565b6001600160a01b0387165f90815260076020908152604080832094835293905291909120555b6001600160a01b0385165f908152600660205260409020805480611ce157611ce16137c2565b5f828152602080822083015f199081018390559092019092556001600160a01b03909616815260078652604080822095825294909552505050812055565b5f8181526009602090815260408083206001600160a01b038616845290915281205490819003611d4e57505050565b5f611d5a6001836137af565b5f8481526008602052604081205491925090611d78906001906137af565b9050808214611e34575f848152600860205260408120805483908110611da057611da061375c565b5f9182526020808320909101548783526008909152604090912080546001600160a01b039092169250829185908110611ddb57611ddb61375c565b5f91825260209091200180546001600160a01b0319166001600160a01b0392909216919091179055611e0e836001613784565b5f8681526009602090815260408083206001600160a01b03909516835293905291909120555b5f848152600860205260409020805480611e5057611e506137c2565b5f828152602080822083015f1990810180546001600160a01b03191690559092019092559481526009855260408082206001600160a01b039790971682529590945250505090812055565b5f818152600b602090815260408083206001600160a01b038616845290915281205490819003611eca57505050565b5f611ed66001836137af565b5f848152600a602052604081205491925090611ef4906001906137af565b9050808214611fb0575f848152600a60205260408120805483908110611f1c57611f1c61375c565b5f918252602080832090910154878352600a909152604090912080546001600160a01b039092169250829185908110611f5757611f5761375c565b5f91825260209091200180546001600160a01b0319166001600160a01b0392909216919091179055611f8a836001613784565b5f868152600b602090815260408083206001600160a01b03909516835293905291909120555b5f848152600a60205260409020805480611fcc57611fcc6137c2565b5f828152602080822083015f1990810180546001600160a01b0319169055909201909255858252600b815260408083206001600160a01b03891680855292528083208390555186927f43771741ded2837cf411975e50f291a36f7cb2d43b6b6359aa611180020cfbeb91a35050505050565b5f61204a5f835f611aff565b90506001600160a01b038116610ea057604051637e27328960e01b815260048101839052602401610aba565b306001600160a01b037f00000000000000000000000000000000000000000000000000000000000000001614806120fc57507f00000000000000000000000000000000000000000000000000000000000000006001600160a01b03166120f05f5160206138915f395f51905f52546001600160a01b031690565b6001600160a01b031614155b15610ff45760405163703e46dd60e11b815260040160405180910390fd5b611838611aa4565b816001600160a01b03166352d1902d6040518163ffffffff1660e01b8152600401602060405180830381865afa92505050801561217c575060408051601f3d908101601f19168201909252612179918101906137d6565b60015b6121a457604051634c9c8ce360e01b81526001600160a01b0383166004820152602401610aba565b5f5160206138915f395f51905f5281146121d457604051632a87526960e21b815260048101829052602401610aba565b610e0c838361292e565b306001600160a01b037f00000000000000000000000000000000000000000000000000000000000000001614610ff45760405163703e46dd60e11b815260040160405180910390fd5b7f9016d09d72d40fdae2fd8ceac6b6234c7706214fd39c1cd1e609a0528c19930080546001600160a01b031981166001600160a01b03848116918217845560405192169182907f8be0079c531659141344cd1fd0a4f28419497f9722a3daafe3b4186f6b6457e0905f90a3505050565b6001600160a01b0382165f908152600560209081526040808320848452909152812054156122ea576040516371d50c2360e01b81526001600160a01b038416600482015260248101839052604401610aba565b60018054905f6122f983613797565b909155505f8181526004602090815260408083208690556001600160a01b0387168352600582528083208684529091529020819055905061233a8382612983565b6001600160a01b0383165f81815260066020908152604080832080546001810182558185528385200186905593835292546007825283832085845290915291902055612386838361299c565b8082846001600160a01b03167f0a52ef355ebfc3b1bbd9448fee4e157b2d4e5035421d4e6d3029d7e33cef727e60405160405180910390a492915050565b6001600160a01b0383163b156124e557604051630a85bd0160e11b81526001600160a01b0384169063150b7a02906124069088908890879087906004016137ed565b6020604051808303815f875af1925050508015612440575060408051601f3d908101601f1916820190925261243d91810190613829565b60015b6124a7573d80801561246d576040519150601f19603f3d011682016040523d82523d5f602084013e612472565b606091505b5080515f0361249f57604051633250574960e11b81526001600160a01b0385166004820152602401610aba565b805160208201fd5b6001600160e01b03198116630a85bd0160e11b146124e357604051633250574960e11b81526001600160a01b0385166004820152602401610aba565b505b5050505050565b6060600280546124fb906134e7565b80601f0160208091040260200160405190810160405280929190818152602001828054612527906134e7565b80156125725780601f1061254957610100808354040283529160200191612572565b820191905f5260205f20905b81548152906001019060200180831161255557829003601f168201915b5050505050905090565b6060825f61258b846002613844565b612596906002613784565b6001600160401b038111156125ad576125ad612f75565b6040519080825280601f01601f1916602001820160405280156125d7576020820181803683370190505b509050600360fc1b815f815181106125f1576125f161375c565b60200101906001600160f81b03191690815f1a905350600f60fb1b8160018151811061261f5761261f61375c565b60200101906001600160f81b03191690815f1a9053505f612641856002613844565b61264c906001613784565b90505b60018111156126c3576f181899199a1a9b1b9c1cb0b131b232b360811b83600f16601081106126805761268061375c565b1a60f81b8282815181106126965761269661375c565b60200101906001600160f81b03191690815f1a90535060049290921c916126bc8161385b565b905061264f565b5081156112175760405163e22e27eb60e01b81526004810186905260248101859052604401610aba565b5f818152600b602090815260408083206001600160a01b038616845290915290205415612718575050565b5f818152600a6020908152604080832080546001810182558185528385200180546001600160a01b0319166001600160a01b0388169081179091558585529054600b8452828520828652909352818420929092555183927fec245c738c3c29fffbbe0748680bbf86b19b847eeaa723bfbeb563f44ab503f291a35050565b5f9081527f80bb2b638cc20bc4d0a60d66940f3ab4a00c1d7b313497ca82fb0b4ab007930260205260409020546001600160a01b031690565b5f5f5160206138715f395f51905f52816127e885612796565b90506001600160a01b0384161561280457612804818587612a19565b6001600160a01b038116156128405761281f5f865f5f612a7d565b6001600160a01b0381165f908152600383016020526040902080545f190190555b6001600160a01b03861615612870576001600160a01b0386165f9081526003830160205260409020805460010190555b5f85815260028301602052604080822080546001600160a01b0319166001600160a01b038a811691821790925591518893918516917fddf252ad1be2c89b69c2b068fc378daa952ba7f163c4a11628f55a4df523b3ef91a495945050505050565b6128d9612b90565b610ff457604051631afcd79f60e31b815260040160405180910390fd5b6128fe6128d1565b5f5160206138715f395f51905f52806129178482613563565b5060018101610bb58382613563565b6118066128d1565b61293782612ba9565b6040516001600160a01b038316907fbc7cd75a20ee27fd9adebab32041f755214dbc6bffa90cc0225b39da2e5c2d3b905f90a280511561297b57610e0c8282612c0c565b610ea0612cac565b610ea0828260405180602001604052805f815250612ccb565b5f8181526009602090815260408083206001600160a01b0386168452909152902054156129c7575050565b5f81815260086020908152604080832080546001810182558185528385200180546001600160a01b039097166001600160a01b0319909716871790559383529254600982528383209483529390522055565b612a24838383612ce2565b610e0c576001600160a01b038316612a5257604051637e27328960e01b815260048101829052602401610aba565b60405163177e802f60e01b81526001600160a01b038316600482015260248101829052604401610aba565b5f5160206138715f395f51905f528180612a9f57506001600160a01b03831615155b15612b60575f612aae85611a34565b90506001600160a01b03841615801590612ada5750836001600160a01b0316816001600160a01b031614155b8015612aed5750612aeb8185611778565b155b15612b165760405163a9fbf51f60e01b81526001600160a01b0385166004820152602401610aba565b8215612b5e5784866001600160a01b0316826001600160a01b03167f8c5be1e5ebec7d5bd14f71427d1e84f3dd0314c0f7b2291e5b200ac8c7c3b92560405160405180910390a45b505b5f93845260040160205250506040902080546001600160a01b0319166001600160a01b0392909216919091179055565b5f612b99611b5e565b54600160401b900460ff16919050565b806001600160a01b03163b5f03612bde57604051634c9c8ce360e01b81526001600160a01b0382166004820152602401610aba565b5f5160206138915f395f51905f5280546001600160a01b0319166001600160a01b0392909216919091179055565b60605f612c198484612d46565b9050808015612c3a57505f3d1180612c3a57505f846001600160a01b03163b115b15612c4f57612c47612d59565b9150506108ec565b8015612c7957604051639996b31560e01b81526001600160a01b0385166004820152602401610aba565b3d15612c8c57612c87612d72565b612ca5565b60405163d6bda27560e01b815260040160405180910390fd5b5092915050565b3415610ff45760405163b398979f60e01b815260040160405180910390fd5b612cd58383612d7d565b610e0c335f8585856123c4565b5f6001600160a01b038316158015906112175750826001600160a01b0316846001600160a01b03161480612d1b5750612d1b8484611778565b806112175750826001600160a01b0316612d3483611a6b565b6001600160a01b031614949350505050565b5f5f5f835160208501865af49392505050565b6040513d81523d5f602083013e3d602001810160405290565b6040513d5f823e3d81fd5b6001600160a01b038216612da657604051633250574960e11b81525f6004820152602401610aba565b5f612db283835f611aff565b90506001600160a01b03811615610e0c576040516339e3563760e11b81525f6004820152602401610aba565b6001600160e01b031981168114611838575f5ffd5b5f60208284031215612e03575f5ffd5b8135610d5281612dde565b5f60208284031215612e1e575f5ffd5b5035919050565b634e487b7160e01b5f52602160045260245ffd5b60078110612e5557634e487b7160e01b5f52602160045260245ffd5b9052565b5f81518084528060208401602086015e5f602082860101526020601f19601f83011685010191505092915050565b8315158152612e996020820184612e39565b606060408201525f611b556060830184612e59565b602081525f610d526020830184612e59565b80356001600160a01b0381168114612ed6575f5ffd5b919050565b5f5f60408385031215612eec575f5ffd5b612ef583612ec0565b946020939093013593505050565b803560078110612ed6575f5ffd5b5f5f60408385031215612f22575f5ffd5b82359150612f3260208401612f03565b90509250929050565b5f5f5f60608486031215612f4d575f5ffd5b612f5684612ec0565b9250612f6460208501612ec0565b929592945050506040919091013590565b634e487b7160e01b5f52604160045260245ffd5b5f82601f830112612f98575f5ffd5b8135602083015f5f6001600160401b03841115612fb757612fb7612f75565b50604051601f19601f85018116603f011681018181106001600160401b0382111715612fe557612fe5612f75565b604052838152905080828401871015612ffc575f5ffd5b838360208301375f602085830101528094505050505092915050565b5f5f5f5f5f60a0868803121561302c575f5ffd5b85356001600160401b03811115613041575f5ffd5b61304d88828901612f89565b95505060208601356001600160401b03811115613068575f5ffd5b61307488828901612f89565b94505061308360408701612ec0565b925060608601356001600160401b0381111561309d575f5ffd5b6130a988828901612f89565b9250506130b860808701612ec0565b90509295509295909350565b5f5f83601f8401126130d4575f5ffd5b5081356001600160401b038111156130ea575f5ffd5b602083019150836020828501011115613101575f5ffd5b9250929050565b5f5f5f6040848603121561311a575f5ffd5b61312384612f03565b925060208401356001600160401b0381111561313d575f5ffd5b613149868287016130c4565b9497909650939450505050565b5f5f5f60408486031215613168575f5ffd5b8335925060208401356001600160401b0381111561313d575f5ffd5b5f5f60408385031215613195575f5ffd5b61319e83612ec0565b915060208301356001600160401b038111156131b8575f5ffd5b6131c485828601612f89565b9150509250929050565b5f5f602083850312156131df575f5ffd5b82356001600160401b038111156131f4575f5ffd5b613200858286016130c4565b90969095509350505050565b5f6020828403121561321c575f5ffd5b610d5282612ec0565b5f5f5f5f5f5f5f5f60a0898b03121561323c575f5ffd5b61324589612ec0565b975061325360208a01612f03565b965060408901356001600160401b0381111561326d575f5ffd5b6132798b828c016130c4565b90975095505060608901356001600160401b03811115613297575f5ffd5b6132a38b828c016130c4565b90955093505060808901356001600160401b038111156132c1575f5ffd5b6132cd8b828c016130c4565b999c989b5096995094979396929594505050565b5f5f604083850312156132f2575f5ffd5b6132fb83612ec0565b91506020830135801515811461330f575f5ffd5b809150509250929050565b5f5f5f5f6080858703121561332d575f5ffd5b61333685612ec0565b935061334460208601612ec0565b92506040850135915060608501356001600160401b03811115613365575f5ffd5b61337187828801612f89565b91505092959194509250565b5f5f6040838503121561338e575f5ffd5b82359150612f3260208401612ec0565b5f5f5f604084860312156133b0575f5ffd5b6133b984612ec0565b925060208401356001600160401b038111156133d3575f5ffd5b8401601f810186136133e3575f5ffd5b80356001600160401b038111156133f8575f5ffd5b8660208260051b840101111561340c575f5ffd5b939660209190910195509293505050565b602080825282518282018190525f918401906040840190835b8181101561345d5783516001600160a01b0316835260209384019390920191600101613436565b509095945050505050565b602080825282518282018190525f918401906040840190835b8181101561345d578351835260209384019390920191600101613481565b5f5f604083850312156134b0575f5ffd5b6134b983612ec0565b9150612f3260208401612ec0565b5f5f604083850312156134d8575f5ffd5b50508035926020909101359150565b600181811c908216806134fb57607f821691505b60208210810361351957634e487b7160e01b5f52602260045260245ffd5b50919050565b601f821115610e0c57805f5260205f20601f840160051c810160208510156135445750805b601f840160051c820191505b818110156124e5575f8155600101613550565b81516001600160401b0381111561357c5761357c612f75565b6135908161358a84546134e7565b8461351f565b6020601f8211600181146135c2575f83156135ab5750848201515b5f19600385901b1c1916600184901b1784556124e5565b5f84815260208120601f198516915b828110156135f157878501518255602094850194600190920191016135d1565b508482101561360e57868401515f19600387901b60f8161c191681555b50505050600190811b01905550565b81835281816020850137505f828201602090810191909152601f909101601f19169091010190565b61364f8185612e39565b604060208201525f611b5560408301848661361d565b6001600160401b0383111561367c5761367c612f75565b6136908361368a83546134e7565b8361351f565b5f601f8411600181146136c1575f85156136aa5750838201355b5f19600387901b1c1916600186901b1783556124e5565b5f83815260208120601f198716915b828110156136f057868501358255602094850194600190920191016136d0565b508682101561370c575f1960f88860031b161c19848701351681555b505060018560011b0183555050505050565b602081525f61121760208301848661361d565b5f81518060208401855e5f93019283525090919050565b5f6112176137568386613731565b84613731565b634e487b7160e01b5f52603260045260245ffd5b634e487b7160e01b5f52601160045260245ffd5b808201808211156108ec576108ec613770565b5f600182016137a8576137a8613770565b5060010190565b818103818111156108ec576108ec613770565b634e487b7160e01b5f52603160045260245ffd5b5f602082840312156137e6575f5ffd5b5051919050565b6001600160a01b03858116825284166020820152604081018390526080606082018190525f9061381f90830184612e59565b9695505050505050565b5f60208284031215613839575f5ffd5b8151610d5281612dde565b80820281158282048414176108ec576108ec613770565b5f8161386957613869613770565b505f19019056fe80bb2b638cc20bc4d0a60d66940f3ab4a00c1d7b313497ca82fb0b4ab0079300360894a13ba1a3210667c828492db98dca3e2076cc3735a920a3ca505d382bbca2646970667358221220b5019335bf6972174bfd1b654a6cd789575ef009423ca486c3346b3ab43b72fd64736f6c634300081e0033","linkReferences":{}},"methodIdentifiers":{"UPGRADE_INTERFACE_VERSION()":"ad3cb1cc","approve(address,uint256)":"095ea7b3","backend()":"099e4133","balanceOf(address)":"70a08231","burn(uint256)":"42966c68","canJoinGroup(address,bytes32)":"60f55375","canText(address,address,bytes32)":"8c7ddefc","completeAndRegisterByExternalId(address,uint8,string,string,string)":"8a58e44c","completionTokenId(address,bytes32)":"4dde7105","computeMediaId(uint8,string)":"3e536cc1","getApproved(uint256)":"081812fc","getsimilars(address,uint256[])":"debdb91d","getusernft(address)":"df806be7","groupMemberAt(bytes32,uint256)":"eef49337","groupMemberCount(bytes32)":"a483e614","hasCompleted(address,bytes32)":"e349566c","initialize(string,string,address,string,address)":"28ccf844","isApprovedForAll(address,address)":"e985e9c5","isGroupMember(bytes32,address)":"cb3022ff","isRegistrar(address)":"d5db72eb","joinGroup(bytes32)":"fb0135d1","leaveGroup(bytes32)":"f931544b","mediaInfo(bytes32)":"03c45cf5","name()":"06fdde03","nextTokenId()":"75794a3c","owner()":"8da5cb5b","ownerOf(uint256)":"6352211e","proxiableUUID()":"52d1902d","renounceOwnership()":"715018a6","safeTransferFrom(address,address,uint256)":"42842e0e","safeTransferFrom(address,address,uint256,bytes)":"b88d4fde","setApprovalForAll(address,bool)":"a22cb465","setBackend(address)":"da7fc24f","setBaseURI(string)":"55f804b3","setMediaKind(bytes32,uint8)":"17c6f2de","setMediaURI(bytes32,string)":"3f0ccf6a","setRegistrar(address,bool)":"c1bf1dcf","supportsInterface(bytes4)":"01ffc9a7","symbol()":"95d89b41","tokenMediaId(uint256)":"51be10d6","tokenURI(uint256)":"c87b56dd","transferFrom(address,address,uint256)":"23b872dd","transferOwnership(address)":"f2fde38b","upgradeToAndCall(address,bytes)":"4f1ef286","userTokenIds(address)":"e8c40392"},"id":51}